{
  "_format": "hh-sol-artifact-1",
  "contractName": "TokenManagerERC721",
  "sourceName": "contracts/schain/TokenManagers/TokenManagerERC721.sol",
  "abi": [
    {
      "anonymous": false,
      "inputs": [
        {
          "indexed": false,
          "internalType": "address",
          "name": "oldValue",
          "type": "address"
        },
        {
          "indexed": false,
          "internalType": "address",
          "name": "newValue",
          "type": "address"
        }
      ],
      "name": "DepositBoxWasChanged",
      "type": "event"
    },
    {
      "anonymous": false,
      "inputs": [
        {
          "indexed": true,
          "internalType": "SchainHash",
          "name": "chainHash",
          "type": "bytes32"
        },
        {
          "indexed": true,
          "internalType": "address",
          "name": "erc721OnMainChain",
          "type": "address"
        },
        {
          "indexed": true,
          "internalType": "address",
          "name": "erc721OnSchain",
          "type": "address"
        }
      ],
      "name": "ERC721TokenAdded",
      "type": "event"
    },
    {
      "anonymous": false,
      "inputs": [
        {
          "indexed": true,
          "internalType": "SchainHash",
          "name": "chainHash",
          "type": "bytes32"
        },
        {
          "indexed": true,
          "internalType": "address",
          "name": "erc721OnMainChain",
          "type": "address"
        },
        {
          "indexed": true,
          "internalType": "address",
          "name": "erc721OnSchain",
          "type": "address"
        }
      ],
      "name": "ERC721TokenCreated",
      "type": "event"
    },
    {
      "anonymous": false,
      "inputs": [
        {
          "indexed": true,
          "internalType": "SchainHash",
          "name": "chainHash",
          "type": "bytes32"
        },
        {
          "indexed": true,
          "internalType": "address",
          "name": "contractOnMainnet",
          "type": "address"
        },
        {
          "indexed": false,
          "internalType": "uint256",
          "name": "tokenId",
          "type": "uint256"
        }
      ],
      "name": "ERC721TokenReady",
      "type": "event"
    },
    {
      "anonymous": false,
      "inputs": [
        {
          "indexed": true,
          "internalType": "SchainHash",
          "name": "chainHash",
          "type": "bytes32"
        },
        {
          "indexed": true,
          "internalType": "address",
          "name": "erc721OnMainChain",
          "type": "address"
        },
        {
          "indexed": true,
          "internalType": "address",
          "name": "erc721OnSchain",
          "type": "address"
        },
        {
          "indexed": false,
          "internalType": "uint256",
          "name": "tokenId",
          "type": "uint256"
        }
      ],
      "name": "ERC721TokenReceived",
      "type": "event"
    },
    {
      "anonymous": false,
      "inputs": [
        {
          "indexed": false,
          "internalType": "uint8",
          "name": "version",
          "type": "uint8"
        }
      ],
      "name": "Initialized",
      "type": "event"
    },
    {
      "anonymous": false,
      "inputs": [
        {
          "indexed": true,
          "internalType": "bytes32",
          "name": "role",
          "type": "bytes32"
        },
        {
          "indexed": true,
          "internalType": "bytes32",
          "name": "previousAdminRole",
          "type": "bytes32"
        },
        {
          "indexed": true,
          "internalType": "bytes32",
          "name": "newAdminRole",
          "type": "bytes32"
        }
      ],
      "name": "RoleAdminChanged",
      "type": "event"
    },
    {
      "anonymous": false,
      "inputs": [
        {
          "indexed": true,
          "internalType": "bytes32",
          "name": "role",
          "type": "bytes32"
        },
        {
          "indexed": true,
          "internalType": "address",
          "name": "account",
          "type": "address"
        },
        {
          "indexed": true,
          "internalType": "address",
          "name": "sender",
          "type": "address"
        }
      ],
      "name": "RoleGranted",
      "type": "event"
    },
    {
      "anonymous": false,
      "inputs": [
        {
          "indexed": true,
          "internalType": "bytes32",
          "name": "role",
          "type": "bytes32"
        },
        {
          "indexed": true,
          "internalType": "address",
          "name": "account",
          "type": "address"
        },
        {
          "indexed": true,
          "internalType": "address",
          "name": "sender",
          "type": "address"
        }
      ],
      "name": "RoleRevoked",
      "type": "event"
    },
    {
      "inputs": [],
      "name": "AUTOMATIC_DEPLOY_ROLE",
      "outputs": [
        {
          "internalType": "bytes32",
          "name": "",
          "type": "bytes32"
        }
      ],
      "stateMutability": "view",
      "type": "function"
    },
    {
      "inputs": [],
      "name": "DEFAULT_ADMIN_ROLE",
      "outputs": [
        {
          "internalType": "bytes32",
          "name": "",
          "type": "bytes32"
        }
      ],
      "stateMutability": "view",
      "type": "function"
    },
    {
      "inputs": [],
      "name": "MAINNET_HASH",
      "outputs": [
        {
          "internalType": "SchainHash",
          "name": "",
          "type": "bytes32"
        }
      ],
      "stateMutability": "view",
      "type": "function"
    },
    {
      "inputs": [],
      "name": "MAINNET_NAME",
      "outputs": [
        {
          "internalType": "string",
          "name": "",
          "type": "string"
        }
      ],
      "stateMutability": "view",
      "type": "function"
    },
    {
      "inputs": [],
      "name": "TOKEN_REGISTRAR_ROLE",
      "outputs": [
        {
          "internalType": "bytes32",
          "name": "",
          "type": "bytes32"
        }
      ],
      "stateMutability": "view",
      "type": "function"
    },
    {
      "inputs": [
        {
          "internalType": "string",
          "name": "originChainName",
          "type": "string"
        },
        {
          "internalType": "address",
          "name": "erc721OnOriginChain",
          "type": "address"
        },
        {
          "internalType": "address",
          "name": "newErc721OnSchain",
          "type": "address"
        }
      ],
      "name": "addERC721TokenByOwner",
      "outputs": [],
      "stateMutability": "nonpayable",
      "type": "function"
    },
    {
      "inputs": [
        {
          "internalType": "string",
          "name": "schainName",
          "type": "string"
        },
        {
          "internalType": "address",
          "name": "newTokenManager",
          "type": "address"
        }
      ],
      "name": "addTokenManager",
      "outputs": [],
      "stateMutability": "nonpayable",
      "type": "function"
    },
    {
      "inputs": [
        {
          "internalType": "contract ERC721OnChain",
          "name": "",
          "type": "address"
        }
      ],
      "name": "addedClones",
      "outputs": [
        {
          "internalType": "bool",
          "name": "",
          "type": "bool"
        }
      ],
      "stateMutability": "view",
      "type": "function"
    },
    {
      "inputs": [],
      "name": "automaticDeploy",
      "outputs": [
        {
          "internalType": "bool",
          "name": "",
          "type": "bool"
        }
      ],
      "stateMutability": "view",
      "type": "function"
    },
    {
      "inputs": [
        {
          "internalType": "address",
          "name": "newDepositBox",
          "type": "address"
        }
      ],
      "name": "changeDepositBoxAddress",
      "outputs": [],
      "stateMutability": "nonpayable",
      "type": "function"
    },
    {
      "inputs": [
        {
          "internalType": "SchainHash",
          "name": "",
          "type": "bytes32"
        },
        {
          "internalType": "address",
          "name": "",
          "type": "address"
        }
      ],
      "name": "clonesErc721",
      "outputs": [
        {
          "internalType": "contract ERC721OnChain",
          "name": "",
          "type": "address"
        }
      ],
      "stateMutability": "view",
      "type": "function"
    },
    {
      "inputs": [],
      "name": "communityLocker",
      "outputs": [
        {
          "internalType": "contract ICommunityLocker",
          "name": "",
          "type": "address"
        }
      ],
      "stateMutability": "view",
      "type": "function"
    },
    {
      "inputs": [],
      "name": "depositBox",
      "outputs": [
        {
          "internalType": "address",
          "name": "",
          "type": "address"
        }
      ],
      "stateMutability": "view",
      "type": "function"
    },
    {
      "inputs": [
        {
          "internalType": "address",
          "name": "",
          "type": "address"
        }
      ],
      "name": "deprecatedClonesErc721",
      "outputs": [
        {
          "internalType": "contract ERC721OnChain",
          "name": "",
          "type": "address"
        }
      ],
      "stateMutability": "view",
      "type": "function"
    },
    {
      "inputs": [],
      "name": "disableAutomaticDeploy",
      "outputs": [],
      "stateMutability": "nonpayable",
      "type": "function"
    },
    {
      "inputs": [],
      "name": "enableAutomaticDeploy",
      "outputs": [],
      "stateMutability": "nonpayable",
      "type": "function"
    },
    {
      "inputs": [
        {
          "internalType": "address",
          "name": "contractOnMainnet",
          "type": "address"
        },
        {
          "internalType": "uint256",
          "name": "tokenId",
          "type": "uint256"
        }
      ],
      "name": "exitToMainERC721",
      "outputs": [],
      "stateMutability": "nonpayable",
      "type": "function"
    },
    {
      "inputs": [
        {
          "internalType": "bytes32",
          "name": "role",
          "type": "bytes32"
        }
      ],
      "name": "getRoleAdmin",
      "outputs": [
        {
          "internalType": "bytes32",
          "name": "",
          "type": "bytes32"
        }
      ],
      "stateMutability": "view",
      "type": "function"
    },
    {
      "inputs": [
        {
          "internalType": "bytes32",
          "name": "role",
          "type": "bytes32"
        },
        {
          "internalType": "uint256",
          "name": "index",
          "type": "uint256"
        }
      ],
      "name": "getRoleMember",
      "outputs": [
        {
          "internalType": "address",
          "name": "",
          "type": "address"
        }
      ],
      "stateMutability": "view",
      "type": "function"
    },
    {
      "inputs": [
        {
          "internalType": "bytes32",
          "name": "role",
          "type": "bytes32"
        }
      ],
      "name": "getRoleMemberCount",
      "outputs": [
        {
          "internalType": "uint256",
          "name": "",
          "type": "uint256"
        }
      ],
      "stateMutability": "view",
      "type": "function"
    },
    {
      "inputs": [
        {
          "internalType": "bytes32",
          "name": "role",
          "type": "bytes32"
        },
        {
          "internalType": "address",
          "name": "account",
          "type": "address"
        }
      ],
      "name": "grantRole",
      "outputs": [],
      "stateMutability": "nonpayable",
      "type": "function"
    },
    {
      "inputs": [
        {
          "internalType": "bytes32",
          "name": "role",
          "type": "bytes32"
        },
        {
          "internalType": "address",
          "name": "account",
          "type": "address"
        }
      ],
      "name": "hasRole",
      "outputs": [
        {
          "internalType": "bool",
          "name": "",
          "type": "bool"
        }
      ],
      "stateMutability": "view",
      "type": "function"
    },
    {
      "inputs": [
        {
          "internalType": "string",
          "name": "schainName",
          "type": "string"
        }
      ],
      "name": "hasTokenManager",
      "outputs": [
        {
          "internalType": "bool",
          "name": "",
          "type": "bool"
        }
      ],
      "stateMutability": "view",
      "type": "function"
    },
    {
      "inputs": [
        {
          "internalType": "string",
          "name": "newChainName",
          "type": "string"
        },
        {
          "internalType": "contract IMessageProxyForSchain",
          "name": "newMessageProxy",
          "type": "address"
        },
        {
          "internalType": "contract ITokenManagerLinker",
          "name": "newIMALinker",
          "type": "address"
        },
        {
          "internalType": "contract ICommunityLocker",
          "name": "newCommunityLocker",
          "type": "address"
        },
        {
          "internalType": "address",
          "name": "newDepositBox",
          "type": "address"
        }
      ],
      "name": "initialize",
      "outputs": [],
      "stateMutability": "nonpayable",
      "type": "function"
    },
    {
      "inputs": [
        {
          "internalType": "string",
          "name": "newSchainName",
          "type": "string"
        },
        {
          "internalType": "contract IMessageProxyForSchain",
          "name": "newMessageProxy",
          "type": "address"
        },
        {
          "internalType": "contract ITokenManagerLinker",
          "name": "newIMALinker",
          "type": "address"
        },
        {
          "internalType": "contract ICommunityLocker",
          "name": "newCommunityLocker",
          "type": "address"
        },
        {
          "internalType": "address",
          "name": "newDepositBox",
          "type": "address"
        }
      ],
      "name": "initializeTokenManager",
      "outputs": [],
      "stateMutability": "nonpayable",
      "type": "function"
    },
    {
      "inputs": [],
      "name": "messageProxy",
      "outputs": [
        {
          "internalType": "contract IMessageProxyForSchain",
          "name": "",
          "type": "address"
        }
      ],
      "stateMutability": "view",
      "type": "function"
    },
    {
      "inputs": [
        {
          "internalType": "SchainHash",
          "name": "fromChainHash",
          "type": "bytes32"
        },
        {
          "internalType": "address",
          "name": "sender",
          "type": "address"
        },
        {
          "internalType": "bytes",
          "name": "data",
          "type": "bytes"
        }
      ],
      "name": "postMessage",
      "outputs": [],
      "stateMutability": "nonpayable",
      "type": "function"
    },
    {
      "inputs": [
        {
          "internalType": "string",
          "name": "schainName",
          "type": "string"
        }
      ],
      "name": "removeTokenManager",
      "outputs": [],
      "stateMutability": "nonpayable",
      "type": "function"
    },
    {
      "inputs": [
        {
          "internalType": "bytes32",
          "name": "role",
          "type": "bytes32"
        },
        {
          "internalType": "address",
          "name": "account",
          "type": "address"
        }
      ],
      "name": "renounceRole",
      "outputs": [],
      "stateMutability": "nonpayable",
      "type": "function"
    },
    {
      "inputs": [
        {
          "internalType": "bytes32",
          "name": "role",
          "type": "bytes32"
        },
        {
          "internalType": "address",
          "name": "account",
          "type": "address"
        }
      ],
      "name": "revokeRole",
      "outputs": [],
      "stateMutability": "nonpayable",
      "type": "function"
    },
    {
      "inputs": [],
      "name": "schainHash",
      "outputs": [
        {
          "internalType": "SchainHash",
          "name": "",
          "type": "bytes32"
        }
      ],
      "stateMutability": "view",
      "type": "function"
    },
    {
      "inputs": [
        {
          "internalType": "bytes4",
          "name": "interfaceId",
          "type": "bytes4"
        }
      ],
      "name": "supportsInterface",
      "outputs": [
        {
          "internalType": "bool",
          "name": "",
          "type": "bool"
        }
      ],
      "stateMutability": "view",
      "type": "function"
    },
    {
      "inputs": [],
      "name": "tokenManagerLinker",
      "outputs": [
        {
          "internalType": "contract ITokenManagerLinker",
          "name": "",
          "type": "address"
        }
      ],
      "stateMutability": "view",
      "type": "function"
    },
    {
      "inputs": [
        {
          "internalType": "SchainHash",
          "name": "",
          "type": "bytes32"
        }
      ],
      "name": "tokenManagers",
      "outputs": [
        {
          "internalType": "address",
          "name": "",
          "type": "address"
        }
      ],
      "stateMutability": "view",
      "type": "function"
    },
    {
      "inputs": [
        {
          "internalType": "string",
          "name": "targetSchainName",
          "type": "string"
        },
        {
          "internalType": "address",
          "name": "contractOnMainnet",
          "type": "address"
        },
        {
          "internalType": "uint256",
          "name": "tokenId",
          "type": "uint256"
        }
      ],
      "name": "transferToSchainERC721",
      "outputs": [],
      "stateMutability": "nonpayable",
      "type": "function"
    },
    {
      "inputs": [
        {
          "internalType": "address",
          "name": "",
          "type": "address"
        },
        {
          "internalType": "uint256",
          "name": "",
          "type": "uint256"
        }
      ],
      "name": "transferredAmount",
      "outputs": [
        {
          "internalType": "SchainHash",
          "name": "",
          "type": "bytes32"
        }
      ],
      "stateMutability": "view",
      "type": "function"
    }
  ],
  "bytecode": "0x6080604052348015600f57600080fd5b506160f68061001f6000396000f3fe608060405234801561001057600080fd5b506004361061021c5760003560e01c80636d61128611610125578063b9581c50116100ad578063cb703bff1161007c578063cb703bff1461051c578063cc5b715b1461052f578063d547741f14610556578063dec2deb614610569578063edcc12b51461057d57600080fd5b8063b9581c50146104ba578063c0e312dc146104c2578063ca15c873146104d5578063ca99be02146104e857600080fd5b80639010d07c116100f45780639010d07c1461044057806391d1485414610453578063a217fddf14610466578063aebaaca91461046e578063b4a0522b1461049157600080fd5b80636d611286146103f45780636d6c68e6146104075780636e81ae281461041a578063884cee5a1461042d57600080fd5b80632f2ff15d116101a85780633fa194ce116101775780633fa194ce1461037357806350f44280146103885780635573b8b6146103bb578063680ae2fe146103ce5780636ce681d2146103e157600080fd5b80632f2ff15d1461033157806336568abe1461034457806339927cf9146103575780633b690b6b1461036a57600080fd5b80630f1a8f74116101ef5780630f1a8f741461029f5780631e0594e3146102e0578063248a9ca3146102f357806328c5e182146103165780632dc151de1461031e57600080fd5b806301ffc9a714610221578063029996b8146102495780630b6c6723146102535780630b885ac31461028c575b600080fd5b61023461022f366004612cad565b610590565b60405190151581526020015b60405180910390f35b6102516105bb565b005b61027e610261366004612cec565b60d260209081526000928352604080842090915290825290205481565b604051908152602001610240565b61025161029a366004612e25565b61060d565b6102c86102ad366004612eae565b60ce602052600090815260409020546001600160a01b031681565b6040516001600160a01b039091168152602001610240565b6102516102ee366004612f0f565b610621565b61027e610301366004612eae565b60009081526065602052604090206001015490565b61027e61074d565b60ca546102c8906001600160a01b031681565b61025161033f366004612f6b565b610796565b610251610352366004612f6b565b6107c0565b610234610365366004612f9b565b61083e565b61027e60cc5481565b61027e6000805160206160a183398151915281565b6103ae6040518060400160405280600781526020016613585a5b9b995d60ca1b81525081565b604051610240919061302c565b60c9546102c8906001600160a01b031681565b6102516103dc36600461303f565b610899565b6102516103ef366004612e25565b610b9f565b60cd546102c8906001600160a01b031681565b60cb546102c8906001600160a01b031681565b610251610428366004612cec565b610dff565b61025161043b3660046130a6565b610f0b565b6102c861044e366004613101565b611069565b610234610461366004612f6b565b611088565b61027e600081565b61023461047c366004613123565b60d06020526000908152604090205460ff1681565b6102c861049f366004613123565b60cf602052600090815260409020546001600160a01b031681565b6102516110b3565b6102516104d0366004612f9b565b6110f6565b61027e6104e3366004612eae565b61120b565b6102c86104f6366004612f6b565b60d16020908152600092835260408084209091529082529020546001600160a01b031681565b61025161052a366004613140565b611222565b61027e7ffda70c2cc66a36c14884ee85424961f51b1d92b4494751699b6d105b3bcbcba881565b610251610564366004612f6b565b61139e565b60cd5461023490600160a01b900460ff1681565b61025161058b366004613123565b6113c3565b60006001600160e01b03198216635a05180f60e01b14806105b557506105b5826114d9565b92915050565b6105d36000805160206160a183398151915233611088565b6105f85760405162461bcd60e51b81526004016105ef90613196565b60405180910390fd5b60cd805460ff60a01b1916600160a01b179055565b61061a8585858585610b9f565b5050505050565b83838080601f016020809104026020016040519081016040528093929190818152602001838380828437600092018290525060405133945090925061066b915084906020016131d7565b60405160208183030381529060405280519060200120905061068d818361150e565b600087876040516020016106a29291906131f3565b60408051808303601f1901815290829052805160209091012060cb54632c98abc960e11b8352600483018290523360248401529092506001600160a01b031690635931579290604401600060405180830381600087803b15801561070557600080fd5b505af1158015610719573d6000803e3d6000fd5b505050600082815260ce6020526040902054610743915082906001600160a01b031688338961167c565b5050505050505050565b6040518060400160405280600781526020016613585a5b9b995d60ca1b81525060405160200161077d91906131d7565b6040516020818303038152906040528051906020012081565b6000828152606560205260409020600101546107b181611a94565b6107bb8383611aa1565b505050565b6001600160a01b03811633146108305760405162461bcd60e51b815260206004820152602f60248201527f416363657373436f6e74726f6c3a2063616e206f6e6c792072656e6f756e636560448201526e103937b632b9903337b91039b2b63360891b60648201526084016105ef565b61083a8282611ac3565b5050565b6000806001600160a01b031660ce600085856040516020016108619291906131f3565b60408051808303601f19018152918152815160209283012083529082019290925201600020546001600160a01b031614159392505050565b6108c37ffda70c2cc66a36c14884ee85424961f51b1d92b4494751699b6d105b3bcbcba833611088565b61090f5760405162461bcd60e51b815260206004820181905260248201527f544f4b454e5f5245474953545241525f524f4c4520697320726571756972656460448201526064016105ef565b600084846040516020016109249291906131f3565b60408051601f1981840301815290829052805160209091012060c954634ccd5cd560e11b83529092506001600160a01b03169063999ab9aa9061096d9088908890600401613203565b602060405180830381865afa15801561098a573d6000803e3d6000fd5b505050506040513d601f19601f820116820180604052508101906109ae9190613232565b6109f35760405162461bcd60e51b815260206004820152601660248201527510da185a5b881a5cc81b9bdd0818dbdb9b9958dd195960521b60448201526064016105ef565b6001600160a01b0382163b610a4a5760405162461bcd60e51b815260206004820152601f60248201527f476976656e2061646472657373206973206e6f74206120636f6e74726163740060448201526064016105ef565b600081815260d1602090815260408083206001600160a01b0387811685529252909120541615610ab55760405162461bcd60e51b8152602060048201526016602482015275436f756c64206e6f742072656c696e6b20636c6f6e6560501b60448201526064016105ef565b6001600160a01b038216600090815260d0602052604090205460ff1615610b1e5760405162461bcd60e51b815260206004820152601760248201527f436c6f6e652077617320616c726561647920616464656400000000000000000060448201526064016105ef565b600081815260d1602090815260408083206001600160a01b0387811680865291845282852080546001600160a01b031916918816918217905580855260d0909352818420805460ff1916600117905590519192909184917f11bec40858c3e219ac2d82dd307a6989e3ea72d1c463dfce7376c149d5ccf30c91a45050505050565b600054610100900460ff1615808015610bbf5750600054600160ff909116105b80610bd95750303b158015610bd9575060005460ff166001145b610c3c5760405162461bcd60e51b815260206004820152602e60248201527f496e697469616c697a61626c653a20636f6e747261637420697320616c72656160448201526d191e481a5b9a5d1a585b1a5e995960921b60648201526084016105ef565b6000805460ff191660011790558015610c5f576000805461ff0019166101001790555b6001600160a01b038216610cb55760405162461bcd60e51b815260206004820181905260248201527f4465706f736974426f7820616464726573732068617320746f2062652073657460448201526064016105ef565b610cbd611ae5565b610cc8600033611b52565b610ce06000805160206160a183398151915233611b52565b610d0a7ffda70c2cc66a36c14884ee85424961f51b1d92b4494751699b6d105b3bcbcba833611b52565b85604051602001610d1b91906131d7565b60408051601f19818403018152828252805160209182012060cc5560c980546001600160a01b038a81166001600160a01b03199283161790925560ca80548a841690831617905560cb805489841690831617905560cd8054928816929091168217905560008452908301527fc968af77923193016f61d74ba6827296db5e1f37ec4fab3ad1ef20e193395e59910160405180910390a18015610df7576000805461ff0019169055604051600181527f7f26b83ff96e1f2b6a682f133852f6798a09c465da95921460cefb38474024989060200160405180910390a15b505050505050565b60cb54604080518082018252600781526613585a5b9b995d60ca1b60208083019190915291516001600160a01b0390931692635931579292610e429291016131d7565b60408051601f198184030181529082905280516020909101206001600160e01b031960e084901b1682526004820152336024820152604401600060405180830381600087803b158015610e9457600080fd5b505af1158015610ea8573d6000803e3d6000fd5b5050505061083a6040518060400160405280600781526020016613585a5b9b995d60ca1b815250604051602001610edf91906131d7565b60408051601f19818403018152919052805160209091012060cd546001600160a01b031684338561167c565b60c9546001600160a01b03163314610f655760405162461bcd60e51b815260206004820152601c60248201527f53656e646572206973206e6f742061204d65737361676550726f78790000000060448201526064016105ef565b8383610f738260cc54141590565b8015610f845750610f848282611b5c565b610fd05760405162461bcd60e51b815260206004820152601b60248201527f526563656976657220636861696e20697320696e636f7272656374000000000060448201526064016105ef565b6000610fdc8585611be9565b90506000600682600e811115610ff457610ff4613254565b14806110115750600582600e81111561100f5761100f613254565b145b1561102857611021888787611c34565b9050610743565b60405162461bcd60e51b815260206004820152601660248201527526b2b9b9b0b3b2aa3cb8329034b9903ab735b737bbb760511b60448201526064016105ef565b60008281526097602052604081206110819083612175565b9392505050565b60009182526065602090815260408084206001600160a01b0393909316845291905290205460ff1690565b6110cb6000805160206160a183398151915233611088565b6110e75760405162461bcd60e51b81526004016105ef90613196565b60cd805460ff60a01b19169055565b60ca546001600160a01b03163314806111155750611115600033611088565b6111595760405162461bcd60e51b81526020600482015260156024820152742737ba1030baba3437b934bd32b21031b0b63632b960591b60448201526064016105ef565b6000828260405160200161116e9291906131f3565b60408051601f198184030181529181528151602092830120600081815260ce9093529120549091506001600160a01b03166111eb5760405162461bcd60e51b815260206004820152601860248201527f546f6b656e204d616e61676572206973206e6f7420736574000000000000000060448201526064016105ef565b600090815260ce6020526040902080546001600160a01b03191690555050565b60008181526097602052604081206105b590612181565b60ca546001600160a01b03163314806112415750611241600033611088565b6112855760405162461bcd60e51b81526020600482015260156024820152742737ba1030baba3437b934bd32b21031b0b63632b960591b60448201526064016105ef565b6000838360405160200161129a9291906131f3565b60408051601f198184030181529181528151602092830120600081815260ce9093529120549091506001600160a01b0316156113185760405162461bcd60e51b815260206004820152601c60248201527f546f6b656e204d616e6167657220697320616c7265616479207365740000000060448201526064016105ef565b6001600160a01b03821661136e5760405162461bcd60e51b815260206004820152601f60248201527f496e636f727265637420546f6b656e204d616e6167657220616464726573730060448201526064016105ef565b600090815260ce6020526040902080546001600160a01b0319166001600160a01b03929092169190911790555050565b6000828152606560205260409020600101546113b981611a94565b6107bb8383611ac3565b6113ce600033611088565b61141a5760405162461bcd60e51b815260206004820152601e60248201527f44454641554c545f41444d494e5f524f4c45206973207265717569726564000060448201526064016105ef565b6001600160a01b0381166114705760405162461bcd60e51b815260206004820181905260248201527f4465706f736974426f7820616464726573732068617320746f2062652073657460448201526064016105ef565b60cd54604080516001600160a01b03928316815291831660208301527fc968af77923193016f61d74ba6827296db5e1f37ec4fab3ad1ef20e193395e59910160405180910390a160cd80546001600160a01b0319166001600160a01b0392909216919091179055565b60006001600160e01b03198216637965db0b60e01b14806105b557506301ffc9a760e01b6001600160e01b03198316146105b5565b61155d826040518060400160405280600781526020016613585a5b9b995d60ca1b81525060405160200161154291906131d7565b60405160208183030381529060405280519060200120141590565b6115c25760405162461bcd60e51b815260206004820152603060248201527f546869732066756e6374696f6e206973206e6f7420666f72207472616e73666560448201526f1c9c9a5b99c81d1bc813585a5b9b995d60821b60648201526084016105ef565b6001600160a01b0381166116185760405162461bcd60e51b815260206004820152601a60248201527f496e636f7272656374207265636569766572206164647265737300000000000060448201526064016105ef565b600082815260ce60205260409020546001600160a01b031661083a5760405162461bcd60e51b815260206004820152601f60248201527f496e636f727265637420546f6b656e204d616e6167657220616464726573730060448201526064016105ef565b600085815260d1602090815260408083206001600160a01b0380881685529252822054168061171657506001600160a01b038416600090815260d06020526040902054849060ff16156117115760405162461bcd60e51b815260206004820152601a60248201527f496e636f7272656374206d61696e20636861696e20746f6b656e00000000000060448201526064016105ef565b600191505b6001600160a01b0381163b61176d5760405162461bcd60e51b815260206004820152601860248201527f4e6f20746f6b656e20636c6f6e65206f6e2073636861696e000000000000000060448201526064016105ef565b60405163020604bf60e21b81526004810184905230906001600160a01b0383169063081812fc90602401602060405180830381865afa1580156117b4573d6000803e3d6000fd5b505050506040513d601f19601f820116820180604052508101906117d8919061326a565b6001600160a01b03161461182e5760405162461bcd60e51b815260206004820152601860248201527f4e6f7420616c6c6f7765642045524337323120546f6b656e000000000000000060448201526064016105ef565b600061183b86868661218b565b9050821561196357611877886040518060400160405280600781526020016613585a5b9b995d60ca1b81525060405160200161154291906131d7565b6118df5760405162461bcd60e51b815260206004820152603360248201527f4d61696e20636861696e20746f6b656e20636f756c64206e6f74206265207472604482015272185b9cd9995c9959081d1bc813585a5b9b995d606a1b60648201526084016105ef565b6118eb888333876121ea565b90506118f888838661228d565b6040516323b872dd60e01b8152336004820152306024820152604481018590526001600160a01b038316906323b872dd90606401600060405180830381600087803b15801561194657600080fd5b505af115801561195a573d6000803e3d6000fd5b50505050611a24565b6040516323b872dd60e01b8152336004820152306024820152604481018590526001600160a01b038316906323b872dd90606401600060405180830381600087803b1580156119b157600080fd5b505af11580156119c5573d6000803e3d6000fd5b5050604051630852cd8d60e31b8152600481018790526001600160a01b03851692506342966c689150602401600060405180830381600087803b158015611a0b57600080fd5b505af1158015611a1f573d6000803e3d6000fd5b505050505b60c954604051634a24490160e11b81526001600160a01b0390911690639448920290611a58908b908b908690600401613287565b600060405180830381600087803b158015611a7257600080fd5b505af1158015611a86573d6000803e3d6000fd5b505050505050505050505050565b611a9e8133612333565b50565b611aab828261238c565b60008281526097602052604090206107bb9082612412565b611acd8282612427565b60008281526097602052604090206107bb908261248e565b600054610100900460ff16611b505760405162461bcd60e51b815260206004820152602b60248201527f496e697469616c697a61626c653a20636f6e7472616374206973206e6f74206960448201526a6e697469616c697a696e6760a81b60648201526084016105ef565b565b61083a8282611aa1565b6000611bac836040518060400160405280600781526020016613585a5b9b995d60ca1b815250604051602001611b9291906131d7565b604051602081830303815290604052805190602001201490565b611bd257600083815260ce60205260409020546001600160a01b03838116911614611081565b5060cd546001600160a01b03908116911614919050565b600080611bf883850185612eae565b9050611c056020826132ba565b600003611c2857611c20611c1b848381886132dc565b611be9565b9150506105b5565b611c208385018561331a565b600080611c418484611be9565b90506000808080600585600e811115611c5c57611c5c613254565b03611cb2576000611c6d89896124a3565b60408082015160208084015160609094015160008f815260d183528481206001600160a01b03808816835293529390932054919850929650909450169150611e609050565b6000611cbe898961254f565b905080600001516040015194508060000151602001519350806000015160600151925060d160008b81526020019081526020016000206000856001600160a01b03166001600160a01b0316815260200190815260200160002060009054906101000a90046001600160a01b0316915060006001600160a01b0316826001600160a01b031603611e5e5760cd54600160a01b900460ff16611da05760405162461bcd60e51b815260206004820152601c60248201527f4175746f6d61746963206465706c6f792069732064697361626c65640000000060448201526064016105ef565b6020808201518051910151604051611db790612c4a565b611dc2929190613335565b604051809103906000f080158015611dde573d6000803e3d6000fd5b5060008b815260d1602090815260408083206001600160a01b0389811680865291845282852080546001600160a01b031916918716918217905580855260d0909352818420805460ff191660011790559051939550909290918d917f3db9e29b45c5fe72aaa0bdc4514d68a645660185a44637e9bc6f0b805ea770459190a45b505b600585600e811115611e7457611e74613254565b148015611eb05750611eb0896040518060400160405280600781526020016613585a5b9b995d60ca1b81525060405160200161154291906131d7565b8015611ecf5750600089815260d360205260409020611ecf90846125e9565b15612058576001600160a01b0383163b611f2b5760405162461bcd60e51b815260206004820152601a60248201527f496e636f7272656374206d61696e20636861696e20746f6b656e00000000000060448201526064016105ef565b6040516331a9108f60e11b81526004810183905230906001600160a01b03851690636352211e90602401602060405180830381865afa158015611f72573d6000803e3d6000fd5b505050506040513d601f19601f82011682018060405250810190611f96919061326a565b6001600160a01b031614611fe05760405162461bcd60e51b8152602060048201526011602482015270125b98dbdc9c9958dd081d1bdad95b9259607a1b60448201526064016105ef565b611feb89848461260b565b6040516323b872dd60e01b81523060048201526001600160a01b038581166024830152604482018490528416906323b872dd90606401600060405180830381600087803b15801561203b57600080fd5b505af115801561204f573d6000803e3d6000fd5b505050506120bb565b6040516340c10f1960e01b81526001600160a01b038581166004830152602482018490528216906340c10f1990604401600060405180830381600087803b1580156120a257600080fd5b505af11580156120b6573d6000803e3d6000fd5b505050505b806001600160a01b0316836001600160a01b03168a7f2735a548eee1cda16c2df4c1a546c0376f3b3bb2ceca4966ef9d251fcbdd3c458560405161210191815260200190565b60405180910390a460c95460405163e051116b60e01b81526001600160a01b0386811660048301529091169063e051116b90602401600060405180830381600087803b15801561215057600080fd5b505af1158015612164573d6000803e3d6000fd5b50959b9a5050505050505050505050565b600061108183836126b7565b60006105b5825490565b6040805160a08101825260056080820190815281526001600160a01b0380861660208084019190915290851682840152606080830185905292516121d1918391016133ad565b6040516020818303038152906040529150509392505050565b600084815260d3602052604081206060919061220690866125e9565b9050806122325761221786866126e1565b61222b858585612226896127f2565b6128ea565b9150612240565b61223d85858561218b565b91505b846001600160a01b0316867fd0fe87fb12c7aa2b7f679256044123cb20de43059fb2ddbb4cc6556f217f29dc8560405161227c91815260200190565b60405180910390a350949350505050565b6001600160a01b038216600090815260d2602090815260408083208484529091529020541561230d5760405162461bcd60e51b815260206004820152602660248201527f546f6b656e2077617320616c7265616479207472616e7366657272656420746f6044820152651031b430b4b760d11b60648201526084016105ef565b6001600160a01b03909116600090815260d2602090815260408083209383529290522055565b61233d8282611088565b61083a5761234a8161295b565b61235583602061296d565b6040516020016123669291906133bb565b60408051601f198184030181529082905262461bcd60e51b82526105ef9160040161302c565b6123968282611088565b61083a5760008281526065602090815260408083206001600160a01b03851684529091529020805460ff191660011790556123ce3390565b6001600160a01b0316816001600160a01b0316837f2f8788117e7eff1d82e926ec794901d17c78024a50270940304540a733656f0d60405160405180910390a45050565b6000611081836001600160a01b038416612b08565b6124318282611088565b1561083a5760008281526065602090815260408083206001600160a01b0385168085529252808320805460ff1916905551339285917ff6391f5c32d9c69d2a47ea670b442974b53935d1edc7fd64eb21e047a839171b9190a45050565b6000611081836001600160a01b038416612b57565b6040805160a081018252600060808201818152825260208201819052918101829052606081019190915260056124d98484611be9565b600e8111156124ea576124ea613254565b146125435760405162461bcd60e51b815260206004820152602360248201527f4d6573736167652074797065206973206e6f7420455243373231207472616e736044820152623332b960e91b60648201526084016105ef565b611081828401846134cf565b612557612c57565b60066125638484611be9565b600e81111561257457612574613254565b146125dd5760405162461bcd60e51b815260206004820152603360248201527f4d6573736167652074797065206973206e6f7420455243373231207472616e73604482015272666572207769746820746f6b656e20696e666f60681b60648201526084016105ef565b611081828401846134eb565b6001600160a01b03811660009081526001830160205260408120541515611081565b6001600160a01b038216600090815260d260209081526040808320848452909152902054831461268e5760405162461bcd60e51b815260206004820152602860248201527f546f6b656e2077617320616c7265616479207472616e7366657272656420667260448201526737b69031b430b4b760c11b60648201526084016105ef565b6001600160a01b03909116600090815260d2602090815260408083209383529290529081205550565b60008260000182815481106126ce576126ce6135d1565b9060005260206000200154905092915050565b6001600160a01b0381163b6127385760405162461bcd60e51b815260206004820152601f60248201527f476976656e2061646472657373206973206e6f74206120636f6e74726163740060448201526064016105ef565b600082815260d36020526040902061275090826125e9565b1561279d5760405162461bcd60e51b815260206004820152601e60248201527f45524337323120546f6b656e2077617320616c7265616479206164646564000060448201526064016105ef565b600082815260d3602052604090206127b59082612412565b506040516000906001600160a01b0383169084907f11bec40858c3e219ac2d82dd307a6989e3ea72d1c463dfce7376c149d5ccf30c908490a45050565b60408051808201909152606080825260208201526040518060400160405280836001600160a01b03166306fdde036040518163ffffffff1660e01b8152600401600060405180830381865afa15801561284f573d6000803e3d6000fd5b505050506040513d6000823e601f3d908101601f1916820160405261287791908101906135e7565b8152602001836001600160a01b03166395d89b416040518163ffffffff1660e01b8152600401600060405180830381865afa1580156128ba573d6000803e3d6000fd5b505050506040513d6000823e601f3d908101601f191682016040526128e291908101906135e7565b905292915050565b6040805160e081018252600660c082019081528183019081526001600160a01b03808816606080850191909152908716608084015260a0830186905290825260208083018590529251909261294191839101613654565b604051602081830303815290604052915050949350505050565b60606105b56001600160a01b03831660145b6060600061297c8360026136bf565b6129879060026136d6565b6001600160401b0381111561299e5761299e612d18565b6040519080825280601f01601f1916602001820160405280156129c8576020820181803683370190505b509050600360fc1b816000815181106129e3576129e36135d1565b60200101906001600160f81b031916908160001a905350600f60fb1b81600181518110612a1257612a126135d1565b60200101906001600160f81b031916908160001a9053506000612a368460026136bf565b612a419060016136d6565b90505b6001811115612ab9576f181899199a1a9b1b9c1cb0b131b232b360811b85600f1660108110612a7557612a756135d1565b1a60f81b828281518110612a8b57612a8b6135d1565b60200101906001600160f81b031916908160001a90535060049490941c93612ab2816136e9565b9050612a44565b5083156110815760405162461bcd60e51b815260206004820181905260248201527f537472696e67733a20686578206c656e67746820696e73756666696369656e7460448201526064016105ef565b6000818152600183016020526040812054612b4f575081546001818101845560008481526020808220909301849055845484825282860190935260409020919091556105b5565b5060006105b5565b60008181526001830160205260408120548015612c40576000612b7b600183613700565b8554909150600090612b8f90600190613700565b9050818114612bf4576000866000018281548110612baf57612baf6135d1565b9060005260206000200154905080876000018481548110612bd257612bd26135d1565b6000918252602080832090910192909255918252600188019052604090208390555b8554869080612c0557612c05613713565b6001900381819060005260206000200160009055905585600101600086815260200190815260200160002060009055600193505050506105b5565b60009150506105b5565b6129778061372a83390190565b6040805160e081018252600060c08201818152928201928352606082018190526080820181905260a08201529081908152602001612ca8604051806040016040528060608152602001606081525090565b905290565b600060208284031215612cbf57600080fd5b81356001600160e01b03198116811461108157600080fd5b6001600160a01b0381168114611a9e57600080fd5b60008060408385031215612cff57600080fd5b8235612d0a81612cd7565b946020939093013593505050565b634e487b7160e01b600052604160045260246000fd5b604051602081016001600160401b0381118282101715612d5057612d50612d18565b60405290565b604080519081016001600160401b0381118282101715612d5057612d50612d18565b604051601f8201601f191681016001600160401b0381118282101715612da057612da0612d18565b604052919050565b60006001600160401b03821115612dc157612dc1612d18565b50601f01601f191660200190565b600082601f830112612de057600080fd5b8135612df3612dee82612da8565b612d78565b818152846020838601011115612e0857600080fd5b816020850160208301376000918101602001919091529392505050565b600080600080600060a08688031215612e3d57600080fd5b85356001600160401b03811115612e5357600080fd5b612e5f88828901612dcf565b9550506020860135612e7081612cd7565b93506040860135612e8081612cd7565b92506060860135612e9081612cd7565b91506080860135612ea081612cd7565b809150509295509295909350565b600060208284031215612ec057600080fd5b5035919050565b60008083601f840112612ed957600080fd5b5081356001600160401b03811115612ef057600080fd5b602083019150836020828501011115612f0857600080fd5b9250929050565b60008060008060608587031215612f2557600080fd5b84356001600160401b03811115612f3b57600080fd5b612f4787828801612ec7565b9095509350506020850135612f5b81612cd7565b9396929550929360400135925050565b60008060408385031215612f7e57600080fd5b823591506020830135612f9081612cd7565b809150509250929050565b60008060208385031215612fae57600080fd5b82356001600160401b03811115612fc457600080fd5b612fd085828601612ec7565b90969095509350505050565b60005b83811015612ff7578181015183820152602001612fdf565b50506000910152565b60008151808452613018816020860160208601612fdc565b601f01601f19169290920160200192915050565b6020815260006110816020830184613000565b6000806000806060858703121561305557600080fd5b84356001600160401b0381111561306b57600080fd5b61307787828801612ec7565b909550935050602085013561308b81612cd7565b9150604085013561309b81612cd7565b939692955090935050565b600080600080606085870312156130bc57600080fd5b8435935060208501356130ce81612cd7565b925060408501356001600160401b038111156130e957600080fd5b6130f587828801612ec7565b95989497509550505050565b6000806040838503121561311457600080fd5b50508035926020909101359150565b60006020828403121561313557600080fd5b813561108181612cd7565b60008060006040848603121561315557600080fd5b83356001600160401b0381111561316b57600080fd5b61317786828701612ec7565b909450925050602084013561318b81612cd7565b809150509250925092565b60208082526021908201527f4155544f4d415449435f4445504c4f595f524f4c4520697320726571756972656040820152601960fa1b606082015260800190565b600082516131e9818460208701612fdc565b9190910192915050565b8183823760009101908152919050565b60208152816020820152818360408301376000818301604090810191909152601f909201601f19160101919050565b60006020828403121561324457600080fd5b8151801515811461108157600080fd5b634e487b7160e01b600052602160045260246000fd5b60006020828403121561327c57600080fd5b815161108181612cd7565b8381526001600160a01b03831660208201526060604082018190526000906132b190830184613000565b95945050505050565b6000826132d757634e487b7160e01b600052601260045260246000fd5b500690565b600080858511156132ec57600080fd5b838611156132f957600080fd5b5050820193919092039150565b8035600f811061331557600080fd5b919050565b60006020828403121561332c57600080fd5b61108182613306565b6040815260006133486040830185613000565b82810360208401526132b18185613000565b805151600f811061337b57634e487b7160e01b600052602160045260246000fd5b82526020818101516001600160a01b039081169184019190915260408083015190911690830152606090810151910152565b608081016105b5828461335a565b7f416363657373436f6e74726f6c3a206163636f756e74200000000000000000008152600083516133f3816017850160208801612fdc565b7001034b99036b4b9b9b4b733903937b6329607d1b6017918401918201528351613424816028840160208801612fdc565b01602801949350505050565b6000818303608081121561344357600080fd5b604051608081016001600160401b038111828210171561346557613465612d18565b604052915081602082121561347957600080fd5b613481612d2e565b915061348c84613306565b82529081526020830135906134a082612cd7565b816020820152604084013591506134b682612cd7565b6040810191909152606092830135920191909152919050565b6000608082840312156134e157600080fd5b6110818383613430565b6000602082840312156134fd57600080fd5b81356001600160401b0381111561351357600080fd5b820160a0818503121561352557600080fd5b61352d612d56565b6135378583613430565b815260808201356001600160401b0381111561355257600080fd5b91909101906040828603121561356757600080fd5b61356f612d56565b82356001600160401b0381111561358557600080fd5b61359187828601612dcf565b82525060208301356001600160401b038111156135ad57600080fd5b6135b987828601612dcf565b60208301525080602083015250809250505092915050565b634e487b7160e01b600052603260045260246000fd5b6000602082840312156135f957600080fd5b81516001600160401b0381111561360f57600080fd5b8201601f8101841361362057600080fd5b805161362e612dee82612da8565b81815285602083850101111561364357600080fd5b6132b1826020830160208601612fdc565b6020815261366660208201835161335a565b6000602083015160a0808401528051604060c085015261368a610100850182613000565b90506020820151915060bf198482030160e08501526132b18183613000565b634e487b7160e01b600052601160045260246000fd5b80820281158282048414176105b5576105b56136a9565b808201808211156105b5576105b56136a9565b6000816136f8576136f86136a9565b506000190190565b818103818111156105b5576105b56136a9565b634e487b7160e01b600052603160045260246000fdfe608060405234801561001057600080fd5b5060405161297738038061297783398101604081905261002f91610504565b600054610100900460ff161580801561004f5750600054600160ff909116105b806100695750303b158015610069575060005460ff166001145b6100d15760405162461bcd60e51b815260206004820152602e60248201527f496e697469616c697a61626c653a20636f6e747261637420697320616c72656160448201526d191e481a5b9a5d1a585b1a5e995960921b60648201526084015b60405180910390fd5b6000805460ff1916600117905580156100f4576000805461ff0019166101001790555b6100fc61018c565b61010683836101e7565b61010e61018c565b6101266000805160206129578339815191528061024e565b61013e60008051602061295783398151915233610299565b8015610184576000805461ff0019169055604051600181527f7f26b83ff96e1f2b6a682f133852f6798a09c465da95921460cefb38474024989060200160405180910390a15b5050506106b3565b600054610100900460ff166101e55760405162461bcd60e51b815260206004820152602b602482015260008051602061293783398151915260448201526a6e697469616c697a696e6760a81b60648201526084016100c8565b565b600054610100900460ff166102405760405162461bcd60e51b815260206004820152602b602482015260008051602061293783398151915260448201526a6e697469616c697a696e6760a81b60648201526084016100c8565b61024a82826102a3565b5050565b600082815260656020526040808220600101805490849055905190918391839186917fbd79b86ffe0ab8e8776151514217cd7cacd52c909f66475c3af44e129f0b00ff9190a4505050565b61024a828261031a565b600054610100900460ff166102fc5760405162461bcd60e51b815260206004820152602b602482015260008051602061293783398151915260448201526a6e697469616c697a696e6760a81b60648201526084016100c8565b60c961030883826105f5565b5060ca61031582826105f5565b505050565b610324828261033c565b600082815260976020526040902061031590826103de565b60008281526065602090815260408083206001600160a01b038516845290915290205460ff1661024a5760008281526065602090815260408083206001600160a01b03851684529091529020805460ff1916600117905561039a3390565b6001600160a01b0316816001600160a01b0316837f2f8788117e7eff1d82e926ec794901d17c78024a50270940304540a733656f0d60405160405180910390a45050565b60006103f3836001600160a01b0384166103fc565b90505b92915050565b6000818152600183016020526040812054610443575081546001818101845560008481526020808220909301849055845484825282860190935260409020919091556103f6565b5060006103f6565b634e487b7160e01b600052604160045260246000fd5b600082601f83011261047257600080fd5b81516001600160401b0381111561048b5761048b61044b565b604051601f8201601f19908116603f011681016001600160401b03811182821017156104b9576104b961044b565b6040528181528382016020018510156104d157600080fd5b60005b828110156104f0576020818601810151838301820152016104d4565b506000918101602001919091529392505050565b6000806040838503121561051757600080fd5b82516001600160401b0381111561052d57600080fd5b61053985828601610461565b602085015190935090506001600160401b0381111561055757600080fd5b61056385828601610461565b9150509250929050565b600181811c9082168061058157607f821691505b6020821081036105a157634e487b7160e01b600052602260045260246000fd5b50919050565b601f82111561031557806000526020600020601f840160051c810160208510156105ce5750805b601f840160051c820191505b818110156105ee57600081556001016105da565b5050505050565b81516001600160401b0381111561060e5761060e61044b565b6106228161061c845461056d565b846105a7565b6020601f821160018114610656576000831561063e5750848201515b600019600385901b1c1916600184901b1784556105ee565b600084815260208120601f198516915b828110156106865787850151825560209485019460019092019101610666565b50848210156106a45786840151600019600387901b60f8161c191681555b50505050600190811b01905550565b612275806106c26000396000f3fe608060405234801561001057600080fd5b50600436106101735760003560e01c80636352211e116100de578063a22cb46511610097578063ca15c87311610071578063ca15c87314610340578063d539139314610353578063d547741f1461037a578063e985e9c51461038d57600080fd5b8063a22cb46514610307578063b88d4fde1461031a578063c87b56dd1461032d57600080fd5b80636352211e146102ab57806370a08231146102be5780639010d07c146102d157806391d14854146102e457806395d89b41146102f7578063a217fddf146102ff57600080fd5b8063248a9ca311610130578063248a9ca31461021b5780632f2ff15d1461024c57806336568abe1461025f57806340c10f191461027257806342842e0e1461028557806342966c681461029857600080fd5b806301ffc9a71461017857806306fdde03146101a0578063081812fc146101b5578063095ea7b3146101e0578063162094c4146101f557806323b872dd14610208575b600080fd5b61018b610186366004611b1d565b6103c9565b60405190151581526020015b60405180910390f35b6101a86103da565b6040516101979190611b8a565b6101c86101c3366004611b9d565b61046c565b6040516001600160a01b039091168152602001610197565b6101f36101ee366004611bd2565b610493565b005b61018b610203366004611bfc565b6105ad565b6101f3610216366004611c7a565b6106d9565b61023e610229366004611b9d565b60009081526065602052604090206001015490565b604051908152602001610197565b6101f361025a366004611cb7565b61070b565b6101f361026d366004611cb7565b610730565b6101f3610280366004611bd2565b6107ae565b6101f3610293366004611c7a565b610827565b6101f36102a6366004611b9d565b610842565b6101c86102b9366004611b9d565b610873565b61023e6102cc366004611ce3565b6108d3565b6101c86102df366004611cfe565b610959565b61018b6102f2366004611cb7565b610978565b6101a86109a3565b61023e600081565b6101f3610315366004611d20565b6109b2565b6101f3610328366004611d72565b6109bd565b6101a861033b366004611b9d565b6109f5565b61023e61034e366004611b9d565b610a00565b61023e7f9f2df0fed2c77648de5860a4cc508cd0818c85b8b8a1ab4ceeef8d981c8956a681565b6101f3610388366004611cb7565b610a17565b61018b61039b366004611e56565b6001600160a01b03918216600090815260ce6020908152604080832093909416825291909152205460ff1690565b60006103d482610a3c565b92915050565b606060c980546103e990611e80565b80601f016020809104026020016040519081016040528092919081815260200182805461041590611e80565b80156104625780601f1061043757610100808354040283529160200191610462565b820191906000526020600020905b81548152906001019060200180831161044557829003601f168201915b5050505050905090565b600061047782610a61565b50600090815260cd60205260409020546001600160a01b031690565b600061049e82610873565b9050806001600160a01b0316836001600160a01b0316036105105760405162461bcd60e51b815260206004820152602160248201527f4552433732313a20617070726f76616c20746f2063757272656e74206f776e656044820152603960f91b60648201526084015b60405180910390fd5b336001600160a01b038216148061052c575061052c813361039b565b61059e5760405162461bcd60e51b815260206004820152603d60248201527f4552433732313a20617070726f76652063616c6c6572206973206e6f7420746f60448201527f6b656e206f776e6572206f7220617070726f76656420666f7220616c6c0000006064820152608401610507565b6105a88383610ac0565b505050565b600083815260cb60205260408120546001600160a01b03166106095760405162461bcd60e51b8152602060048201526015602482015274546f6b656e20646f6573206e6f742065786973747360581b6044820152606401610507565b6106133385610b2e565b8061064357506106437f9f2df0fed2c77648de5860a4cc508cd0818c85b8b8a1ab4ceeef8d981c8956a633610978565b61068f5760405162461bcd60e51b815260206004820152601c60248201527f53656e6465722063616e206e6f742073657420746f6b656e20555249000000006044820152606401610507565b6106cf8484848080601f016020809104026020016040519081016040528093929190818152602001838380828437600092019190915250610bad92505050565b5060019392505050565b6106e4335b82610b2e565b6107005760405162461bcd60e51b815260040161050790611eba565b6105a8838383610c79565b60008281526065602052604090206001015461072681610ddd565b6105a88383610de7565b6001600160a01b03811633146107a05760405162461bcd60e51b815260206004820152602f60248201527f416363657373436f6e74726f6c3a2063616e206f6e6c792072656e6f756e636560448201526e103937b632b9903337b91039b2b63360891b6064820152608401610507565b6107aa8282610e09565b5050565b6107d87f9f2df0fed2c77648de5860a4cc508cd0818c85b8b8a1ab4ceeef8d981c8956a633610978565b61081d5760405162461bcd60e51b815260206004820152601660248201527529b2b73232b91034b9903737ba10309026b4b73a32b960511b6044820152606401610507565b6107aa8282610e2b565b6105a8838383604051806020016040528060008152506109bd565b61084b336106de565b6108675760405162461bcd60e51b815260040161050790611eba565b61087081610fb6565b50565b600081815260cb60205260408120546001600160a01b0316806103d45760405162461bcd60e51b8152602060048201526018602482015277115490cdcc8c4e881a5b9d985b1a59081d1bdad95b88125160421b6044820152606401610507565b60006001600160a01b03821661093d5760405162461bcd60e51b815260206004820152602960248201527f4552433732313a2061646472657373207a65726f206973206e6f7420612076616044820152683634b21037bbb732b960b91b6064820152608401610507565b506001600160a01b0316600090815260cc602052604090205490565b60008281526097602052604081206109719083610fbf565b9392505050565b60009182526065602090815260408084206001600160a01b0393909316845291905290205460ff1690565b606060ca80546103e990611e80565b6107aa338383610fcb565b6109c73383610b2e565b6109e35760405162461bcd60e51b815260040161050790611eba565b6109ef84848484611099565b50505050565b60606103d4826110cc565b60008181526097602052604081206103d4906111d5565b600082815260656020526040902060010154610a3281610ddd565b6105a88383610e09565b60006001600160e01b03198216632483248360e11b14806103d457506103d4826111df565b600081815260cb60205260409020546001600160a01b03166108705760405162461bcd60e51b8152602060048201526018602482015277115490cdcc8c4e881a5b9d985b1a59081d1bdad95b88125160421b6044820152606401610507565b600081815260cd6020526040902080546001600160a01b0319166001600160a01b0384169081179091558190610af582610873565b6001600160a01b03167f8c5be1e5ebec7d5bd14f71427d1e84f3dd0314c0f7b2291e5b200ac8c7c3b92560405160405180910390a45050565b600080610b3a83610873565b9050806001600160a01b0316846001600160a01b03161480610b8157506001600160a01b03808216600090815260ce602090815260408083209388168352929052205460ff165b80610ba55750836001600160a01b0316610b9a8461046c565b6001600160a01b0316145b949350505050565b600082815260cb60205260409020546001600160a01b0316610c285760405162461bcd60e51b815260206004820152602e60248201527f45524337323155524953746f726167653a2055524920736574206f66206e6f6e60448201526d32bc34b9ba32b73a103a37b5b2b760911b6064820152608401610507565b600082815261012d60205260409020610c418282611f55565b506040518281527ff8e1a15aba9398e019f0b49df1a4fde98ee17ae345cb5f6b5e2c27f5033e8ce79060200160405180910390a15050565b826001600160a01b0316610c8c82610873565b6001600160a01b031614610cb25760405162461bcd60e51b815260040161050790612014565b6001600160a01b038216610d145760405162461bcd60e51b8152602060048201526024808201527f4552433732313a207472616e7366657220746f20746865207a65726f206164646044820152637265737360e01b6064820152608401610507565b826001600160a01b0316610d2782610873565b6001600160a01b031614610d4d5760405162461bcd60e51b815260040161050790612014565b600081815260cd6020908152604080832080546001600160a01b03199081169091556001600160a01b0387811680865260cc855283862080546000190190559087168086528386208054600101905586865260cb90945282852080549092168417909155905184937fddf252ad1be2c89b69c2b068fc378daa952ba7f163c4a11628f55a4df523b3ef91a4505050565b610870813361121f565b610df18282611278565b60008281526097602052604090206105a890826112fe565b610e138282611313565b60008281526097602052604090206105a8908261137a565b6001600160a01b038216610e815760405162461bcd60e51b815260206004820181905260248201527f4552433732313a206d696e7420746f20746865207a65726f20616464726573736044820152606401610507565b600081815260cb60205260409020546001600160a01b031615610ee65760405162461bcd60e51b815260206004820152601c60248201527f4552433732313a20746f6b656e20616c7265616479206d696e746564000000006044820152606401610507565b600081815260cb60205260409020546001600160a01b031615610f4b5760405162461bcd60e51b815260206004820152601c60248201527f4552433732313a20746f6b656e20616c7265616479206d696e746564000000006044820152606401610507565b6001600160a01b038216600081815260cc602090815260408083208054600101905584835260cb90915280822080546001600160a01b0319168417905551839291907fddf252ad1be2c89b69c2b068fc378daa952ba7f163c4a11628f55a4df523b3ef908290a45050565b6108708161138f565b600061097183836113d1565b816001600160a01b0316836001600160a01b03160361102c5760405162461bcd60e51b815260206004820152601960248201527f4552433732313a20617070726f766520746f2063616c6c6572000000000000006044820152606401610507565b6001600160a01b03838116600081815260ce6020908152604080832094871680845294825291829020805460ff191686151590811790915591519182527f17307eab39ab6107e8899845ad3d59bd9653f200f220920489ca2b5937696c31910160405180910390a3505050565b6110a4848484610c79565b6110b0848484846113fb565b6109ef5760405162461bcd60e51b815260040161050790612059565b60606110d782610a61565b600082815261012d6020526040812080546110f190611e80565b80601f016020809104026020016040519081016040528092919081815260200182805461111d90611e80565b801561116a5780601f1061113f5761010080835404028352916020019161116a565b820191906000526020600020905b81548152906001019060200180831161114d57829003601f168201915b50505050509050600061118860408051602081019091526000815290565b9050805160000361119a575092915050565b8151156111cc5780826040516020016111b49291906120ab565b60405160208183030381529060405292505050919050565b610ba5846114fc565b60006103d4825490565b60006001600160e01b031982166380ac58cd60e01b148061121057506001600160e01b03198216635b5e139f60e01b145b806103d457506103d48261156f565b6112298282610978565b6107aa5761123681611594565b6112418360206115a6565b6040516020016112529291906120da565b60408051601f198184030181529082905262461bcd60e51b825261050791600401611b8a565b6112828282610978565b6107aa5760008281526065602090815260408083206001600160a01b03851684529091529020805460ff191660011790556112ba3390565b6001600160a01b0316816001600160a01b0316837f2f8788117e7eff1d82e926ec794901d17c78024a50270940304540a733656f0d60405160405180910390a45050565b6000610971836001600160a01b038416611742565b61131d8282610978565b156107aa5760008281526065602090815260408083206001600160a01b0385168085529252808320805460ff1916905551339285917ff6391f5c32d9c69d2a47ea670b442974b53935d1edc7fd64eb21e047a839171b9190a45050565b6000610971836001600160a01b038416611791565b61139881611884565b600081815261012d6020526040902080546113b290611e80565b15905061087057600081815261012d6020526040812061087091611ab9565b60008260000182815481106113e8576113e861214f565b9060005260206000200154905092915050565b60006001600160a01b0384163b156114f157604051630a85bd0160e11b81526001600160a01b0385169063150b7a029061143f903390899088908890600401612165565b6020604051808303816000875af192505050801561147a575060408051601f3d908101601f19168201909252611477918101906121a2565b60015b6114d7573d8080156114a8576040519150601f19603f3d011682016040523d82523d6000602084013e6114ad565b606091505b5080516000036114cf5760405162461bcd60e51b815260040161050790612059565b805181602001fd5b6001600160e01b031916630a85bd0160e11b149050610ba5565b506001949350505050565b606061150782610a61565b600061151e60408051602081019091526000815290565b9050600081511161153e5760405180602001604052806000815250610971565b8061154884611919565b6040516020016115599291906120ab565b6040516020818303038152906040529392505050565b60006001600160e01b03198216635a05180f60e01b14806103d457506103d4826119ac565b60606103d46001600160a01b03831660145b606060006115b58360026121d5565b6115c09060026121ec565b67ffffffffffffffff8111156115d8576115d8611d5c565b6040519080825280601f01601f191660200182016040528015611602576020820181803683370190505b509050600360fc1b8160008151811061161d5761161d61214f565b60200101906001600160f81b031916908160001a905350600f60fb1b8160018151811061164c5761164c61214f565b60200101906001600160f81b031916908160001a90535060006116708460026121d5565b61167b9060016121ec565b90505b60018111156116f3576f181899199a1a9b1b9c1cb0b131b232b360811b85600f16601081106116af576116af61214f565b1a60f81b8282815181106116c5576116c561214f565b60200101906001600160f81b031916908160001a90535060049490941c936116ec816121ff565b905061167e565b5083156109715760405162461bcd60e51b815260206004820181905260248201527f537472696e67733a20686578206c656e67746820696e73756666696369656e746044820152606401610507565b6000818152600183016020526040812054611789575081546001818101845560008481526020808220909301849055845484825282860190935260409020919091556103d4565b5060006103d4565b6000818152600183016020526040812054801561187a5760006117b5600183612216565b85549091506000906117c990600190612216565b905081811461182e5760008660000182815481106117e9576117e961214f565b906000526020600020015490508087600001848154811061180c5761180c61214f565b6000918252602080832090910192909255918252600188019052604090208390555b855486908061183f5761183f612229565b6001900381819060005260206000200160009055905585600101600086815260200190815260200160002060009055600193505050506103d4565b60009150506103d4565b600061188f82610873565b905061189a82610873565b600083815260cd6020908152604080832080546001600160a01b03199081169091556001600160a01b03851680855260cc8452828520805460001901905587855260cb909352818420805490911690555192935084927fddf252ad1be2c89b69c2b068fc378daa952ba7f163c4a11628f55a4df523b3ef908390a45050565b60606000611926836119e1565b600101905060008167ffffffffffffffff81111561194657611946611d5c565b6040519080825280601f01601f191660200182016040528015611970576020820181803683370190505b5090508181016020015b600019016f181899199a1a9b1b9c1cb0b131b232b360811b600a86061a8153600a850494508461197a57509392505050565b60006001600160e01b03198216637965db0b60e01b14806103d457506301ffc9a760e01b6001600160e01b03198316146103d4565b60008072184f03e93ff9f4daa797ed6e38ed64bf6a1f0160401b8310611a205772184f03e93ff9f4daa797ed6e38ed64bf6a1f0160401b830492506040015b6d04ee2d6d415b85acef81000000008310611a4c576d04ee2d6d415b85acef8100000000830492506020015b662386f26fc100008310611a6a57662386f26fc10000830492506010015b6305f5e1008310611a82576305f5e100830492506008015b6127108310611a9657612710830492506004015b60648310611aa8576064830492506002015b600a83106103d45760010192915050565b508054611ac590611e80565b6000825580601f10611ad5575050565b601f01602090049060005260206000209081019061087091905b80821115611b035760008155600101611aef565b5090565b6001600160e01b03198116811461087057600080fd5b600060208284031215611b2f57600080fd5b813561097181611b07565b60005b83811015611b55578181015183820152602001611b3d565b50506000910152565b60008151808452611b76816020860160208601611b3a565b601f01601f19169290920160200192915050565b6020815260006109716020830184611b5e565b600060208284031215611baf57600080fd5b5035919050565b80356001600160a01b0381168114611bcd57600080fd5b919050565b60008060408385031215611be557600080fd5b611bee83611bb6565b946020939093013593505050565b600080600060408486031215611c1157600080fd5b83359250602084013567ffffffffffffffff811115611c2f57600080fd5b8401601f81018613611c4057600080fd5b803567ffffffffffffffff811115611c5757600080fd5b866020828401011115611c6957600080fd5b939660209190910195509293505050565b600080600060608486031215611c8f57600080fd5b611c9884611bb6565b9250611ca660208501611bb6565b929592945050506040919091013590565b60008060408385031215611cca57600080fd5b82359150611cda60208401611bb6565b90509250929050565b600060208284031215611cf557600080fd5b61097182611bb6565b60008060408385031215611d1157600080fd5b50508035926020909101359150565b60008060408385031215611d3357600080fd5b611d3c83611bb6565b915060208301358015158114611d5157600080fd5b809150509250929050565b634e487b7160e01b600052604160045260246000fd5b60008060008060808587031215611d8857600080fd5b611d9185611bb6565b9350611d9f60208601611bb6565b925060408501359150606085013567ffffffffffffffff811115611dc257600080fd5b8501601f81018713611dd357600080fd5b803567ffffffffffffffff811115611ded57611ded611d5c565b604051601f8201601f19908116603f0116810167ffffffffffffffff81118282101715611e1c57611e1c611d5c565b604052818152828201602001891015611e3457600080fd5b8160208401602083013760006020838301015280935050505092959194509250565b60008060408385031215611e6957600080fd5b611e7283611bb6565b9150611cda60208401611bb6565b600181811c90821680611e9457607f821691505b602082108103611eb457634e487b7160e01b600052602260045260246000fd5b50919050565b6020808252602d908201527f4552433732313a2063616c6c6572206973206e6f7420746f6b656e206f776e6560408201526c1c881bdc88185c1c1c9bdd9959609a1b606082015260800190565b601f8211156105a857806000526020600020601f840160051c81016020851015611f2e5750805b601f840160051c820191505b81811015611f4e5760008155600101611f3a565b5050505050565b815167ffffffffffffffff811115611f6f57611f6f611d5c565b611f8381611f7d8454611e80565b84611f07565b6020601f821160018114611fb75760008315611f9f5750848201515b600019600385901b1c1916600184901b178455611f4e565b600084815260208120601f198516915b82811015611fe75787850151825560209485019460019092019101611fc7565b50848210156120055786840151600019600387901b60f8161c191681555b50505050600190811b01905550565b60208082526025908201527f4552433732313a207472616e736665722066726f6d20696e636f72726563742060408201526437bbb732b960d91b606082015260800190565b60208082526032908201527f4552433732313a207472616e7366657220746f206e6f6e20455243373231526560408201527131b2b4bb32b91034b6b83632b6b2b73a32b960711b606082015260800190565b600083516120bd818460208801611b3a565b8351908301906120d1818360208801611b3a565b01949350505050565b7f416363657373436f6e74726f6c3a206163636f756e7420000000000000000000815260008351612112816017850160208801611b3a565b7001034b99036b4b9b9b4b733903937b6329607d1b6017918401918201528351612143816028840160208801611b3a565b01602801949350505050565b634e487b7160e01b600052603260045260246000fd5b6001600160a01b038581168252841660208201526040810183905260806060820181905260009061219890830184611b5e565b9695505050505050565b6000602082840312156121b457600080fd5b815161097181611b07565b634e487b7160e01b600052601160045260246000fd5b80820281158282048414176103d4576103d46121bf565b808201808211156103d4576103d46121bf565b60008161220e5761220e6121bf565b506000190190565b818103818111156103d4576103d46121bf565b634e487b7160e01b600052603160045260246000fdfea26469706673582212202afe2c6ac9e023d525fab16e22141556bd3092747e17e84c643cc07d160f15d764736f6c634300081b0033496e697469616c697a61626c653a20636f6e7472616374206973206e6f7420699f2df0fed2c77648de5860a4cc508cd0818c85b8b8a1ab4ceeef8d981c8956a67164765a3c8bd2513bdfa0c90f1bee9606e920fbf2c9071f310263fbd818684ba2646970667358221220044fe37b05381a3852c6c4c967a8ba2142d398998ff791be8eec369c9fab992f64736f6c634300081b0033",
  "linkReferences": {},
  "deployedLinkReferences": {}
}