{
  "_format": "hh-sol-artifact-1",
  "contractName": "TokenManagerERC1155",
  "sourceName": "contracts/schain/TokenManagers/TokenManagerERC1155.sol",
  "abi": [
    {
      "anonymous": false,
      "inputs": [
        {
          "indexed": false,
          "internalType": "address",
          "name": "oldValue",
          "type": "address"
        },
        {
          "indexed": false,
          "internalType": "address",
          "name": "newValue",
          "type": "address"
        }
      ],
      "name": "DepositBoxWasChanged",
      "type": "event"
    },
    {
      "anonymous": false,
      "inputs": [
        {
          "indexed": true,
          "internalType": "SchainHash",
          "name": "chainHash",
          "type": "bytes32"
        },
        {
          "indexed": true,
          "internalType": "address",
          "name": "erc1155OnMainnet",
          "type": "address"
        },
        {
          "indexed": true,
          "internalType": "address",
          "name": "erc1155OnSchain",
          "type": "address"
        }
      ],
      "name": "ERC1155TokenAdded",
      "type": "event"
    },
    {
      "anonymous": false,
      "inputs": [
        {
          "indexed": true,
          "internalType": "SchainHash",
          "name": "chainHash",
          "type": "bytes32"
        },
        {
          "indexed": true,
          "internalType": "address",
          "name": "erc1155OnMainnet",
          "type": "address"
        },
        {
          "indexed": true,
          "internalType": "address",
          "name": "erc1155OnSchain",
          "type": "address"
        }
      ],
      "name": "ERC1155TokenCreated",
      "type": "event"
    },
    {
      "anonymous": false,
      "inputs": [
        {
          "indexed": true,
          "internalType": "SchainHash",
          "name": "chainHash",
          "type": "bytes32"
        },
        {
          "indexed": true,
          "internalType": "address",
          "name": "contractOnMainnet",
          "type": "address"
        },
        {
          "indexed": false,
          "internalType": "uint256[]",
          "name": "ids",
          "type": "uint256[]"
        },
        {
          "indexed": false,
          "internalType": "uint256[]",
          "name": "amounts",
          "type": "uint256[]"
        }
      ],
      "name": "ERC1155TokenReady",
      "type": "event"
    },
    {
      "anonymous": false,
      "inputs": [
        {
          "indexed": true,
          "internalType": "SchainHash",
          "name": "chainHash",
          "type": "bytes32"
        },
        {
          "indexed": true,
          "internalType": "address",
          "name": "erc1155OnMainnet",
          "type": "address"
        },
        {
          "indexed": true,
          "internalType": "address",
          "name": "erc1155OnSchain",
          "type": "address"
        },
        {
          "indexed": false,
          "internalType": "uint256[]",
          "name": "ids",
          "type": "uint256[]"
        },
        {
          "indexed": false,
          "internalType": "uint256[]",
          "name": "amounts",
          "type": "uint256[]"
        }
      ],
      "name": "ERC1155TokenReceived",
      "type": "event"
    },
    {
      "anonymous": false,
      "inputs": [
        {
          "indexed": false,
          "internalType": "uint8",
          "name": "version",
          "type": "uint8"
        }
      ],
      "name": "Initialized",
      "type": "event"
    },
    {
      "anonymous": false,
      "inputs": [
        {
          "indexed": true,
          "internalType": "bytes32",
          "name": "role",
          "type": "bytes32"
        },
        {
          "indexed": true,
          "internalType": "bytes32",
          "name": "previousAdminRole",
          "type": "bytes32"
        },
        {
          "indexed": true,
          "internalType": "bytes32",
          "name": "newAdminRole",
          "type": "bytes32"
        }
      ],
      "name": "RoleAdminChanged",
      "type": "event"
    },
    {
      "anonymous": false,
      "inputs": [
        {
          "indexed": true,
          "internalType": "bytes32",
          "name": "role",
          "type": "bytes32"
        },
        {
          "indexed": true,
          "internalType": "address",
          "name": "account",
          "type": "address"
        },
        {
          "indexed": true,
          "internalType": "address",
          "name": "sender",
          "type": "address"
        }
      ],
      "name": "RoleGranted",
      "type": "event"
    },
    {
      "anonymous": false,
      "inputs": [
        {
          "indexed": true,
          "internalType": "bytes32",
          "name": "role",
          "type": "bytes32"
        },
        {
          "indexed": true,
          "internalType": "address",
          "name": "account",
          "type": "address"
        },
        {
          "indexed": true,
          "internalType": "address",
          "name": "sender",
          "type": "address"
        }
      ],
      "name": "RoleRevoked",
      "type": "event"
    },
    {
      "inputs": [],
      "name": "AUTOMATIC_DEPLOY_ROLE",
      "outputs": [
        {
          "internalType": "bytes32",
          "name": "",
          "type": "bytes32"
        }
      ],
      "stateMutability": "view",
      "type": "function"
    },
    {
      "inputs": [],
      "name": "DEFAULT_ADMIN_ROLE",
      "outputs": [
        {
          "internalType": "bytes32",
          "name": "",
          "type": "bytes32"
        }
      ],
      "stateMutability": "view",
      "type": "function"
    },
    {
      "inputs": [],
      "name": "MAINNET_HASH",
      "outputs": [
        {
          "internalType": "SchainHash",
          "name": "",
          "type": "bytes32"
        }
      ],
      "stateMutability": "view",
      "type": "function"
    },
    {
      "inputs": [],
      "name": "MAINNET_NAME",
      "outputs": [
        {
          "internalType": "string",
          "name": "",
          "type": "string"
        }
      ],
      "stateMutability": "view",
      "type": "function"
    },
    {
      "inputs": [],
      "name": "TOKEN_REGISTRAR_ROLE",
      "outputs": [
        {
          "internalType": "bytes32",
          "name": "",
          "type": "bytes32"
        }
      ],
      "stateMutability": "view",
      "type": "function"
    },
    {
      "inputs": [
        {
          "internalType": "string",
          "name": "originChainName",
          "type": "string"
        },
        {
          "internalType": "address",
          "name": "erc1155OnOriginChain",
          "type": "address"
        },
        {
          "internalType": "address",
          "name": "newErc1155OnSchain",
          "type": "address"
        }
      ],
      "name": "addERC1155TokenByOwner",
      "outputs": [],
      "stateMutability": "nonpayable",
      "type": "function"
    },
    {
      "inputs": [
        {
          "internalType": "string",
          "name": "schainName",
          "type": "string"
        },
        {
          "internalType": "address",
          "name": "newTokenManager",
          "type": "address"
        }
      ],
      "name": "addTokenManager",
      "outputs": [],
      "stateMutability": "nonpayable",
      "type": "function"
    },
    {
      "inputs": [
        {
          "internalType": "contract ERC1155OnChain",
          "name": "",
          "type": "address"
        }
      ],
      "name": "addedClones",
      "outputs": [
        {
          "internalType": "bool",
          "name": "",
          "type": "bool"
        }
      ],
      "stateMutability": "view",
      "type": "function"
    },
    {
      "inputs": [],
      "name": "automaticDeploy",
      "outputs": [
        {
          "internalType": "bool",
          "name": "",
          "type": "bool"
        }
      ],
      "stateMutability": "view",
      "type": "function"
    },
    {
      "inputs": [
        {
          "internalType": "address",
          "name": "newDepositBox",
          "type": "address"
        }
      ],
      "name": "changeDepositBoxAddress",
      "outputs": [],
      "stateMutability": "nonpayable",
      "type": "function"
    },
    {
      "inputs": [
        {
          "internalType": "SchainHash",
          "name": "",
          "type": "bytes32"
        },
        {
          "internalType": "address",
          "name": "",
          "type": "address"
        }
      ],
      "name": "clonesErc1155",
      "outputs": [
        {
          "internalType": "contract ERC1155OnChain",
          "name": "",
          "type": "address"
        }
      ],
      "stateMutability": "view",
      "type": "function"
    },
    {
      "inputs": [],
      "name": "communityLocker",
      "outputs": [
        {
          "internalType": "contract ICommunityLocker",
          "name": "",
          "type": "address"
        }
      ],
      "stateMutability": "view",
      "type": "function"
    },
    {
      "inputs": [],
      "name": "depositBox",
      "outputs": [
        {
          "internalType": "address",
          "name": "",
          "type": "address"
        }
      ],
      "stateMutability": "view",
      "type": "function"
    },
    {
      "inputs": [
        {
          "internalType": "address",
          "name": "",
          "type": "address"
        }
      ],
      "name": "deprecatedClonesErc1155",
      "outputs": [
        {
          "internalType": "contract ERC1155OnChain",
          "name": "",
          "type": "address"
        }
      ],
      "stateMutability": "view",
      "type": "function"
    },
    {
      "inputs": [],
      "name": "disableAutomaticDeploy",
      "outputs": [],
      "stateMutability": "nonpayable",
      "type": "function"
    },
    {
      "inputs": [],
      "name": "enableAutomaticDeploy",
      "outputs": [],
      "stateMutability": "nonpayable",
      "type": "function"
    },
    {
      "inputs": [
        {
          "internalType": "address",
          "name": "contractOnMainnet",
          "type": "address"
        },
        {
          "internalType": "uint256",
          "name": "id",
          "type": "uint256"
        },
        {
          "internalType": "uint256",
          "name": "amount",
          "type": "uint256"
        }
      ],
      "name": "exitToMainERC1155",
      "outputs": [],
      "stateMutability": "nonpayable",
      "type": "function"
    },
    {
      "inputs": [
        {
          "internalType": "address",
          "name": "contractOnMainnet",
          "type": "address"
        },
        {
          "internalType": "uint256[]",
          "name": "ids",
          "type": "uint256[]"
        },
        {
          "internalType": "uint256[]",
          "name": "amounts",
          "type": "uint256[]"
        }
      ],
      "name": "exitToMainERC1155Batch",
      "outputs": [],
      "stateMutability": "nonpayable",
      "type": "function"
    },
    {
      "inputs": [
        {
          "internalType": "bytes32",
          "name": "role",
          "type": "bytes32"
        }
      ],
      "name": "getRoleAdmin",
      "outputs": [
        {
          "internalType": "bytes32",
          "name": "",
          "type": "bytes32"
        }
      ],
      "stateMutability": "view",
      "type": "function"
    },
    {
      "inputs": [
        {
          "internalType": "bytes32",
          "name": "role",
          "type": "bytes32"
        },
        {
          "internalType": "uint256",
          "name": "index",
          "type": "uint256"
        }
      ],
      "name": "getRoleMember",
      "outputs": [
        {
          "internalType": "address",
          "name": "",
          "type": "address"
        }
      ],
      "stateMutability": "view",
      "type": "function"
    },
    {
      "inputs": [
        {
          "internalType": "bytes32",
          "name": "role",
          "type": "bytes32"
        }
      ],
      "name": "getRoleMemberCount",
      "outputs": [
        {
          "internalType": "uint256",
          "name": "",
          "type": "uint256"
        }
      ],
      "stateMutability": "view",
      "type": "function"
    },
    {
      "inputs": [
        {
          "internalType": "bytes32",
          "name": "role",
          "type": "bytes32"
        },
        {
          "internalType": "address",
          "name": "account",
          "type": "address"
        }
      ],
      "name": "grantRole",
      "outputs": [],
      "stateMutability": "nonpayable",
      "type": "function"
    },
    {
      "inputs": [
        {
          "internalType": "bytes32",
          "name": "role",
          "type": "bytes32"
        },
        {
          "internalType": "address",
          "name": "account",
          "type": "address"
        }
      ],
      "name": "hasRole",
      "outputs": [
        {
          "internalType": "bool",
          "name": "",
          "type": "bool"
        }
      ],
      "stateMutability": "view",
      "type": "function"
    },
    {
      "inputs": [
        {
          "internalType": "string",
          "name": "schainName",
          "type": "string"
        }
      ],
      "name": "hasTokenManager",
      "outputs": [
        {
          "internalType": "bool",
          "name": "",
          "type": "bool"
        }
      ],
      "stateMutability": "view",
      "type": "function"
    },
    {
      "inputs": [
        {
          "internalType": "string",
          "name": "newChainName",
          "type": "string"
        },
        {
          "internalType": "contract IMessageProxyForSchain",
          "name": "newMessageProxy",
          "type": "address"
        },
        {
          "internalType": "contract ITokenManagerLinker",
          "name": "newIMALinker",
          "type": "address"
        },
        {
          "internalType": "contract ICommunityLocker",
          "name": "newCommunityLocker",
          "type": "address"
        },
        {
          "internalType": "address",
          "name": "newDepositBox",
          "type": "address"
        }
      ],
      "name": "initialize",
      "outputs": [],
      "stateMutability": "nonpayable",
      "type": "function"
    },
    {
      "inputs": [
        {
          "internalType": "string",
          "name": "newSchainName",
          "type": "string"
        },
        {
          "internalType": "contract IMessageProxyForSchain",
          "name": "newMessageProxy",
          "type": "address"
        },
        {
          "internalType": "contract ITokenManagerLinker",
          "name": "newIMALinker",
          "type": "address"
        },
        {
          "internalType": "contract ICommunityLocker",
          "name": "newCommunityLocker",
          "type": "address"
        },
        {
          "internalType": "address",
          "name": "newDepositBox",
          "type": "address"
        }
      ],
      "name": "initializeTokenManager",
      "outputs": [],
      "stateMutability": "nonpayable",
      "type": "function"
    },
    {
      "inputs": [],
      "name": "messageProxy",
      "outputs": [
        {
          "internalType": "contract IMessageProxyForSchain",
          "name": "",
          "type": "address"
        }
      ],
      "stateMutability": "view",
      "type": "function"
    },
    {
      "inputs": [
        {
          "internalType": "address",
          "name": "operator",
          "type": "address"
        },
        {
          "internalType": "address",
          "name": "",
          "type": "address"
        },
        {
          "internalType": "uint256[]",
          "name": "",
          "type": "uint256[]"
        },
        {
          "internalType": "uint256[]",
          "name": "",
          "type": "uint256[]"
        },
        {
          "internalType": "bytes",
          "name": "",
          "type": "bytes"
        }
      ],
      "name": "onERC1155BatchReceived",
      "outputs": [
        {
          "internalType": "bytes4",
          "name": "",
          "type": "bytes4"
        }
      ],
      "stateMutability": "view",
      "type": "function"
    },
    {
      "inputs": [
        {
          "internalType": "address",
          "name": "operator",
          "type": "address"
        },
        {
          "internalType": "address",
          "name": "",
          "type": "address"
        },
        {
          "internalType": "uint256",
          "name": "",
          "type": "uint256"
        },
        {
          "internalType": "uint256",
          "name": "",
          "type": "uint256"
        },
        {
          "internalType": "bytes",
          "name": "",
          "type": "bytes"
        }
      ],
      "name": "onERC1155Received",
      "outputs": [
        {
          "internalType": "bytes4",
          "name": "",
          "type": "bytes4"
        }
      ],
      "stateMutability": "view",
      "type": "function"
    },
    {
      "inputs": [
        {
          "internalType": "SchainHash",
          "name": "fromChainHash",
          "type": "bytes32"
        },
        {
          "internalType": "address",
          "name": "sender",
          "type": "address"
        },
        {
          "internalType": "bytes",
          "name": "data",
          "type": "bytes"
        }
      ],
      "name": "postMessage",
      "outputs": [],
      "stateMutability": "nonpayable",
      "type": "function"
    },
    {
      "inputs": [
        {
          "internalType": "string",
          "name": "schainName",
          "type": "string"
        }
      ],
      "name": "removeTokenManager",
      "outputs": [],
      "stateMutability": "nonpayable",
      "type": "function"
    },
    {
      "inputs": [
        {
          "internalType": "bytes32",
          "name": "role",
          "type": "bytes32"
        },
        {
          "internalType": "address",
          "name": "account",
          "type": "address"
        }
      ],
      "name": "renounceRole",
      "outputs": [],
      "stateMutability": "nonpayable",
      "type": "function"
    },
    {
      "inputs": [
        {
          "internalType": "bytes32",
          "name": "role",
          "type": "bytes32"
        },
        {
          "internalType": "address",
          "name": "account",
          "type": "address"
        }
      ],
      "name": "revokeRole",
      "outputs": [],
      "stateMutability": "nonpayable",
      "type": "function"
    },
    {
      "inputs": [],
      "name": "schainHash",
      "outputs": [
        {
          "internalType": "SchainHash",
          "name": "",
          "type": "bytes32"
        }
      ],
      "stateMutability": "view",
      "type": "function"
    },
    {
      "inputs": [
        {
          "internalType": "bytes4",
          "name": "interfaceId",
          "type": "bytes4"
        }
      ],
      "name": "supportsInterface",
      "outputs": [
        {
          "internalType": "bool",
          "name": "",
          "type": "bool"
        }
      ],
      "stateMutability": "view",
      "type": "function"
    },
    {
      "inputs": [],
      "name": "tokenManagerLinker",
      "outputs": [
        {
          "internalType": "contract ITokenManagerLinker",
          "name": "",
          "type": "address"
        }
      ],
      "stateMutability": "view",
      "type": "function"
    },
    {
      "inputs": [
        {
          "internalType": "SchainHash",
          "name": "",
          "type": "bytes32"
        }
      ],
      "name": "tokenManagers",
      "outputs": [
        {
          "internalType": "address",
          "name": "",
          "type": "address"
        }
      ],
      "stateMutability": "view",
      "type": "function"
    },
    {
      "inputs": [
        {
          "internalType": "string",
          "name": "targetSchainName",
          "type": "string"
        },
        {
          "internalType": "address",
          "name": "contractOnMainnet",
          "type": "address"
        },
        {
          "internalType": "uint256",
          "name": "id",
          "type": "uint256"
        },
        {
          "internalType": "uint256",
          "name": "amount",
          "type": "uint256"
        }
      ],
      "name": "transferToSchainERC1155",
      "outputs": [],
      "stateMutability": "nonpayable",
      "type": "function"
    },
    {
      "inputs": [
        {
          "internalType": "string",
          "name": "targetSchainName",
          "type": "string"
        },
        {
          "internalType": "address",
          "name": "contractOnMainnet",
          "type": "address"
        },
        {
          "internalType": "uint256[]",
          "name": "ids",
          "type": "uint256[]"
        },
        {
          "internalType": "uint256[]",
          "name": "amounts",
          "type": "uint256[]"
        }
      ],
      "name": "transferToSchainERC1155Batch",
      "outputs": [],
      "stateMutability": "nonpayable",
      "type": "function"
    },
    {
      "inputs": [
        {
          "internalType": "SchainHash",
          "name": "",
          "type": "bytes32"
        },
        {
          "internalType": "address",
          "name": "",
          "type": "address"
        },
        {
          "internalType": "uint256",
          "name": "",
          "type": "uint256"
        }
      ],
      "name": "transferredAmount",
      "outputs": [
        {
          "internalType": "uint256",
          "name": "",
          "type": "uint256"
        }
      ],
      "stateMutability": "view",
      "type": "function"
    }
  ],
  "bytecode": "0x6080604052348015600f57600080fd5b50617bf88061001f6000396000f3fe608060405234801561001057600080fd5b50600436106102485760003560e01c80636d6c68e61161013b578063c5d76664116100b8578063dec2deb61161007c578063dec2deb6146105b1578063e3e50fa4146105c5578063edcc12b5146105ee578063f23a6e6114610601578063f5b52e1f1461061457600080fd5b8063c5d766641461053e578063ca15c87314610551578063cb703bff14610564578063cc5b715b14610577578063d547741f1461059e57600080fd5b8063a217fddf116100ff578063a217fddf146104cc578063aebaaca9146104d4578063b9581c50146104f7578063bc197c81146104ff578063c0e312dc1461052b57600080fd5b80636d6c68e61461046d5780638369091714610480578063884cee5a146104935780639010d07c146104a657806391d14854146104b957600080fd5b80632f2ff15d116101c957806350f442801161018d57806350f44280146103ee5780635573b8b61461042157806357157cd9146104345780636ce681d2146104475780636d6112861461045a57600080fd5b80632f2ff15d1461039757806336568abe146103aa57806339927cf9146103bd5780633b690b6b146103d05780633fa194ce146103d957600080fd5b806315ecfe5e1161021057806315ecfe5e14610312578063248a9ca31461034657806328c5e182146103695780632d329262146103715780632dc151de1461038457600080fd5b806301ffc9a71461024d578063029996b8146102755780630b885ac31461027f5780630f1a8f74146102925780631420de3f146102d3575b600080fd5b61026061025b366004613cb3565b610627565b60405190151581526020015b60405180910390f35b61027d610652565b005b61027d61028d366004613e21565b6106a4565b6102bb6102a0366004613eaa565b60ce602052600090815260409020546001600160a01b031681565b6040516001600160a01b03909116815260200161026c565b6103046102e1366004613ec3565b60d260209081526000938452604080852082529284528284209052825290205481565b60405190815260200161026c565b6102bb610320366004613efb565b60d16020908152600092835260408084209091529082529020546001600160a01b031681565b610304610354366004613eaa565b60009081526065602052604090206001015490565b610304610779565b61027d61037f366004613f73565b6107c2565b60ca546102bb906001600160a01b031681565b61027d6103a5366004613efb565b6108f0565b61027d6103b8366004613efb565b61091a565b6102606103cb366004613fd9565b610998565b61030460cc5481565b610304600080516020617ba383398151915281565b6104146040518060400160405280600781526020016613585a5b9b995d60ca1b81525081565b60405161026c919061406a565b60c9546102bb906001600160a01b031681565b61027d6104423660046140c1565b6109f3565b61027d610455366004613e21565b610b25565b60cd546102bb906001600160a01b031681565b60cb546102bb906001600160a01b031681565b61027d61048e366004614177565b610d32565b61027d6104a13660046141fd565b610e48565b6102bb6104b4366004614258565b610ff1565b6102606104c7366004613efb565b611010565b610304600081565b6102606104e236600461427a565b60d06020526000908152604090205460ff1681565b61027d61103b565b61051261050d366004614297565b61107e565b6040516001600160e01b0319909116815260200161026c565b61027d610539366004613fd9565b611106565b61027d61054c36600461435f565b61121b565b61030461055f366004613eaa565b611521565b61027d6105723660046143c6565b611538565b6103047ffda70c2cc66a36c14884ee85424961f51b1d92b4494751699b6d105b3bcbcba881565b61027d6105ac366004613efb565b6116b4565b60cd5461026090600160a01b900460ff1681565b6102bb6105d336600461427a565b60cf602052600090815260409020546001600160a01b031681565b61027d6105fc36600461427a565b6116d9565b61051261060f36600461441c565b6117ef565b61027d610622366004614497565b611875565b60006001600160e01b0319821663112fc36360e01b148061064c575061064c82611982565b92915050565b61066a600080516020617ba383398151915233611010565b61068f5760405162461bcd60e51b8152600401610686906144cc565b60405180910390fd5b60cd805460ff60a01b1916600160a01b179055565b600054610100900460ff16158080156106c45750600054600160ff909116105b806106de5750303b1580156106de575060005460ff166001145b6106fa5760405162461bcd60e51b81526004016106869061450d565b6000805460ff19166001179055801561071d576000805461ff0019166101001790555b61072a8686868686610b25565b8015610771576000805461ff0019169055604051600181527f7f26b83ff96e1f2b6a682f133852f6798a09c465da95921460cefb3847402498906020015b60405180910390a15b505050505050565b6040518060400160405280600781526020016613585a5b9b995d60ca1b8152506040516020016107a9919061455b565b6040516020818303038152906040528051906020012081565b84848080601f016020809104026020016040519081016040528093929190818152602001838380828437600092018290525060405133945090925061080c9150849060200161455b565b60405160208183030381529060405280519060200120905061082e81836119a7565b60008888604051602001610843929190614577565b60408051808303601f1901815290829052805160209091012060cb54632c98abc960e11b8352600483018290523360248401529092506001600160a01b031690635931579290604401600060405180830381600087803b1580156108a657600080fd5b505af11580156108ba573d6000803e3d6000fd5b505050600082815260ce60205260409020546108e5915082906001600160a01b031689338a8a611b15565b505050505050505050565b60008281526065602052604090206001015461090b81611e5a565b6109158383611e67565b505050565b6001600160a01b038116331461098a5760405162461bcd60e51b815260206004820152602f60248201527f416363657373436f6e74726f6c3a2063616e206f6e6c792072656e6f756e636560448201526e103937b632b9903337b91039b2b63360891b6064820152608401610686565b6109948282611e89565b5050565b6000806001600160a01b031660ce600085856040516020016109bb929190614577565b60408051808303601f19018152918152815160209283012083529082019290925201600020546001600160a01b031614159392505050565b86868080601f0160208091040260200160405190810160405280939291908181526020018383808284376000920182905250604051339450909250610a3d9150849060200161455b565b604051602081830303815290604052805190602001209050610a5f81836119a7565b60008a8a604051602001610a74929190614577565b60408051808303601f1901815290829052805160209091012060cb54632c98abc960e11b8352600483018290523360248401529092506001600160a01b031690635931579290604401600060405180830381600087803b158015610ad757600080fd5b505af1158015610aeb573d6000803e3d6000fd5b505050600082815260ce6020526040902054610b18915082906001600160a01b03168b338c8c8c8c611eab565b5050505050505050505050565b600054610100900460ff1615808015610b455750600054600160ff909116105b80610b5f5750303b158015610b5f575060005460ff166001145b610b7b5760405162461bcd60e51b81526004016106869061450d565b6000805460ff191660011790558015610b9e576000805461ff0019166101001790555b6001600160a01b038216610bf45760405162461bcd60e51b815260206004820181905260248201527f4465706f736974426f7820616464726573732068617320746f206265207365746044820152606401610686565b610bfc6122ad565b610c0760003361231a565b610c1f600080516020617ba38339815191523361231a565b610c497ffda70c2cc66a36c14884ee85424961f51b1d92b4494751699b6d105b3bcbcba83361231a565b85604051602001610c5a919061455b565b60408051601f19818403018152828252805160209182012060cc5560c980546001600160a01b038a81166001600160a01b03199283161790925560ca80548a841690831617905560cb805489841690831617905560cd8054928816929091168217905560008452908301527fc968af77923193016f61d74ba6827296db5e1f37ec4fab3ad1ef20e193395e59910160405180910390a18015610771576000805461ff0019169055604051600181527f7f26b83ff96e1f2b6a682f133852f6798a09c465da95921460cefb384740249890602001610768565b60cb54604080518082018252600781526613585a5b9b995d60ca1b60208083019190915291516001600160a01b0390931692635931579292610d7592910161455b565b60408051601f198184030181529082905280516020909101206001600160e01b031960e084901b1682526004820152336024820152604401600060405180830381600087803b158015610dc757600080fd5b505af1158015610ddb573d6000803e3d6000fd5b50505050610e416040518060400160405280600781526020016613585a5b9b995d60ca1b815250604051602001610e12919061455b565b60408051601f19818403018152919052805160209091012060cd546001600160a01b0316873388888888611eab565b5050505050565b60c9546001600160a01b03163314610ea25760405162461bcd60e51b815260206004820152601c60248201527f53656e646572206973206e6f742061204d65737361676550726f7879000000006044820152606401610686565b8383610eb08260cc54141590565b8015610ec15750610ec18282612324565b610f0d5760405162461bcd60e51b815260206004820152601b60248201527f526563656976657220636861696e20697320696e636f727265637400000000006044820152606401610686565b6000610f1985856123b1565b90506000600982600e811115610f3157610f31614587565b1480610f4e5750600a82600e811115610f4c57610f4c614587565b145b15610f6557610f5e8887876123fc565b9050610fe7565b600b82600e811115610f7957610f79614587565b1480610f965750600c82600e811115610f9457610f94614587565b145b15610fa657610f5e8887876128bc565b60405162461bcd60e51b815260206004820152601660248201527526b2b9b9b0b3b2aa3cb8329034b9903ab735b737bbb760511b6044820152606401610686565b5050505050505050565b60008281526097602052604081206110099083612cbe565b9392505050565b60009182526065602090815260408084206001600160a01b0393909316845291905290205460ff1690565b611053600080516020617ba383398151915233611010565b61106f5760405162461bcd60e51b8152600401610686906144cc565b60cd805460ff60a01b19169055565b60006001600160a01b03891630146110d85760405162461bcd60e51b815260206004820152601d60248201527f5265766572742045524331313535206261746368207472616e736665720000006044820152606401610686565b507fbc197c819b3e337a6f9652dd10becd7eef83032af3b9d958d3d42f669414662198975050505050505050565b60ca546001600160a01b03163314806111255750611125600033611010565b6111695760405162461bcd60e51b81526020600482015260156024820152742737ba1030baba3437b934bd32b21031b0b63632b960591b6044820152606401610686565b6000828260405160200161117e929190614577565b60408051601f198184030181529181528151602092830120600081815260ce9093529120549091506001600160a01b03166111fb5760405162461bcd60e51b815260206004820152601860248201527f546f6b656e204d616e61676572206973206e6f742073657400000000000000006044820152606401610686565b600090815260ce6020526040902080546001600160a01b03191690555050565b6112457ffda70c2cc66a36c14884ee85424961f51b1d92b4494751699b6d105b3bcbcba833611010565b6112915760405162461bcd60e51b815260206004820181905260248201527f544f4b454e5f5245474953545241525f524f4c452069732072657175697265646044820152606401610686565b600084846040516020016112a6929190614577565b60408051601f1981840301815290829052805160209091012060c954634ccd5cd560e11b83529092506001600160a01b03169063999ab9aa906112ef908890889060040161459d565b602060405180830381865afa15801561130c573d6000803e3d6000fd5b505050506040513d601f19601f8201168201806040525081019061133091906145cc565b6113755760405162461bcd60e51b815260206004820152601660248201527510da185a5b881a5cc81b9bdd0818dbdb9b9958dd195960521b6044820152606401610686565b6001600160a01b0382163b6113cc5760405162461bcd60e51b815260206004820152601f60248201527f476976656e2061646472657373206973206e6f74206120636f6e7472616374006044820152606401610686565b600081815260d1602090815260408083206001600160a01b03878116855292529091205416156114375760405162461bcd60e51b8152602060048201526016602482015275436f756c64206e6f742072656c696e6b20636c6f6e6560501b6044820152606401610686565b6001600160a01b038216600090815260d0602052604090205460ff16156114a05760405162461bcd60e51b815260206004820152601760248201527f436c6f6e652077617320616c72656164792061646465640000000000000000006044820152606401610686565b600081815260d1602090815260408083206001600160a01b0387811680865291845282852080546001600160a01b031916918816918217905580855260d0909352818420805460ff1916600117905590519192909184917ff86f4b9b158b421a62f31d8b430c86afba56c6bb611fb82bc115dd030903d36a91a45050505050565b600081815260976020526040812061064c90612cca565b60ca546001600160a01b03163314806115575750611557600033611010565b61159b5760405162461bcd60e51b81526020600482015260156024820152742737ba1030baba3437b934bd32b21031b0b63632b960591b6044820152606401610686565b600083836040516020016115b0929190614577565b60408051601f198184030181529181528151602092830120600081815260ce9093529120549091506001600160a01b03161561162e5760405162461bcd60e51b815260206004820152601c60248201527f546f6b656e204d616e6167657220697320616c726561647920736574000000006044820152606401610686565b6001600160a01b0382166116845760405162461bcd60e51b815260206004820152601f60248201527f496e636f727265637420546f6b656e204d616e616765722061646472657373006044820152606401610686565b600090815260ce6020526040902080546001600160a01b0319166001600160a01b03929092169190911790555050565b6000828152606560205260409020600101546116cf81611e5a565b6109158383611e89565b6116e4600033611010565b6117305760405162461bcd60e51b815260206004820152601e60248201527f44454641554c545f41444d494e5f524f4c4520697320726571756972656400006044820152606401610686565b6001600160a01b0381166117865760405162461bcd60e51b815260206004820181905260248201527f4465706f736974426f7820616464726573732068617320746f206265207365746044820152606401610686565b60cd54604080516001600160a01b03928316815291831660208301527fc968af77923193016f61d74ba6827296db5e1f37ec4fab3ad1ef20e193395e59910160405180910390a160cd80546001600160a01b0319166001600160a01b0392909216919091179055565b60006001600160a01b03871630146118495760405162461bcd60e51b815260206004820152601760248201527f5265766572742045524331313535207472616e736665720000000000000000006044820152606401610686565b507ff23a6e612e1ff4830e658fe43f4e3cb4a5f8170bd5d9e69fb5d7a7fa9e4fdf979695505050505050565b60cb54604080518082018252600781526613585a5b9b995d60ca1b60208083019190915291516001600160a01b03909316926359315792926118b892910161455b565b60408051601f198184030181529082905280516020909101206001600160e01b031960e084901b1682526004820152336024820152604401600060405180830381600087803b15801561190a57600080fd5b505af115801561191e573d6000803e3d6000fd5b505050506109156040518060400160405280600781526020016613585a5b9b995d60ca1b815250604051602001611955919061455b565b60408051601f19818403018152919052805160209091012060cd546001600160a01b031685338686611b15565b60006001600160e01b03198216630271189760e51b148061064c575061064c82612cd4565b6119f6826040518060400160405280600781526020016613585a5b9b995d60ca1b8152506040516020016119db919061455b565b60405160208183030381529060405280519060200120141590565b611a5b5760405162461bcd60e51b815260206004820152603060248201527f546869732066756e6374696f6e206973206e6f7420666f72207472616e73666560448201526f1c9c9a5b99c81d1bc813585a5b9b995d60821b6064820152608401610686565b6001600160a01b038116611ab15760405162461bcd60e51b815260206004820152601a60248201527f496e636f727265637420726563656976657220616464726573730000000000006044820152606401610686565b600082815260ce60205260409020546001600160a01b03166109945760405162461bcd60e51b815260206004820152601f60248201527f496e636f727265637420546f6b656e204d616e616765722061646472657373006044820152606401610686565b600086815260d1602090815260408083206001600160a01b03808916855292528220541680611b7f57506001600160a01b038516600090815260d06020526040902054859060ff1615611b7a5760405162461bcd60e51b8152600401610686906145ee565b600191505b6001600160a01b0381163b611bd15760405162461bcd60e51b81526020600482015260186024820152772737903a37b5b2b71031b637b7329037b71039b1b430b4b760411b6044820152606401610686565b60405163e985e9c560e01b81523360048201523060248201526001600160a01b0382169063e985e9c590604401602060405180830381865afa158015611c1b573d6000803e3d6000fd5b505050506040513d601f19601f82011682018060405250810190611c3f91906145cc565b611c875760405162461bcd60e51b81526020600482015260196024820152782737ba1030b63637bbb2b21022a92198989a9a902a37b5b2b760391b6044820152606401610686565b6000611c9587878787612cf9565b90508215611d8157611cd1896040518060400160405280600781526020016613585a5b9b995d60ca1b8152506040516020016119db919061455b565b611ced5760405162461bcd60e51b815260040161068690614625565b611cfa8983338888612d60565b9050611d188983611d0a88612e16565b611d1388612e16565b612e5d565b604051637921219560e11b81526001600160a01b0383169063f242432a90611d4a90339030908a908a90600401614678565b600060405180830381600087803b158015611d6457600080fd5b505af1158015611d78573d6000803e3d6000fd5b50505050611de9565b604051637a94c56560e11b815233600482015260248101869052604481018590526001600160a01b0383169063f5298aca90606401600060405180830381600087803b158015611dd057600080fd5b505af1158015611de4573d6000803e3d6000fd5b505050505b60c954604051634a24490160e11b81526001600160a01b0390911690639448920290611e1d908c908c9086906004016146b0565b600060405180830381600087803b158015611e3757600080fd5b505af1158015611e4b573d6000803e3d6000fd5b50505050505050505050505050565b611e648133612f50565b50565b611e718282612fa9565b6000828152609760205260409020610915908261302f565b611e938282613044565b600082815260976020526040902061091590826130ab565b600088815260d1602090815260408083206001600160a01b03808b16855292528220541680611f1557506001600160a01b038716600090815260d06020526040902054879060ff1615611f105760405162461bcd60e51b8152600401610686906145ee565b600191505b6001600160a01b0381163b611f675760405162461bcd60e51b81526020600482015260186024820152772737903a37b5b2b71031b637b7329037b71039b1b430b4b760411b6044820152606401610686565b60405163e985e9c560e01b81523360048201523060248201526001600160a01b0382169063e985e9c590604401602060405180830381865afa158015611fb1573d6000803e3d6000fd5b505050506040513d601f19601f82011682018060405250810190611fd591906145cc565b61201d5760405162461bcd60e51b81526020600482015260196024820152782737ba1030b63637bbb2b21022a92198989a9a902a37b5b2b760391b6044820152606401610686565b600061208e898989898080602002602001604051908101604052809392919081815260200183836020028082843760009201919091525050604080516020808d0282810182019093528c82529093508c92508b9182918501908490808284376000920191909152506130c092505050565b905082156121d3576120ca8b6040518060400160405280600781526020016613585a5b9b995d60ca1b8152506040516020016119db919061455b565b6120e65760405162461bcd60e51b815260040161068690614625565b6120f58b83338a8a8a8a61310d565b90506121668b8389898080602002602001604051908101604052809392919081815260200183836020028082843760009201919091525050604080516020808d0282810182019093528c82529093508c92508b918291850190849080828437600092019190915250612e5d92505050565b604051631759616b60e11b81526001600160a01b03831690632eb2c2d69061219c90339030908c908c908c908c90600401614715565b600060405180830381600087803b1580156121b657600080fd5b505af11580156121ca573d6000803e3d6000fd5b5050505061223a565b604051631ac8311560e21b81526001600160a01b03831690636b20c454906122079033908b908b908b908b90600401614774565b600060405180830381600087803b15801561222157600080fd5b505af1158015612235573d6000803e3d6000fd5b505050505b60c954604051634a24490160e11b81526001600160a01b039091169063944892029061226e908e908e9086906004016146b0565b600060405180830381600087803b15801561228857600080fd5b505af115801561229c573d6000803e3d6000fd5b505050505050505050505050505050565b600054610100900460ff166123185760405162461bcd60e51b815260206004820152602b60248201527f496e697469616c697a61626c653a20636f6e7472616374206973206e6f74206960448201526a6e697469616c697a696e6760a81b6064820152608401610686565b565b6109948282611e67565b6000612374836040518060400160405280600781526020016613585a5b9b995d60ca1b81525060405160200161235a919061455b565b604051602081830303815290604052805190602001201490565b61239a57600083815260ce60205260409020546001600160a01b03838116911614611009565b5060cd546001600160a01b03908116911614919050565b6000806123c083850185613eaa565b90506123cd6020826147b8565b6000036123f0576123e86123e3848381886147da565b6123b1565b91505061064c565b6123e883850185614818565b60008061240984846123b1565b9050600080808080600986600e81111561242557612425614587565b036124a65760006124368a8a613281565b90508060400151955080602001519450806060015193508060800151925060d160008c81526020019081526020016000206000866001600160a01b03166001600160a01b0316815260200190815260200160002060009054906101000a90046001600160a01b0316915050612659565b60006124b28a8a613334565b9050806000015160400151955080600001516020015194508060000151606001519350806000015160800151925060d160008c81526020019081526020016000206000866001600160a01b03166001600160a01b0316815260200190815260200160002060009054906101000a90046001600160a01b0316915060006001600160a01b0316826001600160a01b0316036126575760cd54600160a01b900460ff1661259f5760405162461bcd60e51b815260206004820152601c60248201527f4175746f6d61746963206465706c6f792069732064697361626c6564000000006044820152606401610686565b6020810151516040516125b190613c10565b6125bb919061406a565b604051809103906000f0801580156125d7573d6000803e3d6000fd5b5060008c815260d1602090815260408083206001600160a01b038a811680865291845282852080546001600160a01b031916918716918217905580855260d0909352818420805460ff191660011790559051939550909290918e917fae5aabebaedd1b95e68d95d1bc05734a63a8e451f94b37864515b78c532247d99190a45b505b600986600e81111561266d5761266d614587565b1480156126a957506126a98a6040518060400160405280600781526020016613585a5b9b995d60ca1b8152506040516020016119db919061455b565b80156126c8575060008a815260d3602052604090206126c890856133cb565b15612779576001600160a01b0384163b6126f45760405162461bcd60e51b8152600401610686906145ee565b6127108a8561270286612e16565b61270b86612e16565b6133ed565b604051637921219560e11b81526001600160a01b0385169063f242432a90612742903090899088908890600401614678565b600060405180830381600087803b15801561275c57600080fd5b505af1158015612770573d6000803e3d6000fd5b505050506127f1565b60405163731133e960e01b81526001600160a01b0386811660048301526024820185905260448201849052608060648301526000608483015282169063731133e99060a401600060405180830381600087803b1580156127d857600080fd5b505af11580156127ec573d6000803e3d6000fd5b505050505b806001600160a01b0316846001600160a01b03168b7f2349a6dafaf84dd371a44cd78bd587d9e750c3dfa1137d21f34f00e0d4babcb261283087612e16565b61283987612e16565b60405161284792919061486f565b60405180910390a460c95460405163e051116b60e01b81526001600160a01b0387811660048301529091169063e051116b90602401600060405180830381600087803b15801561289657600080fd5b505af11580156128aa573d6000803e3d6000fd5b50969c9b505050505050505050505050565b6000806128c984846123b1565b905060008060608082600b86600e8111156128e6576128e6614587565b036129675760006128f78a8a6134e0565b90508060400151955080602001519450806060015193508060800151925060d160008c81526020019081526020016000206000866001600160a01b03166001600160a01b0316815260200190815260200160002060009054906101000a90046001600160a01b0316915050612b05565b60006129738a8a613598565b9050806000015160400151955080600001516020015194508060000151606001519350806000015160800151925060d160008c81526020019081526020016000206000866001600160a01b03166001600160a01b0316815260200190815260200160002060009054906101000a90046001600160a01b0316915060006001600160a01b0316826001600160a01b031603612b035760cd54600160a01b900460ff16612a605760405162461bcd60e51b815260206004820152601c60248201527f4175746f6d61746963206465706c6f792069732064697361626c6564000000006044820152606401610686565b602081015151604051612a7290613c10565b612a7c919061406a565b604051809103906000f080158015612a98573d6000803e3d6000fd5b5060008c815260d1602090815260408083206001600160a01b038a81168086529190935281842080546001600160a01b03191693861693841790559051939550909290918e917fae5aabebaedd1b95e68d95d1bc05734a63a8e451f94b37864515b78c532247d99190a45b505b600b86600e811115612b1957612b19614587565b148015612b555750612b558a6040518060400160405280600781526020016613585a5b9b995d60ca1b8152506040516020016119db919061455b565b8015612b74575060008a815260d360205260409020612b7490856133cb565b15612c15576001600160a01b0384163b612ba05760405162461bcd60e51b8152600401610686906145ee565b612bac8a8585856133ed565b604051631759616b60e11b81526001600160a01b03851690632eb2c2d690612bde903090899088908890600401614894565b600060405180830381600087803b158015612bf857600080fd5b505af1158015612c0c573d6000803e3d6000fd5b50505050612c78565b604051630fbfeffd60e11b81526001600160a01b03821690631f7fdffa90612c45908890879087906004016148ef565b600060405180830381600087803b158015612c5f57600080fd5b505af1158015612c73573d6000803e3d6000fd5b505050505b806001600160a01b0316846001600160a01b03168b7f2349a6dafaf84dd371a44cd78bd587d9e750c3dfa1137d21f34f00e0d4babcb2868660405161284792919061486f565b60006110098383613634565b600061064c825490565b60006001600160e01b03198216635a05180f60e01b148061064c575061064c8261365e565b6040805160c081018252600960a0820190815281526001600160a01b03808716602080840191909152908616828401526060808301869052608083018590529251612d46918391016149ac565b604051602081830303815290604052915050949350505050565b600085815260d36020526040812060609190612d7c90876133cb565b905080612da957612d8d8787613693565b612da286868686612d9d8b6137a4565b613832565b9150612db8565b612db586868686612cf9565b91505b856001600160a01b0316877f601046fc8dbb772c2b88d30850532ffec5253f2e73c855af1c5f318a7a4562b0612ded87612e16565b612df687612e16565b604051612e0492919061486f565b60405180910390a35095945050505050565b604080516001808252818301909252606091602080830190803683370190505090508181600081518110612e4c57612e4c6149ba565b602002602001018181525050919050565b8051825114612eae5760405162461bcd60e51b815260206004820152601a60248201527f496e636f7272656374206c656e677468206f66206172726179730000000000006044820152606401610686565b60005b8251811015610e4157818181518110612ecc57612ecc6149ba565b602002602001015160d260008781526020019081526020016000206000866001600160a01b03166001600160a01b031681526020019081526020016000206000858481518110612f1e57612f1e6149ba565b602002602001015181526020019081526020016000206000828254612f4391906149e6565b9091555050600101612eb1565b612f5a8282611010565b61099457612f67816138b7565b612f728360206138c9565b604051602001612f839291906149f9565b60408051601f198184030181529082905262461bcd60e51b82526106869160040161406a565b612fb38282611010565b6109945760008281526065602090815260408083206001600160a01b03851684529091529020805460ff19166001179055612feb3390565b6001600160a01b0316816001600160a01b0316837f2f8788117e7eff1d82e926ec794901d17c78024a50270940304540a733656f0d60405160405180910390a45050565b6000611009836001600160a01b038416613a64565b61304e8282611010565b156109945760008281526065602090815260408083206001600160a01b0385168085529252808320805460ff1916905551339285917ff6391f5c32d9c69d2a47ea670b442974b53935d1edc7fd64eb21e047a839171b9190a45050565b6000611009836001600160a01b038416613ab3565b6040805160c081018252600b60a0820190815281526001600160a01b03808716602080840191909152908616828401526060808301869052608083018590529251612d4691839101614ad1565b600087815260d3602052604081206060919061312990896133cb565b9050806131bb5761313a8989613693565b6131b4888888888080602002602001604051908101604052809392919081815260200183836020028082843760009201919091525050604080516020808c0282810182019093528b82529093508b92508a9182918501908490808284376000920191909152506131af92508f91506137a49050565b613ba6565b915061322d565b61322a888888888080602002602001604051908101604052809392919081815260200183836020028082843760009201919091525050604080516020808c0282810182019093528b82529093508b92508a9182918501908490808284376000920191909152506130c092505050565b91505b876001600160a01b0316897f601046fc8dbb772c2b88d30850532ffec5253f2e73c855af1c5f318a7a4562b08888888860405161326d9493929190614ae4565b60405180910390a350979650505050505050565b6040805160c081018252600060a0820181815282526020820181905291810182905260608101829052608081019190915260096132be84846123b1565b600e8111156132cf576132cf614587565b146133285760405162461bcd60e51b8152602060048201526024808201527f4d6573736167652074797065206973206e6f742045524331313535207472616e60448201526339b332b960e11b6064820152608401610686565b61100982840184614bad565b61333c613c1d565b600a61334884846123b1565b600e81111561335957613359614587565b146133bf5760405162461bcd60e51b815260206004820152603060248201527f4d6573736167652074797065206973206e6f742045524331313535416e64546f60448201526f35b2b724b73337903a3930b739b332b960811b6064820152608401610686565b61100982840184614c10565b6001600160a01b03811660009081526001830160205260408120541515611009565b805182511461343e5760405162461bcd60e51b815260206004820152601a60248201527f496e636f7272656374206c656e677468206f66206172726179730000000000006044820152606401610686565b60005b8251811015610e415781818151811061345c5761345c6149ba565b602002602001015160d260008781526020019081526020016000206000866001600160a01b03166001600160a01b0316815260200190815260200160002060008584815181106134ae576134ae6149ba565b6020026020010151815260200190815260200160002060008282546134d39190614c91565b9091555050600101613441565b6040805160c081018252600060a082018181528252602082018190529181019190915260608082018190526080820152600b61351c84846123b1565b600e81111561352d5761352d614587565b1461358c5760405162461bcd60e51b815260206004820152602960248201527f4d6573736167652074797065206973206e6f7420455243313135354261746368604482015268103a3930b739b332b960b91b6064820152608401610686565b61100982840184614dd0565b6135a0613c75565b600c6135ac84846123b1565b600e8111156135bd576135bd614587565b146136285760405162461bcd60e51b815260206004820152603560248201527f4d6573736167652074797065206973206e6f742045524331313535426174636860448201527420b7322a37b5b2b724b73337903a3930b739b332b960591b6064820152608401610686565b61100982840184614e0c565b600082600001828154811061364b5761364b6149ba565b9060005260206000200154905092915050565b60006001600160e01b03198216637965db0b60e01b148061064c57506301ffc9a760e01b6001600160e01b031983161461064c565b6001600160a01b0381163b6136ea5760405162461bcd60e51b815260206004820152601f60248201527f476976656e2061646472657373206973206e6f74206120636f6e7472616374006044820152606401610686565b600082815260d36020526040902061370290826133cb565b1561374f5760405162461bcd60e51b815260206004820152601f60248201527f4552433131353520546f6b656e2077617320616c7265616479206164646564006044820152606401610686565b600082815260d360205260409020613767908261302f565b506040516000906001600160a01b0383169084907ff86f4b9b158b421a62f31d8b430c86afba56c6bb611fb82bc115dd030903d36a908490a45050565b6040805160208101909152606081526040805160208101918290526303a24d0760e21b90915260006024820152806001600160a01b038416630e89341c60448301600060405180830381865afa158015613802573d6000803e3d6000fd5b505050506040513d6000823e601f3d908101601f1916820160405261382a9190810190614e8c565b905292915050565b604080516101008101825260609160009190819081018060e0830180600a81525081526020018a6001600160a01b03168152602001896001600160a01b031681526020018881526020018781525081526020018481525090508060405160200161389c9190614f0e565b60405160208183030381529060405291505095945050505050565b606061064c6001600160a01b03831660145b606060006138d8836002614f3a565b6138e39060026149e6565b6001600160401b038111156138fa576138fa613cdd565b6040519080825280601f01601f191660200182016040528015613924576020820181803683370190505b509050600360fc1b8160008151811061393f5761393f6149ba565b60200101906001600160f81b031916908160001a905350600f60fb1b8160018151811061396e5761396e6149ba565b60200101906001600160f81b031916908160001a9053506000613992846002614f3a565b61399d9060016149e6565b90505b6001811115613a15576f181899199a1a9b1b9c1cb0b131b232b360811b85600f16601081106139d1576139d16149ba565b1a60f81b8282815181106139e7576139e76149ba565b60200101906001600160f81b031916908160001a90535060049490941c93613a0e81614f51565b90506139a0565b5083156110095760405162461bcd60e51b815260206004820181905260248201527f537472696e67733a20686578206c656e67746820696e73756666696369656e746044820152606401610686565b6000818152600183016020526040812054613aab5750815460018181018455600084815260208082209093018490558454848252828601909352604090209190915561064c565b50600061064c565b60008181526001830160205260408120548015613b9c576000613ad7600183614c91565b8554909150600090613aeb90600190614c91565b9050818114613b50576000866000018281548110613b0b57613b0b6149ba565b9060005260206000200154905080876000018481548110613b2e57613b2e6149ba565b6000918252602080832090910192909255918252600188019052604090208390555b8554869080613b6157613b61614f68565b60019003818190600052602060002001600090559055856001016000868152602001908152602001600020600090556001935050505061064c565b600091505061064c565b604080516101008101825260609160009190819081018060e0830180600c81525081526020018a6001600160a01b03168152602001896001600160a01b031681526020018881526020018781525081526020018481525090508060405160200161389c9190614f7e565b612beb80614fb883390190565b6040805161010081018252600060e08201818152928201928352606082018190526080820181905260a0820181905260c08201529081905b8152602001613c706040518060200160405280606081525090565b905290565b6040805161010081018252600060e082018181529282019283526060808301829052608083019190915260a0820181905260c0820152908190613c55565b600060208284031215613cc557600080fd5b81356001600160e01b03198116811461100957600080fd5b634e487b7160e01b600052604160045260246000fd5b604051602081016001600160401b0381118282101715613d1557613d15613cdd565b60405290565b60405160a081016001600160401b0381118282101715613d1557613d15613cdd565b604080519081016001600160401b0381118282101715613d1557613d15613cdd565b604051601f8201601f191681016001600160401b0381118282101715613d8757613d87613cdd565b604052919050565b60006001600160401b03821115613da857613da8613cdd565b50601f01601f191660200190565b600082601f830112613dc757600080fd5b8135613dda613dd582613d8f565b613d5f565b818152846020838601011115613def57600080fd5b816020850160208301376000918101602001919091529392505050565b6001600160a01b0381168114611e6457600080fd5b600080600080600060a08688031215613e3957600080fd5b85356001600160401b03811115613e4f57600080fd5b613e5b88828901613db6565b9550506020860135613e6c81613e0c565b93506040860135613e7c81613e0c565b92506060860135613e8c81613e0c565b91506080860135613e9c81613e0c565b809150509295509295909350565b600060208284031215613ebc57600080fd5b5035919050565b600080600060608486031215613ed857600080fd5b833592506020840135613eea81613e0c565b929592945050506040919091013590565b60008060408385031215613f0e57600080fd5b823591506020830135613f2081613e0c565b809150509250929050565b60008083601f840112613f3d57600080fd5b5081356001600160401b03811115613f5457600080fd5b602083019150836020828501011115613f6c57600080fd5b9250929050565b600080600080600060808688031215613f8b57600080fd5b85356001600160401b03811115613fa157600080fd5b613fad88828901613f2b565b9096509450506020860135613fc181613e0c565b94979396509394604081013594506060013592915050565b60008060208385031215613fec57600080fd5b82356001600160401b0381111561400257600080fd5b61400e85828601613f2b565b90969095509350505050565b60005b8381101561403557818101518382015260200161401d565b50506000910152565b6000815180845261405681602086016020860161401a565b601f01601f19169290920160200192915050565b602081526000611009602083018461403e565b60008083601f84011261408f57600080fd5b5081356001600160401b038111156140a657600080fd5b6020830191508360208260051b8501011115613f6c57600080fd5b60008060008060008060006080888a0312156140dc57600080fd5b87356001600160401b038111156140f257600080fd5b6140fe8a828b01613f2b565b909850965050602088013561411281613e0c565b945060408801356001600160401b0381111561412d57600080fd5b6141398a828b0161407d565b90955093505060608801356001600160401b0381111561415857600080fd5b6141648a828b0161407d565b989b979a50959850939692959293505050565b60008060008060006060868803121561418f57600080fd5b853561419a81613e0c565b945060208601356001600160401b038111156141b557600080fd5b6141c18882890161407d565b90955093505060408601356001600160401b038111156141e057600080fd5b6141ec8882890161407d565b969995985093965092949392505050565b6000806000806060858703121561421357600080fd5b84359350602085013561422581613e0c565b925060408501356001600160401b0381111561424057600080fd5b61424c87828801613f2b565b95989497509550505050565b6000806040838503121561426b57600080fd5b50508035926020909101359150565b60006020828403121561428c57600080fd5b813561100981613e0c565b60008060008060008060008060a0898b0312156142b357600080fd5b88356142be81613e0c565b975060208901356142ce81613e0c565b965060408901356001600160401b038111156142e957600080fd5b6142f58b828c0161407d565b90975095505060608901356001600160401b0381111561431457600080fd5b6143208b828c0161407d565b90955093505060808901356001600160401b0381111561433f57600080fd5b61434b8b828c01613f2b565b999c989b5096995094979396929594505050565b6000806000806060858703121561437557600080fd5b84356001600160401b0381111561438b57600080fd5b61439787828801613f2b565b90955093505060208501356143ab81613e0c565b915060408501356143bb81613e0c565b939692955090935050565b6000806000604084860312156143db57600080fd5b83356001600160401b038111156143f157600080fd5b6143fd86828701613f2b565b909450925050602084013561441181613e0c565b809150509250925092565b60008060008060008060a0878903121561443557600080fd5b863561444081613e0c565b9550602087013561445081613e0c565b9450604087013593506060870135925060808701356001600160401b0381111561447957600080fd5b61448589828a01613f2b565b979a9699509497509295939492505050565b6000806000606084860312156144ac57600080fd5b83356144b781613e0c565b95602085013595506040909401359392505050565b60208082526021908201527f4155544f4d415449435f4445504c4f595f524f4c4520697320726571756972656040820152601960fa1b606082015260800190565b6020808252602e908201527f496e697469616c697a61626c653a20636f6e747261637420697320616c72656160408201526d191e481a5b9a5d1a585b1a5e995960921b606082015260800190565b6000825161456d81846020870161401a565b9190910192915050565b8183823760009101908152919050565b634e487b7160e01b600052602160045260246000fd5b60208152816020820152818360408301376000818301604090810191909152601f909201601f19160101919050565b6000602082840312156145de57600080fd5b8151801515811461100957600080fd5b6020808252601a908201527f496e636f7272656374206d61696e20636861696e20746f6b656e000000000000604082015260600190565b60208082526033908201527f4d61696e20636861696e20746f6b656e20636f756c64206e6f74206265207472604082015272185b9cd9995c9959081d1bc813585a5b9b995d606a1b606082015260800190565b6001600160a01b0394851681529290931660208301526040820152606081019190915260a06080820181905260009082015260c00190565b8381526001600160a01b03831660208201526060604082018190526000906146da9083018461403e565b95945050505050565b81835260006001600160fb1b038311156146fc57600080fd5b8260051b80836020870137939093016020019392505050565b6001600160a01b0387811682528616602082015260a06040820181905260009061474290830186886146e3565b82810360608401526147558185876146e3565b8381036080909401939093525050600081526020019695505050505050565b6001600160a01b038616815260606020820181905260009061479990830186886146e3565b82810360408401526147ac8185876146e3565b98975050505050505050565b6000826147d557634e487b7160e01b600052601260045260246000fd5b500690565b600080858511156147ea57600080fd5b838611156147f757600080fd5b5050820193919092039150565b8035600f811061481357600080fd5b919050565b60006020828403121561482a57600080fd5b61100982614804565b600081518084526020840193506020830160005b82811015614865578151865260209586019590910190600101614847565b5093949350505050565b6040815260006148826040830185614833565b82810360208401526146da8185614833565b6001600160a01b0385811682528416602082015260a0604082018190526000906148c090830185614833565b82810360608401526148d28185614833565b838103608090940193909352505060008152602001949350505050565b6001600160a01b038416815260806020820181905260009061491390830185614833565b82810360408401526149258185614833565b8381036060909401939093525050600081526020019392505050565b8051600f811061496157634e487b7160e01b600052602160045260246000fd5b90915250565b614972828251614941565b6020818101516001600160a01b03908116918401919091526040808301519091169083015260608082015190830152608090810151910152565b60a0810161064c8284614967565b634e487b7160e01b600052603260045260246000fd5b634e487b7160e01b600052601160045260246000fd5b8082018082111561064c5761064c6149d0565b7f416363657373436f6e74726f6c3a206163636f756e7420000000000000000000815260008351614a3181601785016020880161401a565b7001034b99036b4b9b9b4b733903937b6329607d1b6017918401918201528351614a6281602884016020880161401a565b01602801949350505050565b614a79828251614941565b60018060a01b03602082015116602083015260018060a01b0360408201511660408301526000606082015160a06060850152614ab860a0850182614833565b9050608083015184820360808601526146da8282614833565b6020815260006110096020830184614a6e565b604081526000614af86040830186886146e3565b8281036020840152614b0b8185876146e3565b979650505050505050565b600060208284031215614b2857600080fd5b614b30613cf3565b9050614b3b82614804565b815292915050565b600060a08284031215614b5557600080fd5b614b5d613d1b565b9050614b698383614b16565b81526020820135614b7981613e0c565b60208201526040820135614b8c81613e0c565b60408201526060828101359082015260809182013591810191909152919050565b600060a08284031215614bbf57600080fd5b6110098383614b43565b600060208284031215614bdb57600080fd5b614be3613cf3565b905081356001600160401b03811115614bfb57600080fd5b614c0784828501613db6565b82525092915050565b600060208284031215614c2257600080fd5b81356001600160401b03811115614c3857600080fd5b820160c08185031215614c4a57600080fd5b614c52613d3d565b614c5c8583614b43565b815260a08201356001600160401b03811115614c7757600080fd5b614c8386828501614bc9565b602083015250949350505050565b8181038181111561064c5761064c6149d0565b600082601f830112614cb557600080fd5b81356001600160401b03811115614cce57614cce613cdd565b8060051b614cde60208201613d5f565b91825260208185018101929081019086841115614cfa57600080fd5b6020860192505b83831015614d1c578235825260209283019290910190614d01565b9695505050505050565b600060a08284031215614d3857600080fd5b614d40613d1b565b9050614d4c8383614b16565b81526020820135614d5c81613e0c565b60208201526040820135614d6f81613e0c565b604082015260608201356001600160401b03811115614d8d57600080fd5b614d9984828501614ca4565b60608301525060808201356001600160401b03811115614db857600080fd5b614dc484828501614ca4565b60808301525092915050565b600060208284031215614de257600080fd5b81356001600160401b03811115614df857600080fd5b614e0484828501614d26565b949350505050565b600060208284031215614e1e57600080fd5b81356001600160401b03811115614e3457600080fd5b820160408185031215614e4657600080fd5b614e4e613d3d565b81356001600160401b03811115614e6457600080fd5b614e7086828501614d26565b82525060208201356001600160401b03811115614c7757600080fd5b600060208284031215614e9e57600080fd5b81516001600160401b03811115614eb457600080fd5b8201601f81018413614ec557600080fd5b8051614ed3613dd582613d8f565b818152856020838501011115614ee857600080fd5b6146da82602083016020860161401a565b6000815160208452614e04602085018261403e565b60208152614f20602082018351614967565b6000602083015160c080840152614e0460e0840182614ef9565b808202811582820484141761064c5761064c6149d0565b600081614f6057614f606149d0565b506000190190565b634e487b7160e01b600052603160045260246000fd5b602081526000825160406020840152614f9a6060840182614a6e565b90506020840151601f198483030160408501526146da8282614ef956fe608060405234801561001057600080fd5b50604051612beb380380612beb83398101604081905261002f9161045d565b600054610100900460ff161580801561004f5750600054600160ff909116105b806100695750303b158015610069575060005460ff166001145b6100d15760405162461bcd60e51b815260206004820152602e60248201527f496e697469616c697a61626c653a20636f6e747261637420697320616c72656160448201526d191e481a5b9a5d1a585b1a5e995960921b60648201526084015b60405180910390fd5b6000805460ff1916600117905580156100f4576000805461ff0019166101001790555b6100fc61018a565b610105826101e5565b61010d61018a565b610125600080516020612bcb8339815191528061024a565b61013d600080516020612bcb83398151915233610295565b8015610183576000805461ff0019169055604051600181527f7f26b83ff96e1f2b6a682f133852f6798a09c465da95921460cefb38474024989060200160405180910390a15b505061066f565b600054610100900460ff166101e35760405162461bcd60e51b815260206004820152602b6024820152600080516020612bab83398151915260448201526a6e697469616c697a696e6760a81b60648201526084016100c8565b565b600054610100900460ff1661023e5760405162461bcd60e51b815260206004820152602b6024820152600080516020612bab83398151915260448201526a6e697469616c697a696e6760a81b60648201526084016100c8565b610247816102a3565b50565b600082815260656020526040808220600101805490849055905190918391839186917fbd79b86ffe0ab8e8776151514217cd7cacd52c909f66475c3af44e129f0b00ff9190a4505050565b61029f8282610305565b5050565b600054610100900460ff166102fc5760405162461bcd60e51b815260206004820152602b6024820152600080516020612bab83398151915260448201526a6e697469616c697a696e6760a81b60648201526084016100c8565b6102478161032c565b61030f8282610338565b600082815260976020526040902061032790826103da565b505050565b60cb61029f82826105b1565b60008281526065602090815260408083206001600160a01b038516845290915290205460ff1661029f5760008281526065602090815260408083206001600160a01b03851684529091529020805460ff191660011790556103963390565b6001600160a01b0316816001600160a01b0316837f2f8788117e7eff1d82e926ec794901d17c78024a50270940304540a733656f0d60405160405180910390a45050565b60006103ef836001600160a01b0384166103f8565b90505b92915050565b600081815260018301602052604081205461043f575081546001818101845560008481526020808220909301849055845484825282860190935260409020919091556103f2565b5060006103f2565b634e487b7160e01b600052604160045260246000fd5b60006020828403121561046f57600080fd5b81516001600160401b0381111561048557600080fd5b8201601f8101841361049657600080fd5b80516001600160401b038111156104af576104af610447565b604051601f8201601f19908116603f011681016001600160401b03811182821017156104dd576104dd610447565b6040528181528282016020018610156104f557600080fd5b60005b82811015610514576020818501810151838301820152016104f8565b50600091810160200191909152949350505050565b600181811c9082168061053d57607f821691505b60208210810361055d57634e487b7160e01b600052602260045260246000fd5b50919050565b601f82111561032757806000526020600020601f840160051c8101602085101561058a5750805b601f840160051c820191505b818110156105aa5760008155600101610596565b5050505050565b81516001600160401b038111156105ca576105ca610447565b6105de816105d88454610529565b84610563565b6020601f82116001811461061257600083156105fa5750848201515b600019600385901b1c1916600184901b1784556105aa565b600084815260208120601f198516915b828110156106425787850151825560209485019460019092019101610622565b50848210156106605786840151600019600387901b60f8161c191681555b50505050600190811b01905550565b61252d8061067e6000396000f3fe608060405234801561001057600080fd5b50600436106101365760003560e01c8063731133e9116100b8578063ca15c8731161007c578063ca15c873146102b4578063d5391393146102c7578063d547741f146102ee578063e985e9c514610301578063f242432a1461033d578063f5298aca1461035057600080fd5b8063731133e9146102485780639010d07c1461025b57806391d1485414610286578063a217fddf14610299578063a22cb465146102a157600080fd5b80632eb2c2d6116100ff5780632eb2c2d6146101dc5780632f2ff15d146101ef57806336568abe146102025780634e1273f4146102155780636b20c4541461023557600080fd5b8062fdd58e1461013b57806301ffc9a7146101615780630e89341c146101845780631f7fdffa146101a4578063248a9ca3146101b9575b600080fd5b61014e61014936600461195e565b610363565b6040519081526020015b60405180910390f35b61017461016f36600461199e565b6103fe565b6040519015158152602001610158565b6101976101923660046119bb565b610409565b6040516101589190611a24565b6101b76101b2366004611b83565b61049d565b005b61014e6101c73660046119bb565b60009081526065602052604090206001015490565b6101b76101ea366004611c25565b61051e565b6101b76101fd366004611cd8565b61056a565b6101b7610210366004611cd8565b610594565b610228610223366004611d04565b610612565b6040516101589190611e13565b6101b7610243366004611e26565b610733565b6101b7610256366004611e9d565b610776565b61026e610269366004611ee5565b6107f1565b6040516001600160a01b039091168152602001610158565b610174610294366004611cd8565b610810565b61014e600081565b6101b76102af366004611f07565b61083b565b61014e6102c23660046119bb565b610846565b61014e7f9f2df0fed2c77648de5860a4cc508cd0818c85b8b8a1ab4ceeef8d981c8956a681565b6101b76102fc366004611cd8565b61085d565b61017461030f366004611f43565b6001600160a01b03918216600090815260ca6020908152604080832093909416825291909152205460ff1690565b6101b761034b366004611f6d565b610882565b6101b761035e366004611fc5565b6108c7565b60006001600160a01b0383166103d35760405162461bcd60e51b815260206004820152602a60248201527f455243313135353a2061646472657373207a65726f206973206e6f742061207660448201526930b634b21037bbb732b960b11b60648201526084015b60405180910390fd5b50600081815260c9602090815260408083206001600160a01b03861684529091529020545b92915050565b60006103f88261090a565b606060cb805461041890611ff8565b80601f016020809104026020016040519081016040528092919081815260200182805461044490611ff8565b80156104915780601f1061046657610100808354040283529160200191610491565b820191906000526020600020905b81548152906001019060200180831161047457829003601f168201915b50505050509050919050565b6104c77f9f2df0fed2c77648de5860a4cc508cd0818c85b8b8a1ab4ceeef8d981c8956a633610810565b61050c5760405162461bcd60e51b815260206004820152601660248201527529b2b73232b91034b9903737ba10309026b4b73a32b960511b60448201526064016103ca565b6105188484848461094a565b50505050565b6001600160a01b03851633148061053a575061053a853361030f565b6105565760405162461bcd60e51b81526004016103ca90612032565b6105638585858585610a8b565b5050505050565b60008281526065602052604090206001015461058581610c23565b61058f8383610c30565b505050565b6001600160a01b03811633146106045760405162461bcd60e51b815260206004820152602f60248201527f416363657373436f6e74726f6c3a2063616e206f6e6c792072656e6f756e636560448201526e103937b632b9903337b91039b2b63360891b60648201526084016103ca565b61060e8282610c52565b5050565b606081518351146106775760405162461bcd60e51b815260206004820152602960248201527f455243313135353a206163636f756e747320616e6420696473206c656e677468604482015268040dad2e6dac2e8c6d60bb1b60648201526084016103ca565b600083516001600160401b0381111561069257610692611a37565b6040519080825280602002602001820160405280156106bb578160200160208202803683370190505b50905060005b845181101561072b576107068582815181106106df576106df612080565b60200260200101518583815181106106f9576106f9612080565b6020026020010151610363565b82828151811061071857610718612080565b60209081029190910101526001016106c1565b509392505050565b6001600160a01b03831633148061074f575061074f833361030f565b61076b5760405162461bcd60e51b81526004016103ca90612032565b61058f838383610c74565b6107a07f9f2df0fed2c77648de5860a4cc508cd0818c85b8b8a1ab4ceeef8d981c8956a633610810565b6107e55760405162461bcd60e51b815260206004820152601660248201527529b2b73232b91034b9903737ba10309026b4b73a32b960511b60448201526064016103ca565b61051884848484610df7565b60008281526097602052604081206108099083610ed3565b9392505050565b60009182526065602090815260408084206001600160a01b0393909316845291905290205460ff1690565b61060e338383610edf565b60008181526097602052604081206103f890610fbf565b60008281526065602052604090206001015461087881610c23565b61058f8383610c52565b6001600160a01b03851633148061089e575061089e853361030f565b6108ba5760405162461bcd60e51b81526004016103ca90612032565b6105638585858585610fc9565b6001600160a01b0383163314806108e357506108e3833361030f565b6108ff5760405162461bcd60e51b81526004016103ca90612032565b61058f8383836110f7565b60006001600160e01b03198216636cdb3d1360e11b148061093b57506001600160e01b031982166303a24d0760e21b145b806103f857506103f8826111fe565b6001600160a01b0384166109705760405162461bcd60e51b81526004016103ca90612096565b81518351146109915760405162461bcd60e51b81526004016103ca906120d7565b3360005b8451811015610a23578381815181106109b0576109b0612080565b602002602001015160c960008784815181106109ce576109ce612080565b602002602001015181526020019081526020016000206000886001600160a01b03166001600160a01b031681526020019081526020016000206000828254610a169190612135565b9091555050600101610995565b50846001600160a01b031660006001600160a01b0316826001600160a01b03167f4a39dc06d4c0dbc64b70af90fd698a233a518aa5d07e595d983b8c0526c8f7fb8787604051610a74929190612148565b60405180910390a461056381600087878787611223565b8151835114610aac5760405162461bcd60e51b81526004016103ca906120d7565b6001600160a01b038416610ad25760405162461bcd60e51b81526004016103ca90612176565b3360005b8451811015610bb5576000858281518110610af357610af3612080565b602002602001015190506000858381518110610b1157610b11612080565b602090810291909101810151600084815260c9835260408082206001600160a01b038e168352909352919091205490915081811015610b625760405162461bcd60e51b81526004016103ca906121bb565b600083815260c9602090815260408083206001600160a01b038e8116855292528083208585039055908b16825281208054849290610ba1908490612135565b909155505060019093019250610ad6915050565b50846001600160a01b0316866001600160a01b0316826001600160a01b03167f4a39dc06d4c0dbc64b70af90fd698a233a518aa5d07e595d983b8c0526c8f7fb8787604051610c05929190612148565b60405180910390a4610c1b818787878787611223565b505050505050565b610c2d813361137e565b50565b610c3a82826113d7565b600082815260976020526040902061058f908261145d565b610c5c8282611472565b600082815260976020526040902061058f90826114d9565b6001600160a01b038316610c9a5760405162461bcd60e51b81526004016103ca90612205565b8051825114610cbb5760405162461bcd60e51b81526004016103ca906120d7565b604080516020810190915260009081905233905b8351811015610d8a576000848281518110610cec57610cec612080565b602002602001015190506000848381518110610d0a57610d0a612080565b602090810291909101810151600084815260c9835260408082206001600160a01b038c168352909352919091205490915081811015610d5b5760405162461bcd60e51b81526004016103ca90612248565b600092835260c9602090815260408085206001600160a01b038b16865290915290922091039055600101610ccf565b5060006001600160a01b0316846001600160a01b0316826001600160a01b03167f4a39dc06d4c0dbc64b70af90fd698a233a518aa5d07e595d983b8c0526c8f7fb8686604051610ddb929190612148565b60405180910390a4604080516020810190915260009052610518565b6001600160a01b038416610e1d5760405162461bcd60e51b81526004016103ca90612096565b336000610e29856114ee565b90506000610e36856114ee565b9050600086815260c9602090815260408083206001600160a01b038b16845290915281208054879290610e6a908490612135565b909155505060408051878152602081018790526001600160a01b03808a1692600092918716917fc3d58168c5ae7397731d063d5bbf3d657854427343f4c083240f7aacaa2d0f62910160405180910390a4610eca83600089898989611539565b50505050505050565b600061080983836115f4565b816001600160a01b0316836001600160a01b031603610f525760405162461bcd60e51b815260206004820152602960248201527f455243313135353a2073657474696e6720617070726f76616c20737461747573604482015268103337b91039b2b63360b91b60648201526084016103ca565b6001600160a01b03838116600081815260ca6020908152604080832094871680845294825291829020805460ff191686151590811790915591519182527f17307eab39ab6107e8899845ad3d59bd9653f200f220920489ca2b5937696c31910160405180910390a3505050565b60006103f8825490565b6001600160a01b038416610fef5760405162461bcd60e51b81526004016103ca90612176565b336000610ffb856114ee565b90506000611008856114ee565b9050600086815260c9602090815260408083206001600160a01b038c1684529091529020548581101561104d5760405162461bcd60e51b81526004016103ca906121bb565b600087815260c9602090815260408083206001600160a01b038d8116855292528083208985039055908a1682528120805488929061108c908490612135565b909155505060408051888152602081018890526001600160a01b03808b16928c821692918816917fc3d58168c5ae7397731d063d5bbf3d657854427343f4c083240f7aacaa2d0f62910160405180910390a46110ec848a8a8a8a8a611539565b505050505050505050565b6001600160a01b03831661111d5760405162461bcd60e51b81526004016103ca90612205565b336000611129846114ee565b90506000611136846114ee565b604080516020808201835260009182905288825260c981528282206001600160a01b038b16835290522054909150848110156111845760405162461bcd60e51b81526004016103ca90612248565b600086815260c9602090815260408083206001600160a01b038b81168086529184528285208a8703905582518b81529384018a90529092908816917fc3d58168c5ae7397731d063d5bbf3d657854427343f4c083240f7aacaa2d0f62910160405180910390a4604080516020810190915260009052610eca565b60006001600160e01b03198216635a05180f60e01b14806103f857506103f88261161e565b6001600160a01b0384163b15610c1b5760405163bc197c8160e01b81526001600160a01b0385169063bc197c8190611267908990899088908890889060040161228c565b6020604051808303816000875af19250505080156112a2575060408051601f3d908101601f1916820190925261129f918101906122ea565b60015b61134e576112ae612307565b806308c379a0036112e757506112c2612323565b806112cd57506112e9565b8060405162461bcd60e51b81526004016103ca9190611a24565b505b60405162461bcd60e51b815260206004820152603460248201527f455243313135353a207472616e7366657220746f206e6f6e2d455243313135356044820152732932b1b2b4bb32b91034b6b83632b6b2b73a32b960611b60648201526084016103ca565b6001600160e01b0319811663bc197c8160e01b14610eca5760405162461bcd60e51b81526004016103ca9061239e565b6113888282610810565b61060e5761139581611653565b6113a0836020611665565b6040516020016113b19291906123e6565b60408051601f198184030181529082905262461bcd60e51b82526103ca91600401611a24565b6113e18282610810565b61060e5760008281526065602090815260408083206001600160a01b03851684529091529020805460ff191660011790556114193390565b6001600160a01b0316816001600160a01b0316837f2f8788117e7eff1d82e926ec794901d17c78024a50270940304540a733656f0d60405160405180910390a45050565b6000610809836001600160a01b038416611800565b61147c8282610810565b1561060e5760008281526065602090815260408083206001600160a01b0385168085529252808320805460ff1916905551339285917ff6391f5c32d9c69d2a47ea670b442974b53935d1edc7fd64eb21e047a839171b9190a45050565b6000610809836001600160a01b03841661184f565b6040805160018082528183019092526060916000919060208083019080368337019050509050828160008151811061152857611528612080565b602090810291909101015292915050565b6001600160a01b0384163b15610c1b5760405163f23a6e6160e01b81526001600160a01b0385169063f23a6e619061157d908990899088908890889060040161245b565b6020604051808303816000875af19250505080156115b8575060408051601f3d908101601f191682019092526115b5918101906122ea565b60015b6115c4576112ae612307565b6001600160e01b0319811663f23a6e6160e01b14610eca5760405162461bcd60e51b81526004016103ca9061239e565b600082600001828154811061160b5761160b612080565b9060005260206000200154905092915050565b60006001600160e01b03198216637965db0b60e01b14806103f857506301ffc9a760e01b6001600160e01b03198316146103f8565b60606103f86001600160a01b03831660145b606060006116748360026124a0565b61167f906002612135565b6001600160401b0381111561169657611696611a37565b6040519080825280601f01601f1916602001820160405280156116c0576020820181803683370190505b509050600360fc1b816000815181106116db576116db612080565b60200101906001600160f81b031916908160001a905350600f60fb1b8160018151811061170a5761170a612080565b60200101906001600160f81b031916908160001a905350600061172e8460026124a0565b611739906001612135565b90505b60018111156117b1576f181899199a1a9b1b9c1cb0b131b232b360811b85600f166010811061176d5761176d612080565b1a60f81b82828151811061178357611783612080565b60200101906001600160f81b031916908160001a90535060049490941c936117aa816124b7565b905061173c565b5083156108095760405162461bcd60e51b815260206004820181905260248201527f537472696e67733a20686578206c656e67746820696e73756666696369656e7460448201526064016103ca565b6000818152600183016020526040812054611847575081546001818101845560008481526020808220909301849055845484825282860190935260409020919091556103f8565b5060006103f8565b600081815260018301602052604081205480156119385760006118736001836124ce565b8554909150600090611887906001906124ce565b90508181146118ec5760008660000182815481106118a7576118a7612080565b90600052602060002001549050808760000184815481106118ca576118ca612080565b6000918252602080832090910192909255918252600188019052604090208390555b85548690806118fd576118fd6124e1565b6001900381819060005260206000200160009055905585600101600086815260200190815260200160002060009055600193505050506103f8565b60009150506103f8565b80356001600160a01b038116811461195957600080fd5b919050565b6000806040838503121561197157600080fd5b61197a83611942565b946020939093013593505050565b6001600160e01b031981168114610c2d57600080fd5b6000602082840312156119b057600080fd5b813561080981611988565b6000602082840312156119cd57600080fd5b5035919050565b60005b838110156119ef5781810151838201526020016119d7565b50506000910152565b60008151808452611a108160208601602086016119d4565b601f01601f19169290920160200192915050565b60208152600061080960208301846119f8565b634e487b7160e01b600052604160045260246000fd5b601f8201601f191681016001600160401b0381118282101715611a7257611a72611a37565b6040525050565b60006001600160401b03821115611a9257611a92611a37565b5060051b60200190565b600082601f830112611aad57600080fd5b8135611ab881611a79565b604051611ac58282611a4d565b80915082815260208101915060208360051b860101925085831115611ae957600080fd5b602085015b83811015611b06578035835260209283019201611aee565b5095945050505050565b600082601f830112611b2157600080fd5b81356001600160401b03811115611b3a57611b3a611a37565b604051611b51601f8301601f191660200182611a4d565b818152846020838601011115611b6657600080fd5b816020850160208301376000918101602001919091529392505050565b60008060008060808587031215611b9957600080fd5b611ba285611942565b935060208501356001600160401b03811115611bbd57600080fd5b611bc987828801611a9c565b93505060408501356001600160401b03811115611be557600080fd5b611bf187828801611a9c565b92505060608501356001600160401b03811115611c0d57600080fd5b611c1987828801611b10565b91505092959194509250565b600080600080600060a08688031215611c3d57600080fd5b611c4686611942565b9450611c5460208701611942565b935060408601356001600160401b03811115611c6f57600080fd5b611c7b88828901611a9c565b93505060608601356001600160401b03811115611c9757600080fd5b611ca388828901611a9c565b92505060808601356001600160401b03811115611cbf57600080fd5b611ccb88828901611b10565b9150509295509295909350565b60008060408385031215611ceb57600080fd5b82359150611cfb60208401611942565b90509250929050565b60008060408385031215611d1757600080fd5b82356001600160401b03811115611d2d57600080fd5b8301601f81018513611d3e57600080fd5b8035611d4981611a79565b604051611d568282611a4d565b80915082815260208101915060208360051b850101925087831115611d7a57600080fd5b6020840193505b82841015611da357611d9284611942565b825260209384019390910190611d81565b945050505060208301356001600160401b03811115611dc157600080fd5b611dcd85828601611a9c565b9150509250929050565b600081518084526020840193506020830160005b82811015611e09578151865260209586019590910190600101611deb565b5093949350505050565b6020815260006108096020830184611dd7565b600080600060608486031215611e3b57600080fd5b611e4484611942565b925060208401356001600160401b03811115611e5f57600080fd5b611e6b86828701611a9c565b92505060408401356001600160401b03811115611e8757600080fd5b611e9386828701611a9c565b9150509250925092565b60008060008060808587031215611eb357600080fd5b611ebc85611942565b9350602085013592506040850135915060608501356001600160401b03811115611c0d57600080fd5b60008060408385031215611ef857600080fd5b50508035926020909101359150565b60008060408385031215611f1a57600080fd5b611f2383611942565b915060208301358015158114611f3857600080fd5b809150509250929050565b60008060408385031215611f5657600080fd5b611f5f83611942565b9150611cfb60208401611942565b600080600080600060a08688031215611f8557600080fd5b611f8e86611942565b9450611f9c60208701611942565b9350604086013592506060860135915060808601356001600160401b03811115611cbf57600080fd5b600080600060608486031215611fda57600080fd5b611fe384611942565b95602085013595506040909401359392505050565b600181811c9082168061200c57607f821691505b60208210810361202c57634e487b7160e01b600052602260045260246000fd5b50919050565b6020808252602e908201527f455243313135353a2063616c6c6572206973206e6f7420746f6b656e206f776e60408201526d195c881bdc88185c1c1c9bdd995960921b606082015260800190565b634e487b7160e01b600052603260045260246000fd5b60208082526021908201527f455243313135353a206d696e7420746f20746865207a65726f206164647265736040820152607360f81b606082015260800190565b60208082526028908201527f455243313135353a2069647320616e6420616d6f756e7473206c656e677468206040820152670dad2e6dac2e8c6d60c31b606082015260800190565b634e487b7160e01b600052601160045260246000fd5b808201808211156103f8576103f861211f565b60408152600061215b6040830185611dd7565b828103602084015261216d8185611dd7565b95945050505050565b60208082526025908201527f455243313135353a207472616e7366657220746f20746865207a65726f206164604082015264647265737360d81b606082015260800190565b6020808252602a908201527f455243313135353a20696e73756666696369656e742062616c616e636520666f60408201526939103a3930b739b332b960b11b606082015260800190565b60208082526023908201527f455243313135353a206275726e2066726f6d20746865207a65726f206164647260408201526265737360e81b606082015260800190565b60208082526024908201527f455243313135353a206275726e20616d6f756e7420657863656564732062616c604082015263616e636560e01b606082015260800190565b6001600160a01b0386811682528516602082015260a0604082018190526000906122b890830186611dd7565b82810360608401526122ca8186611dd7565b905082810360808401526122de81856119f8565b98975050505050505050565b6000602082840312156122fc57600080fd5b815161080981611988565b600060033d11156123205760046000803e5060005160e01c5b90565b600060443d10156123315790565b6040513d600319016004823e80513d60248201116001600160401b038211171561235a57505090565b80820180516001600160401b03811115612375575050505090565b3d840160031901828201602001111561238f575050505090565b61072b60208285010185611a4d565b60208082526028908201527f455243313135353a204552433131353552656365697665722072656a656374656040820152676420746f6b656e7360c01b606082015260800190565b7f416363657373436f6e74726f6c3a206163636f756e742000000000000000000081526000835161241e8160178501602088016119d4565b7001034b99036b4b9b9b4b733903937b6329607d1b601791840191820152835161244f8160288401602088016119d4565b01602801949350505050565b6001600160a01b03868116825285166020820152604081018490526060810183905260a060808201819052600090612495908301846119f8565b979650505050505050565b80820281158282048414176103f8576103f861211f565b6000816124c6576124c661211f565b506000190190565b818103818111156103f8576103f861211f565b634e487b7160e01b600052603160045260246000fdfea26469706673582212200617706fec1740922e372829cb510b2ae1bd9ffbf1397b91facdf5e5494ca84e64736f6c634300081b0033496e697469616c697a61626c653a20636f6e7472616374206973206e6f7420699f2df0fed2c77648de5860a4cc508cd0818c85b8b8a1ab4ceeef8d981c8956a67164765a3c8bd2513bdfa0c90f1bee9606e920fbf2c9071f310263fbd818684ba26469706673582212202e7a585092bcfd473268b58cd315c400aee7551862bc5c3a59b221d7b868248f64736f6c634300081b0033",
  "linkReferences": {},
  "deployedLinkReferences": {}
}