{
  "_format": "hh-sol-artifact-1",
  "contractName": "ERC1155OnChain",
  "sourceName": "contracts/schain/tokens/ERC1155OnChain.sol",
  "abi": [
    {
      "inputs": [
        {
          "internalType": "string",
          "name": "uri",
          "type": "string"
        }
      ],
      "stateMutability": "nonpayable",
      "type": "constructor"
    },
    {
      "anonymous": false,
      "inputs": [
        {
          "indexed": true,
          "internalType": "address",
          "name": "account",
          "type": "address"
        },
        {
          "indexed": true,
          "internalType": "address",
          "name": "operator",
          "type": "address"
        },
        {
          "indexed": false,
          "internalType": "bool",
          "name": "approved",
          "type": "bool"
        }
      ],
      "name": "ApprovalForAll",
      "type": "event"
    },
    {
      "anonymous": false,
      "inputs": [
        {
          "indexed": false,
          "internalType": "uint8",
          "name": "version",
          "type": "uint8"
        }
      ],
      "name": "Initialized",
      "type": "event"
    },
    {
      "anonymous": false,
      "inputs": [
        {
          "indexed": true,
          "internalType": "bytes32",
          "name": "role",
          "type": "bytes32"
        },
        {
          "indexed": true,
          "internalType": "bytes32",
          "name": "previousAdminRole",
          "type": "bytes32"
        },
        {
          "indexed": true,
          "internalType": "bytes32",
          "name": "newAdminRole",
          "type": "bytes32"
        }
      ],
      "name": "RoleAdminChanged",
      "type": "event"
    },
    {
      "anonymous": false,
      "inputs": [
        {
          "indexed": true,
          "internalType": "bytes32",
          "name": "role",
          "type": "bytes32"
        },
        {
          "indexed": true,
          "internalType": "address",
          "name": "account",
          "type": "address"
        },
        {
          "indexed": true,
          "internalType": "address",
          "name": "sender",
          "type": "address"
        }
      ],
      "name": "RoleGranted",
      "type": "event"
    },
    {
      "anonymous": false,
      "inputs": [
        {
          "indexed": true,
          "internalType": "bytes32",
          "name": "role",
          "type": "bytes32"
        },
        {
          "indexed": true,
          "internalType": "address",
          "name": "account",
          "type": "address"
        },
        {
          "indexed": true,
          "internalType": "address",
          "name": "sender",
          "type": "address"
        }
      ],
      "name": "RoleRevoked",
      "type": "event"
    },
    {
      "anonymous": false,
      "inputs": [
        {
          "indexed": true,
          "internalType": "address",
          "name": "operator",
          "type": "address"
        },
        {
          "indexed": true,
          "internalType": "address",
          "name": "from",
          "type": "address"
        },
        {
          "indexed": true,
          "internalType": "address",
          "name": "to",
          "type": "address"
        },
        {
          "indexed": false,
          "internalType": "uint256[]",
          "name": "ids",
          "type": "uint256[]"
        },
        {
          "indexed": false,
          "internalType": "uint256[]",
          "name": "values",
          "type": "uint256[]"
        }
      ],
      "name": "TransferBatch",
      "type": "event"
    },
    {
      "anonymous": false,
      "inputs": [
        {
          "indexed": true,
          "internalType": "address",
          "name": "operator",
          "type": "address"
        },
        {
          "indexed": true,
          "internalType": "address",
          "name": "from",
          "type": "address"
        },
        {
          "indexed": true,
          "internalType": "address",
          "name": "to",
          "type": "address"
        },
        {
          "indexed": false,
          "internalType": "uint256",
          "name": "id",
          "type": "uint256"
        },
        {
          "indexed": false,
          "internalType": "uint256",
          "name": "value",
          "type": "uint256"
        }
      ],
      "name": "TransferSingle",
      "type": "event"
    },
    {
      "anonymous": false,
      "inputs": [
        {
          "indexed": false,
          "internalType": "string",
          "name": "value",
          "type": "string"
        },
        {
          "indexed": true,
          "internalType": "uint256",
          "name": "id",
          "type": "uint256"
        }
      ],
      "name": "URI",
      "type": "event"
    },
    {
      "inputs": [],
      "name": "DEFAULT_ADMIN_ROLE",
      "outputs": [
        {
          "internalType": "bytes32",
          "name": "",
          "type": "bytes32"
        }
      ],
      "stateMutability": "view",
      "type": "function"
    },
    {
      "inputs": [],
      "name": "MINTER_ROLE",
      "outputs": [
        {
          "internalType": "bytes32",
          "name": "",
          "type": "bytes32"
        }
      ],
      "stateMutability": "view",
      "type": "function"
    },
    {
      "inputs": [
        {
          "internalType": "address",
          "name": "account",
          "type": "address"
        },
        {
          "internalType": "uint256",
          "name": "id",
          "type": "uint256"
        }
      ],
      "name": "balanceOf",
      "outputs": [
        {
          "internalType": "uint256",
          "name": "",
          "type": "uint256"
        }
      ],
      "stateMutability": "view",
      "type": "function"
    },
    {
      "inputs": [
        {
          "internalType": "address[]",
          "name": "accounts",
          "type": "address[]"
        },
        {
          "internalType": "uint256[]",
          "name": "ids",
          "type": "uint256[]"
        }
      ],
      "name": "balanceOfBatch",
      "outputs": [
        {
          "internalType": "uint256[]",
          "name": "",
          "type": "uint256[]"
        }
      ],
      "stateMutability": "view",
      "type": "function"
    },
    {
      "inputs": [
        {
          "internalType": "address",
          "name": "account",
          "type": "address"
        },
        {
          "internalType": "uint256",
          "name": "id",
          "type": "uint256"
        },
        {
          "internalType": "uint256",
          "name": "value",
          "type": "uint256"
        }
      ],
      "name": "burn",
      "outputs": [],
      "stateMutability": "nonpayable",
      "type": "function"
    },
    {
      "inputs": [
        {
          "internalType": "address",
          "name": "account",
          "type": "address"
        },
        {
          "internalType": "uint256[]",
          "name": "ids",
          "type": "uint256[]"
        },
        {
          "internalType": "uint256[]",
          "name": "values",
          "type": "uint256[]"
        }
      ],
      "name": "burnBatch",
      "outputs": [],
      "stateMutability": "nonpayable",
      "type": "function"
    },
    {
      "inputs": [
        {
          "internalType": "bytes32",
          "name": "role",
          "type": "bytes32"
        }
      ],
      "name": "getRoleAdmin",
      "outputs": [
        {
          "internalType": "bytes32",
          "name": "",
          "type": "bytes32"
        }
      ],
      "stateMutability": "view",
      "type": "function"
    },
    {
      "inputs": [
        {
          "internalType": "bytes32",
          "name": "role",
          "type": "bytes32"
        },
        {
          "internalType": "uint256",
          "name": "index",
          "type": "uint256"
        }
      ],
      "name": "getRoleMember",
      "outputs": [
        {
          "internalType": "address",
          "name": "",
          "type": "address"
        }
      ],
      "stateMutability": "view",
      "type": "function"
    },
    {
      "inputs": [
        {
          "internalType": "bytes32",
          "name": "role",
          "type": "bytes32"
        }
      ],
      "name": "getRoleMemberCount",
      "outputs": [
        {
          "internalType": "uint256",
          "name": "",
          "type": "uint256"
        }
      ],
      "stateMutability": "view",
      "type": "function"
    },
    {
      "inputs": [
        {
          "internalType": "bytes32",
          "name": "role",
          "type": "bytes32"
        },
        {
          "internalType": "address",
          "name": "account",
          "type": "address"
        }
      ],
      "name": "grantRole",
      "outputs": [],
      "stateMutability": "nonpayable",
      "type": "function"
    },
    {
      "inputs": [
        {
          "internalType": "bytes32",
          "name": "role",
          "type": "bytes32"
        },
        {
          "internalType": "address",
          "name": "account",
          "type": "address"
        }
      ],
      "name": "hasRole",
      "outputs": [
        {
          "internalType": "bool",
          "name": "",
          "type": "bool"
        }
      ],
      "stateMutability": "view",
      "type": "function"
    },
    {
      "inputs": [
        {
          "internalType": "address",
          "name": "account",
          "type": "address"
        },
        {
          "internalType": "address",
          "name": "operator",
          "type": "address"
        }
      ],
      "name": "isApprovedForAll",
      "outputs": [
        {
          "internalType": "bool",
          "name": "",
          "type": "bool"
        }
      ],
      "stateMutability": "view",
      "type": "function"
    },
    {
      "inputs": [
        {
          "internalType": "address",
          "name": "account",
          "type": "address"
        },
        {
          "internalType": "uint256",
          "name": "id",
          "type": "uint256"
        },
        {
          "internalType": "uint256",
          "name": "amount",
          "type": "uint256"
        },
        {
          "internalType": "bytes",
          "name": "data",
          "type": "bytes"
        }
      ],
      "name": "mint",
      "outputs": [],
      "stateMutability": "nonpayable",
      "type": "function"
    },
    {
      "inputs": [
        {
          "internalType": "address",
          "name": "account",
          "type": "address"
        },
        {
          "internalType": "uint256[]",
          "name": "ids",
          "type": "uint256[]"
        },
        {
          "internalType": "uint256[]",
          "name": "amounts",
          "type": "uint256[]"
        },
        {
          "internalType": "bytes",
          "name": "data",
          "type": "bytes"
        }
      ],
      "name": "mintBatch",
      "outputs": [],
      "stateMutability": "nonpayable",
      "type": "function"
    },
    {
      "inputs": [
        {
          "internalType": "bytes32",
          "name": "role",
          "type": "bytes32"
        },
        {
          "internalType": "address",
          "name": "account",
          "type": "address"
        }
      ],
      "name": "renounceRole",
      "outputs": [],
      "stateMutability": "nonpayable",
      "type": "function"
    },
    {
      "inputs": [
        {
          "internalType": "bytes32",
          "name": "role",
          "type": "bytes32"
        },
        {
          "internalType": "address",
          "name": "account",
          "type": "address"
        }
      ],
      "name": "revokeRole",
      "outputs": [],
      "stateMutability": "nonpayable",
      "type": "function"
    },
    {
      "inputs": [
        {
          "internalType": "address",
          "name": "from",
          "type": "address"
        },
        {
          "internalType": "address",
          "name": "to",
          "type": "address"
        },
        {
          "internalType": "uint256[]",
          "name": "ids",
          "type": "uint256[]"
        },
        {
          "internalType": "uint256[]",
          "name": "amounts",
          "type": "uint256[]"
        },
        {
          "internalType": "bytes",
          "name": "data",
          "type": "bytes"
        }
      ],
      "name": "safeBatchTransferFrom",
      "outputs": [],
      "stateMutability": "nonpayable",
      "type": "function"
    },
    {
      "inputs": [
        {
          "internalType": "address",
          "name": "from",
          "type": "address"
        },
        {
          "internalType": "address",
          "name": "to",
          "type": "address"
        },
        {
          "internalType": "uint256",
          "name": "id",
          "type": "uint256"
        },
        {
          "internalType": "uint256",
          "name": "amount",
          "type": "uint256"
        },
        {
          "internalType": "bytes",
          "name": "data",
          "type": "bytes"
        }
      ],
      "name": "safeTransferFrom",
      "outputs": [],
      "stateMutability": "nonpayable",
      "type": "function"
    },
    {
      "inputs": [
        {
          "internalType": "address",
          "name": "operator",
          "type": "address"
        },
        {
          "internalType": "bool",
          "name": "approved",
          "type": "bool"
        }
      ],
      "name": "setApprovalForAll",
      "outputs": [],
      "stateMutability": "nonpayable",
      "type": "function"
    },
    {
      "inputs": [
        {
          "internalType": "bytes4",
          "name": "interfaceId",
          "type": "bytes4"
        }
      ],
      "name": "supportsInterface",
      "outputs": [
        {
          "internalType": "bool",
          "name": "",
          "type": "bool"
        }
      ],
      "stateMutability": "view",
      "type": "function"
    },
    {
      "inputs": [
        {
          "internalType": "uint256",
          "name": "",
          "type": "uint256"
        }
      ],
      "name": "uri",
      "outputs": [
        {
          "internalType": "string",
          "name": "",
          "type": "string"
        }
      ],
      "stateMutability": "view",
      "type": "function"
    }
  ],
  "bytecode": "0x608060405234801561001057600080fd5b50604051612beb380380612beb83398101604081905261002f9161045d565b600054610100900460ff161580801561004f5750600054600160ff909116105b806100695750303b158015610069575060005460ff166001145b6100d15760405162461bcd60e51b815260206004820152602e60248201527f496e697469616c697a61626c653a20636f6e747261637420697320616c72656160448201526d191e481a5b9a5d1a585b1a5e995960921b60648201526084015b60405180910390fd5b6000805460ff1916600117905580156100f4576000805461ff0019166101001790555b6100fc61018a565b610105826101e5565b61010d61018a565b610125600080516020612bcb8339815191528061024a565b61013d600080516020612bcb83398151915233610295565b8015610183576000805461ff0019169055604051600181527f7f26b83ff96e1f2b6a682f133852f6798a09c465da95921460cefb38474024989060200160405180910390a15b505061066f565b600054610100900460ff166101e35760405162461bcd60e51b815260206004820152602b6024820152600080516020612bab83398151915260448201526a6e697469616c697a696e6760a81b60648201526084016100c8565b565b600054610100900460ff1661023e5760405162461bcd60e51b815260206004820152602b6024820152600080516020612bab83398151915260448201526a6e697469616c697a696e6760a81b60648201526084016100c8565b610247816102a3565b50565b600082815260656020526040808220600101805490849055905190918391839186917fbd79b86ffe0ab8e8776151514217cd7cacd52c909f66475c3af44e129f0b00ff9190a4505050565b61029f8282610305565b5050565b600054610100900460ff166102fc5760405162461bcd60e51b815260206004820152602b6024820152600080516020612bab83398151915260448201526a6e697469616c697a696e6760a81b60648201526084016100c8565b6102478161032c565b61030f8282610338565b600082815260976020526040902061032790826103da565b505050565b60cb61029f82826105b1565b60008281526065602090815260408083206001600160a01b038516845290915290205460ff1661029f5760008281526065602090815260408083206001600160a01b03851684529091529020805460ff191660011790556103963390565b6001600160a01b0316816001600160a01b0316837f2f8788117e7eff1d82e926ec794901d17c78024a50270940304540a733656f0d60405160405180910390a45050565b60006103ef836001600160a01b0384166103f8565b90505b92915050565b600081815260018301602052604081205461043f575081546001818101845560008481526020808220909301849055845484825282860190935260409020919091556103f2565b5060006103f2565b634e487b7160e01b600052604160045260246000fd5b60006020828403121561046f57600080fd5b81516001600160401b0381111561048557600080fd5b8201601f8101841361049657600080fd5b80516001600160401b038111156104af576104af610447565b604051601f8201601f19908116603f011681016001600160401b03811182821017156104dd576104dd610447565b6040528181528282016020018610156104f557600080fd5b60005b82811015610514576020818501810151838301820152016104f8565b50600091810160200191909152949350505050565b600181811c9082168061053d57607f821691505b60208210810361055d57634e487b7160e01b600052602260045260246000fd5b50919050565b601f82111561032757806000526020600020601f840160051c8101602085101561058a5750805b601f840160051c820191505b818110156105aa5760008155600101610596565b5050505050565b81516001600160401b038111156105ca576105ca610447565b6105de816105d88454610529565b84610563565b6020601f82116001811461061257600083156105fa5750848201515b600019600385901b1c1916600184901b1784556105aa565b600084815260208120601f198516915b828110156106425787850151825560209485019460019092019101610622565b50848210156106605786840151600019600387901b60f8161c191681555b50505050600190811b01905550565b61252d8061067e6000396000f3fe608060405234801561001057600080fd5b50600436106101365760003560e01c8063731133e9116100b8578063ca15c8731161007c578063ca15c873146102b4578063d5391393146102c7578063d547741f146102ee578063e985e9c514610301578063f242432a1461033d578063f5298aca1461035057600080fd5b8063731133e9146102485780639010d07c1461025b57806391d1485414610286578063a217fddf14610299578063a22cb465146102a157600080fd5b80632eb2c2d6116100ff5780632eb2c2d6146101dc5780632f2ff15d146101ef57806336568abe146102025780634e1273f4146102155780636b20c4541461023557600080fd5b8062fdd58e1461013b57806301ffc9a7146101615780630e89341c146101845780631f7fdffa146101a4578063248a9ca3146101b9575b600080fd5b61014e61014936600461195e565b610363565b6040519081526020015b60405180910390f35b61017461016f36600461199e565b6103fe565b6040519015158152602001610158565b6101976101923660046119bb565b610409565b6040516101589190611a24565b6101b76101b2366004611b83565b61049d565b005b61014e6101c73660046119bb565b60009081526065602052604090206001015490565b6101b76101ea366004611c25565b61051e565b6101b76101fd366004611cd8565b61056a565b6101b7610210366004611cd8565b610594565b610228610223366004611d04565b610612565b6040516101589190611e13565b6101b7610243366004611e26565b610733565b6101b7610256366004611e9d565b610776565b61026e610269366004611ee5565b6107f1565b6040516001600160a01b039091168152602001610158565b610174610294366004611cd8565b610810565b61014e600081565b6101b76102af366004611f07565b61083b565b61014e6102c23660046119bb565b610846565b61014e7f9f2df0fed2c77648de5860a4cc508cd0818c85b8b8a1ab4ceeef8d981c8956a681565b6101b76102fc366004611cd8565b61085d565b61017461030f366004611f43565b6001600160a01b03918216600090815260ca6020908152604080832093909416825291909152205460ff1690565b6101b761034b366004611f6d565b610882565b6101b761035e366004611fc5565b6108c7565b60006001600160a01b0383166103d35760405162461bcd60e51b815260206004820152602a60248201527f455243313135353a2061646472657373207a65726f206973206e6f742061207660448201526930b634b21037bbb732b960b11b60648201526084015b60405180910390fd5b50600081815260c9602090815260408083206001600160a01b03861684529091529020545b92915050565b60006103f88261090a565b606060cb805461041890611ff8565b80601f016020809104026020016040519081016040528092919081815260200182805461044490611ff8565b80156104915780601f1061046657610100808354040283529160200191610491565b820191906000526020600020905b81548152906001019060200180831161047457829003601f168201915b50505050509050919050565b6104c77f9f2df0fed2c77648de5860a4cc508cd0818c85b8b8a1ab4ceeef8d981c8956a633610810565b61050c5760405162461bcd60e51b815260206004820152601660248201527529b2b73232b91034b9903737ba10309026b4b73a32b960511b60448201526064016103ca565b6105188484848461094a565b50505050565b6001600160a01b03851633148061053a575061053a853361030f565b6105565760405162461bcd60e51b81526004016103ca90612032565b6105638585858585610a8b565b5050505050565b60008281526065602052604090206001015461058581610c23565b61058f8383610c30565b505050565b6001600160a01b03811633146106045760405162461bcd60e51b815260206004820152602f60248201527f416363657373436f6e74726f6c3a2063616e206f6e6c792072656e6f756e636560448201526e103937b632b9903337b91039b2b63360891b60648201526084016103ca565b61060e8282610c52565b5050565b606081518351146106775760405162461bcd60e51b815260206004820152602960248201527f455243313135353a206163636f756e747320616e6420696473206c656e677468604482015268040dad2e6dac2e8c6d60bb1b60648201526084016103ca565b600083516001600160401b0381111561069257610692611a37565b6040519080825280602002602001820160405280156106bb578160200160208202803683370190505b50905060005b845181101561072b576107068582815181106106df576106df612080565b60200260200101518583815181106106f9576106f9612080565b6020026020010151610363565b82828151811061071857610718612080565b60209081029190910101526001016106c1565b509392505050565b6001600160a01b03831633148061074f575061074f833361030f565b61076b5760405162461bcd60e51b81526004016103ca90612032565b61058f838383610c74565b6107a07f9f2df0fed2c77648de5860a4cc508cd0818c85b8b8a1ab4ceeef8d981c8956a633610810565b6107e55760405162461bcd60e51b815260206004820152601660248201527529b2b73232b91034b9903737ba10309026b4b73a32b960511b60448201526064016103ca565b61051884848484610df7565b60008281526097602052604081206108099083610ed3565b9392505050565b60009182526065602090815260408084206001600160a01b0393909316845291905290205460ff1690565b61060e338383610edf565b60008181526097602052604081206103f890610fbf565b60008281526065602052604090206001015461087881610c23565b61058f8383610c52565b6001600160a01b03851633148061089e575061089e853361030f565b6108ba5760405162461bcd60e51b81526004016103ca90612032565b6105638585858585610fc9565b6001600160a01b0383163314806108e357506108e3833361030f565b6108ff5760405162461bcd60e51b81526004016103ca90612032565b61058f8383836110f7565b60006001600160e01b03198216636cdb3d1360e11b148061093b57506001600160e01b031982166303a24d0760e21b145b806103f857506103f8826111fe565b6001600160a01b0384166109705760405162461bcd60e51b81526004016103ca90612096565b81518351146109915760405162461bcd60e51b81526004016103ca906120d7565b3360005b8451811015610a23578381815181106109b0576109b0612080565b602002602001015160c960008784815181106109ce576109ce612080565b602002602001015181526020019081526020016000206000886001600160a01b03166001600160a01b031681526020019081526020016000206000828254610a169190612135565b9091555050600101610995565b50846001600160a01b031660006001600160a01b0316826001600160a01b03167f4a39dc06d4c0dbc64b70af90fd698a233a518aa5d07e595d983b8c0526c8f7fb8787604051610a74929190612148565b60405180910390a461056381600087878787611223565b8151835114610aac5760405162461bcd60e51b81526004016103ca906120d7565b6001600160a01b038416610ad25760405162461bcd60e51b81526004016103ca90612176565b3360005b8451811015610bb5576000858281518110610af357610af3612080565b602002602001015190506000858381518110610b1157610b11612080565b602090810291909101810151600084815260c9835260408082206001600160a01b038e168352909352919091205490915081811015610b625760405162461bcd60e51b81526004016103ca906121bb565b600083815260c9602090815260408083206001600160a01b038e8116855292528083208585039055908b16825281208054849290610ba1908490612135565b909155505060019093019250610ad6915050565b50846001600160a01b0316866001600160a01b0316826001600160a01b03167f4a39dc06d4c0dbc64b70af90fd698a233a518aa5d07e595d983b8c0526c8f7fb8787604051610c05929190612148565b60405180910390a4610c1b818787878787611223565b505050505050565b610c2d813361137e565b50565b610c3a82826113d7565b600082815260976020526040902061058f908261145d565b610c5c8282611472565b600082815260976020526040902061058f90826114d9565b6001600160a01b038316610c9a5760405162461bcd60e51b81526004016103ca90612205565b8051825114610cbb5760405162461bcd60e51b81526004016103ca906120d7565b604080516020810190915260009081905233905b8351811015610d8a576000848281518110610cec57610cec612080565b602002602001015190506000848381518110610d0a57610d0a612080565b602090810291909101810151600084815260c9835260408082206001600160a01b038c168352909352919091205490915081811015610d5b5760405162461bcd60e51b81526004016103ca90612248565b600092835260c9602090815260408085206001600160a01b038b16865290915290922091039055600101610ccf565b5060006001600160a01b0316846001600160a01b0316826001600160a01b03167f4a39dc06d4c0dbc64b70af90fd698a233a518aa5d07e595d983b8c0526c8f7fb8686604051610ddb929190612148565b60405180910390a4604080516020810190915260009052610518565b6001600160a01b038416610e1d5760405162461bcd60e51b81526004016103ca90612096565b336000610e29856114ee565b90506000610e36856114ee565b9050600086815260c9602090815260408083206001600160a01b038b16845290915281208054879290610e6a908490612135565b909155505060408051878152602081018790526001600160a01b03808a1692600092918716917fc3d58168c5ae7397731d063d5bbf3d657854427343f4c083240f7aacaa2d0f62910160405180910390a4610eca83600089898989611539565b50505050505050565b600061080983836115f4565b816001600160a01b0316836001600160a01b031603610f525760405162461bcd60e51b815260206004820152602960248201527f455243313135353a2073657474696e6720617070726f76616c20737461747573604482015268103337b91039b2b63360b91b60648201526084016103ca565b6001600160a01b03838116600081815260ca6020908152604080832094871680845294825291829020805460ff191686151590811790915591519182527f17307eab39ab6107e8899845ad3d59bd9653f200f220920489ca2b5937696c31910160405180910390a3505050565b60006103f8825490565b6001600160a01b038416610fef5760405162461bcd60e51b81526004016103ca90612176565b336000610ffb856114ee565b90506000611008856114ee565b9050600086815260c9602090815260408083206001600160a01b038c1684529091529020548581101561104d5760405162461bcd60e51b81526004016103ca906121bb565b600087815260c9602090815260408083206001600160a01b038d8116855292528083208985039055908a1682528120805488929061108c908490612135565b909155505060408051888152602081018890526001600160a01b03808b16928c821692918816917fc3d58168c5ae7397731d063d5bbf3d657854427343f4c083240f7aacaa2d0f62910160405180910390a46110ec848a8a8a8a8a611539565b505050505050505050565b6001600160a01b03831661111d5760405162461bcd60e51b81526004016103ca90612205565b336000611129846114ee565b90506000611136846114ee565b604080516020808201835260009182905288825260c981528282206001600160a01b038b16835290522054909150848110156111845760405162461bcd60e51b81526004016103ca90612248565b600086815260c9602090815260408083206001600160a01b038b81168086529184528285208a8703905582518b81529384018a90529092908816917fc3d58168c5ae7397731d063d5bbf3d657854427343f4c083240f7aacaa2d0f62910160405180910390a4604080516020810190915260009052610eca565b60006001600160e01b03198216635a05180f60e01b14806103f857506103f88261161e565b6001600160a01b0384163b15610c1b5760405163bc197c8160e01b81526001600160a01b0385169063bc197c8190611267908990899088908890889060040161228c565b6020604051808303816000875af19250505080156112a2575060408051601f3d908101601f1916820190925261129f918101906122ea565b60015b61134e576112ae612307565b806308c379a0036112e757506112c2612323565b806112cd57506112e9565b8060405162461bcd60e51b81526004016103ca9190611a24565b505b60405162461bcd60e51b815260206004820152603460248201527f455243313135353a207472616e7366657220746f206e6f6e2d455243313135356044820152732932b1b2b4bb32b91034b6b83632b6b2b73a32b960611b60648201526084016103ca565b6001600160e01b0319811663bc197c8160e01b14610eca5760405162461bcd60e51b81526004016103ca9061239e565b6113888282610810565b61060e5761139581611653565b6113a0836020611665565b6040516020016113b19291906123e6565b60408051601f198184030181529082905262461bcd60e51b82526103ca91600401611a24565b6113e18282610810565b61060e5760008281526065602090815260408083206001600160a01b03851684529091529020805460ff191660011790556114193390565b6001600160a01b0316816001600160a01b0316837f2f8788117e7eff1d82e926ec794901d17c78024a50270940304540a733656f0d60405160405180910390a45050565b6000610809836001600160a01b038416611800565b61147c8282610810565b1561060e5760008281526065602090815260408083206001600160a01b0385168085529252808320805460ff1916905551339285917ff6391f5c32d9c69d2a47ea670b442974b53935d1edc7fd64eb21e047a839171b9190a45050565b6000610809836001600160a01b03841661184f565b6040805160018082528183019092526060916000919060208083019080368337019050509050828160008151811061152857611528612080565b602090810291909101015292915050565b6001600160a01b0384163b15610c1b5760405163f23a6e6160e01b81526001600160a01b0385169063f23a6e619061157d908990899088908890889060040161245b565b6020604051808303816000875af19250505080156115b8575060408051601f3d908101601f191682019092526115b5918101906122ea565b60015b6115c4576112ae612307565b6001600160e01b0319811663f23a6e6160e01b14610eca5760405162461bcd60e51b81526004016103ca9061239e565b600082600001828154811061160b5761160b612080565b9060005260206000200154905092915050565b60006001600160e01b03198216637965db0b60e01b14806103f857506301ffc9a760e01b6001600160e01b03198316146103f8565b60606103f86001600160a01b03831660145b606060006116748360026124a0565b61167f906002612135565b6001600160401b0381111561169657611696611a37565b6040519080825280601f01601f1916602001820160405280156116c0576020820181803683370190505b509050600360fc1b816000815181106116db576116db612080565b60200101906001600160f81b031916908160001a905350600f60fb1b8160018151811061170a5761170a612080565b60200101906001600160f81b031916908160001a905350600061172e8460026124a0565b611739906001612135565b90505b60018111156117b1576f181899199a1a9b1b9c1cb0b131b232b360811b85600f166010811061176d5761176d612080565b1a60f81b82828151811061178357611783612080565b60200101906001600160f81b031916908160001a90535060049490941c936117aa816124b7565b905061173c565b5083156108095760405162461bcd60e51b815260206004820181905260248201527f537472696e67733a20686578206c656e67746820696e73756666696369656e7460448201526064016103ca565b6000818152600183016020526040812054611847575081546001818101845560008481526020808220909301849055845484825282860190935260409020919091556103f8565b5060006103f8565b600081815260018301602052604081205480156119385760006118736001836124ce565b8554909150600090611887906001906124ce565b90508181146118ec5760008660000182815481106118a7576118a7612080565b90600052602060002001549050808760000184815481106118ca576118ca612080565b6000918252602080832090910192909255918252600188019052604090208390555b85548690806118fd576118fd6124e1565b6001900381819060005260206000200160009055905585600101600086815260200190815260200160002060009055600193505050506103f8565b60009150506103f8565b80356001600160a01b038116811461195957600080fd5b919050565b6000806040838503121561197157600080fd5b61197a83611942565b946020939093013593505050565b6001600160e01b031981168114610c2d57600080fd5b6000602082840312156119b057600080fd5b813561080981611988565b6000602082840312156119cd57600080fd5b5035919050565b60005b838110156119ef5781810151838201526020016119d7565b50506000910152565b60008151808452611a108160208601602086016119d4565b601f01601f19169290920160200192915050565b60208152600061080960208301846119f8565b634e487b7160e01b600052604160045260246000fd5b601f8201601f191681016001600160401b0381118282101715611a7257611a72611a37565b6040525050565b60006001600160401b03821115611a9257611a92611a37565b5060051b60200190565b600082601f830112611aad57600080fd5b8135611ab881611a79565b604051611ac58282611a4d565b80915082815260208101915060208360051b860101925085831115611ae957600080fd5b602085015b83811015611b06578035835260209283019201611aee565b5095945050505050565b600082601f830112611b2157600080fd5b81356001600160401b03811115611b3a57611b3a611a37565b604051611b51601f8301601f191660200182611a4d565b818152846020838601011115611b6657600080fd5b816020850160208301376000918101602001919091529392505050565b60008060008060808587031215611b9957600080fd5b611ba285611942565b935060208501356001600160401b03811115611bbd57600080fd5b611bc987828801611a9c565b93505060408501356001600160401b03811115611be557600080fd5b611bf187828801611a9c565b92505060608501356001600160401b03811115611c0d57600080fd5b611c1987828801611b10565b91505092959194509250565b600080600080600060a08688031215611c3d57600080fd5b611c4686611942565b9450611c5460208701611942565b935060408601356001600160401b03811115611c6f57600080fd5b611c7b88828901611a9c565b93505060608601356001600160401b03811115611c9757600080fd5b611ca388828901611a9c565b92505060808601356001600160401b03811115611cbf57600080fd5b611ccb88828901611b10565b9150509295509295909350565b60008060408385031215611ceb57600080fd5b82359150611cfb60208401611942565b90509250929050565b60008060408385031215611d1757600080fd5b82356001600160401b03811115611d2d57600080fd5b8301601f81018513611d3e57600080fd5b8035611d4981611a79565b604051611d568282611a4d565b80915082815260208101915060208360051b850101925087831115611d7a57600080fd5b6020840193505b82841015611da357611d9284611942565b825260209384019390910190611d81565b945050505060208301356001600160401b03811115611dc157600080fd5b611dcd85828601611a9c565b9150509250929050565b600081518084526020840193506020830160005b82811015611e09578151865260209586019590910190600101611deb565b5093949350505050565b6020815260006108096020830184611dd7565b600080600060608486031215611e3b57600080fd5b611e4484611942565b925060208401356001600160401b03811115611e5f57600080fd5b611e6b86828701611a9c565b92505060408401356001600160401b03811115611e8757600080fd5b611e9386828701611a9c565b9150509250925092565b60008060008060808587031215611eb357600080fd5b611ebc85611942565b9350602085013592506040850135915060608501356001600160401b03811115611c0d57600080fd5b60008060408385031215611ef857600080fd5b50508035926020909101359150565b60008060408385031215611f1a57600080fd5b611f2383611942565b915060208301358015158114611f3857600080fd5b809150509250929050565b60008060408385031215611f5657600080fd5b611f5f83611942565b9150611cfb60208401611942565b600080600080600060a08688031215611f8557600080fd5b611f8e86611942565b9450611f9c60208701611942565b9350604086013592506060860135915060808601356001600160401b03811115611cbf57600080fd5b600080600060608486031215611fda57600080fd5b611fe384611942565b95602085013595506040909401359392505050565b600181811c9082168061200c57607f821691505b60208210810361202c57634e487b7160e01b600052602260045260246000fd5b50919050565b6020808252602e908201527f455243313135353a2063616c6c6572206973206e6f7420746f6b656e206f776e60408201526d195c881bdc88185c1c1c9bdd995960921b606082015260800190565b634e487b7160e01b600052603260045260246000fd5b60208082526021908201527f455243313135353a206d696e7420746f20746865207a65726f206164647265736040820152607360f81b606082015260800190565b60208082526028908201527f455243313135353a2069647320616e6420616d6f756e7473206c656e677468206040820152670dad2e6dac2e8c6d60c31b606082015260800190565b634e487b7160e01b600052601160045260246000fd5b808201808211156103f8576103f861211f565b60408152600061215b6040830185611dd7565b828103602084015261216d8185611dd7565b95945050505050565b60208082526025908201527f455243313135353a207472616e7366657220746f20746865207a65726f206164604082015264647265737360d81b606082015260800190565b6020808252602a908201527f455243313135353a20696e73756666696369656e742062616c616e636520666f60408201526939103a3930b739b332b960b11b606082015260800190565b60208082526023908201527f455243313135353a206275726e2066726f6d20746865207a65726f206164647260408201526265737360e81b606082015260800190565b60208082526024908201527f455243313135353a206275726e20616d6f756e7420657863656564732062616c604082015263616e636560e01b606082015260800190565b6001600160a01b0386811682528516602082015260a0604082018190526000906122b890830186611dd7565b82810360608401526122ca8186611dd7565b905082810360808401526122de81856119f8565b98975050505050505050565b6000602082840312156122fc57600080fd5b815161080981611988565b600060033d11156123205760046000803e5060005160e01c5b90565b600060443d10156123315790565b6040513d600319016004823e80513d60248201116001600160401b038211171561235a57505090565b80820180516001600160401b03811115612375575050505090565b3d840160031901828201602001111561238f575050505090565b61072b60208285010185611a4d565b60208082526028908201527f455243313135353a204552433131353552656365697665722072656a656374656040820152676420746f6b656e7360c01b606082015260800190565b7f416363657373436f6e74726f6c3a206163636f756e742000000000000000000081526000835161241e8160178501602088016119d4565b7001034b99036b4b9b9b4b733903937b6329607d1b601791840191820152835161244f8160288401602088016119d4565b01602801949350505050565b6001600160a01b03868116825285166020820152604081018490526060810183905260a060808201819052600090612495908301846119f8565b979650505050505050565b80820281158282048414176103f8576103f861211f565b6000816124c6576124c661211f565b506000190190565b818103818111156103f8576103f861211f565b634e487b7160e01b600052603160045260246000fdfea26469706673582212200617706fec1740922e372829cb510b2ae1bd9ffbf1397b91facdf5e5494ca84e64736f6c634300081b0033496e697469616c697a61626c653a20636f6e7472616374206973206e6f7420699f2df0fed2c77648de5860a4cc508cd0818c85b8b8a1ab4ceeef8d981c8956a6",
  "linkReferences": {},
  "deployedLinkReferences": {}
}