{
  "_format": "hh-sol-artifact-1",
  "contractName": "TokenManagerLinker",
  "sourceName": "contracts/schain/TokenManagerLinker.sol",
  "abi": [
    {
      "anonymous": false,
      "inputs": [
        {
          "indexed": false,
          "internalType": "uint8",
          "name": "version",
          "type": "uint8"
        }
      ],
      "name": "Initialized",
      "type": "event"
    },
    {
      "anonymous": false,
      "inputs": [
        {
          "indexed": true,
          "internalType": "bytes32",
          "name": "role",
          "type": "bytes32"
        },
        {
          "indexed": true,
          "internalType": "bytes32",
          "name": "previousAdminRole",
          "type": "bytes32"
        },
        {
          "indexed": true,
          "internalType": "bytes32",
          "name": "newAdminRole",
          "type": "bytes32"
        }
      ],
      "name": "RoleAdminChanged",
      "type": "event"
    },
    {
      "anonymous": false,
      "inputs": [
        {
          "indexed": true,
          "internalType": "bytes32",
          "name": "role",
          "type": "bytes32"
        },
        {
          "indexed": true,
          "internalType": "address",
          "name": "account",
          "type": "address"
        },
        {
          "indexed": true,
          "internalType": "address",
          "name": "sender",
          "type": "address"
        }
      ],
      "name": "RoleGranted",
      "type": "event"
    },
    {
      "anonymous": false,
      "inputs": [
        {
          "indexed": true,
          "internalType": "bytes32",
          "name": "role",
          "type": "bytes32"
        },
        {
          "indexed": true,
          "internalType": "address",
          "name": "account",
          "type": "address"
        },
        {
          "indexed": true,
          "internalType": "address",
          "name": "sender",
          "type": "address"
        }
      ],
      "name": "RoleRevoked",
      "type": "event"
    },
    {
      "inputs": [],
      "name": "DEFAULT_ADMIN_ROLE",
      "outputs": [
        {
          "internalType": "bytes32",
          "name": "",
          "type": "bytes32"
        }
      ],
      "stateMutability": "view",
      "type": "function"
    },
    {
      "inputs": [],
      "name": "MAINNET_HASH",
      "outputs": [
        {
          "internalType": "bytes32",
          "name": "",
          "type": "bytes32"
        }
      ],
      "stateMutability": "view",
      "type": "function"
    },
    {
      "inputs": [],
      "name": "MAINNET_NAME",
      "outputs": [
        {
          "internalType": "string",
          "name": "",
          "type": "string"
        }
      ],
      "stateMutability": "view",
      "type": "function"
    },
    {
      "inputs": [],
      "name": "REGISTRAR_ROLE",
      "outputs": [
        {
          "internalType": "bytes32",
          "name": "",
          "type": "bytes32"
        }
      ],
      "stateMutability": "view",
      "type": "function"
    },
    {
      "inputs": [
        {
          "internalType": "string",
          "name": "schainName",
          "type": "string"
        }
      ],
      "name": "connectSchain",
      "outputs": [],
      "stateMutability": "nonpayable",
      "type": "function"
    },
    {
      "inputs": [
        {
          "internalType": "string",
          "name": "schainName",
          "type": "string"
        }
      ],
      "name": "disconnectSchain",
      "outputs": [],
      "stateMutability": "nonpayable",
      "type": "function"
    },
    {
      "inputs": [
        {
          "internalType": "bytes32",
          "name": "role",
          "type": "bytes32"
        }
      ],
      "name": "getRoleAdmin",
      "outputs": [
        {
          "internalType": "bytes32",
          "name": "",
          "type": "bytes32"
        }
      ],
      "stateMutability": "view",
      "type": "function"
    },
    {
      "inputs": [
        {
          "internalType": "bytes32",
          "name": "role",
          "type": "bytes32"
        },
        {
          "internalType": "uint256",
          "name": "index",
          "type": "uint256"
        }
      ],
      "name": "getRoleMember",
      "outputs": [
        {
          "internalType": "address",
          "name": "",
          "type": "address"
        }
      ],
      "stateMutability": "view",
      "type": "function"
    },
    {
      "inputs": [
        {
          "internalType": "bytes32",
          "name": "role",
          "type": "bytes32"
        }
      ],
      "name": "getRoleMemberCount",
      "outputs": [
        {
          "internalType": "uint256",
          "name": "",
          "type": "uint256"
        }
      ],
      "stateMutability": "view",
      "type": "function"
    },
    {
      "inputs": [
        {
          "internalType": "bytes32",
          "name": "role",
          "type": "bytes32"
        },
        {
          "internalType": "address",
          "name": "account",
          "type": "address"
        }
      ],
      "name": "grantRole",
      "outputs": [],
      "stateMutability": "nonpayable",
      "type": "function"
    },
    {
      "inputs": [
        {
          "internalType": "bytes32",
          "name": "role",
          "type": "bytes32"
        },
        {
          "internalType": "address",
          "name": "account",
          "type": "address"
        }
      ],
      "name": "hasRole",
      "outputs": [
        {
          "internalType": "bool",
          "name": "",
          "type": "bool"
        }
      ],
      "stateMutability": "view",
      "type": "function"
    },
    {
      "inputs": [
        {
          "internalType": "string",
          "name": "schainName",
          "type": "string"
        }
      ],
      "name": "hasSchain",
      "outputs": [
        {
          "internalType": "bool",
          "name": "connected",
          "type": "bool"
        }
      ],
      "stateMutability": "view",
      "type": "function"
    },
    {
      "inputs": [
        {
          "internalType": "address",
          "name": "tokenManager",
          "type": "address"
        }
      ],
      "name": "hasTokenManager",
      "outputs": [
        {
          "internalType": "bool",
          "name": "",
          "type": "bool"
        }
      ],
      "stateMutability": "view",
      "type": "function"
    },
    {
      "inputs": [
        {
          "internalType": "contract IMessageProxyForSchain",
          "name": "newMessageProxyAddress",
          "type": "address"
        },
        {
          "internalType": "address",
          "name": "linker",
          "type": "address"
        }
      ],
      "name": "initialize",
      "outputs": [],
      "stateMutability": "nonpayable",
      "type": "function"
    },
    {
      "inputs": [],
      "name": "linkerAddress",
      "outputs": [
        {
          "internalType": "address",
          "name": "",
          "type": "address"
        }
      ],
      "stateMutability": "view",
      "type": "function"
    },
    {
      "inputs": [],
      "name": "messageProxy",
      "outputs": [
        {
          "internalType": "contract IMessageProxyForSchain",
          "name": "",
          "type": "address"
        }
      ],
      "stateMutability": "view",
      "type": "function"
    },
    {
      "inputs": [
        {
          "internalType": "contract ITokenManager",
          "name": "newTokenManager",
          "type": "address"
        }
      ],
      "name": "registerTokenManager",
      "outputs": [],
      "stateMutability": "nonpayable",
      "type": "function"
    },
    {
      "inputs": [
        {
          "internalType": "contract ITokenManager",
          "name": "tokenManagerAddress",
          "type": "address"
        }
      ],
      "name": "removeTokenManager",
      "outputs": [],
      "stateMutability": "nonpayable",
      "type": "function"
    },
    {
      "inputs": [
        {
          "internalType": "bytes32",
          "name": "role",
          "type": "bytes32"
        },
        {
          "internalType": "address",
          "name": "account",
          "type": "address"
        }
      ],
      "name": "renounceRole",
      "outputs": [],
      "stateMutability": "nonpayable",
      "type": "function"
    },
    {
      "inputs": [
        {
          "internalType": "bytes32",
          "name": "role",
          "type": "bytes32"
        },
        {
          "internalType": "address",
          "name": "account",
          "type": "address"
        }
      ],
      "name": "revokeRole",
      "outputs": [],
      "stateMutability": "nonpayable",
      "type": "function"
    },
    {
      "inputs": [
        {
          "internalType": "bytes4",
          "name": "interfaceId",
          "type": "bytes4"
        }
      ],
      "name": "supportsInterface",
      "outputs": [
        {
          "internalType": "bool",
          "name": "",
          "type": "bool"
        }
      ],
      "stateMutability": "view",
      "type": "function"
    },
    {
      "inputs": [
        {
          "internalType": "uint256",
          "name": "",
          "type": "uint256"
        }
      ],
      "name": "tokenManagers",
      "outputs": [
        {
          "internalType": "contract ITokenManager",
          "name": "",
          "type": "address"
        }
      ],
      "stateMutability": "view",
      "type": "function"
    }
  ],
  "bytecode": "0x6080604052348015600f57600080fd5b506116ac8061001f6000396000f3fe608060405234801561001057600080fd5b50600436106101425760003560e01c80635573b8b6116100b8578063a217fddf1161007c578063a217fddf146102d9578063b9727f96146102e1578063ca15c873146102f4578063d547741f14610307578063e953c9921461031a578063f68e95531461032d57600080fd5b80635573b8b61461027a57806364a5142f1461028d5780639010d07c146102a057806391d14854146102b3578063990c85e6146102c657600080fd5b8063291f60d31161010a578063291f60d3146101d05780632f2ff15d146101e357806336568abe146101f657806341ecadf914610209578063485cc9551461023457806350f442801461024757600080fd5b806301ffc9a714610147578063041f4c9b1461016f578063173df64b14610182578063248a9ca31461019757806328c5e182146101c8575b600080fd5b61015a610155366004611297565b610342565b60405190151581526020015b60405180910390f35b61015a61017d3660046112c1565b61036d565b6101956101903660046112c1565b6104a3565b005b6101ba6101a5366004611335565b60009081526065602052604090206001015490565b604051908152602001610166565b6101ba6105e4565b6101956101de366004611363565b61062d565b6101956101f1366004611380565b6106b3565b610195610204366004611380565b6106dd565b61021c610217366004611335565b61075b565b6040516001600160a01b039091168152602001610166565b6101956102423660046113b0565b610785565b61026d6040518060400160405280600781526020016613585a5b9b995d60ca1b81525081565b6040516101669190611402565b60c95461021c906001600160a01b031681565b60ca5461021c906001600160a01b031681565b61021c6102ae366004611435565b61094a565b61015a6102c1366004611380565b610969565b6101956102d43660046112c1565b610994565b6101ba600081565b6101956102ef366004611363565b610b08565b6101ba610302366004611335565b610c57565b610195610315366004611380565b610c6e565b61015a610328366004611363565b610c93565b6101ba60008051602061165783398151915281565b60006001600160e01b03198216635a05180f60e01b1480610367575061036782610cfa565b92915050565b60cb5460019060005b8181101561041f57828015610415575060cb818154811061039957610399611457565b6000918252602090912001546040516339927cf960e01b81526001600160a01b03909116906339927cf9906103d49088908890600401611496565b602060405180830381865afa1580156103f1573d6000803e3d6000fd5b505050506040513d601f19601f8201168201806040525081019061041591906114aa565b9250600101610376565b5081801561049b575060c954604051634ccd5cd560e11b81526001600160a01b039091169063999ab9aa9061045a9087908790600401611496565b602060405180830381865afa158015610477573d6000803e3d6000fd5b505050506040513d601f19601f8201168201806040525081019061049b91906114aa565b949350505050565b6104bb60008051602061165783398151915233610969565b6104e05760405162461bcd60e51b81526004016104d7906114cc565b60405180910390fd5b60cb5460005b8181101561057a5760cb818154811061050157610501611457565b600091825260209091200154604051633038c4b760e21b81526001600160a01b039091169063c0e312dc9061053c9087908790600401611496565b600060405180830381600087803b15801561055657600080fd5b505af115801561056a573d6000803e3d6000fd5b5050600190920191506104e69050565b5060c954604051633cdd2cc360e01b81526001600160a01b0390911690633cdd2cc3906105ad9086908690600401611496565b600060405180830381600087803b1580156105c757600080fd5b505af11580156105db573d6000803e3d6000fd5b50505050505050565b6040518060400160405280600781526020016613585a5b9b995d60ca1b8152506040516020016106149190611503565b6040516020818303038152906040528051906020012081565b61064560008051602061165783398151915233610969565b6106615760405162461bcd60e51b81526004016104d7906114cc565b60cb80546001810182556000919091527fa7ce836d032b2bf62b7e2097a8e0a6d8aeb35405ad15271e96d3b0188a1d06fb0180546001600160a01b0319166001600160a01b0392909216919091179055565b6000828152606560205260409020600101546106ce81610d2f565b6106d88383610d3c565b505050565b6001600160a01b038116331461074d5760405162461bcd60e51b815260206004820152602f60248201527f416363657373436f6e74726f6c3a2063616e206f6e6c792072656e6f756e636560448201526e103937b632b9903337b91039b2b63360891b60648201526084016104d7565b6107578282610d5e565b5050565b60cb818154811061076b57600080fd5b6000918252602090912001546001600160a01b0316905081565b600054610100900460ff16158080156107a55750600054600160ff909116105b806107bf5750303b1580156107bf575060005460ff166001145b6108225760405162461bcd60e51b815260206004820152602e60248201527f496e697469616c697a61626c653a20636f6e747261637420697320616c72656160448201526d191e481a5b9a5d1a585b1a5e995960921b60648201526084016104d7565b6000805460ff191660011790558015610845576000805461ff0019166101001790555b6001600160a01b03821661089b5760405162461bcd60e51b815260206004820152601c60248201527f4c696e6b657220616464726573732068617320746f206265207365740000000060448201526064016104d7565b6108a3610d80565b6108ae600033610ded565b6108c660008051602061165783398151915233610ded565b60c980546001600160a01b038086166001600160a01b03199283161790925560ca80549285169290911691909117905560cc805460ff1916905580156106d8576000805461ff0019169055604051600181527f7f26b83ff96e1f2b6a682f133852f6798a09c465da95921460cefb38474024989060200160405180910390a1505050565b60008281526097602052604081206109629083610df7565b9392505050565b60009182526065602090815260408084206001600160a01b0393909316845291905290205460ff1690565b6109ac60008051602061165783398151915233610969565b6109c85760405162461bcd60e51b81526004016104d7906114cc565b60005b60cb54811015610a9f5760cb81815481106109e8576109e8611457565b9060005260206000200160009054906101000a90046001600160a01b03166001600160a01b031663cb703bff848460cb8581548110610a2957610a29611457565b6000918252602090912001546040516001600160e01b031960e086901b168152610a619392916001600160a01b03169060040161151f565b600060405180830381600087803b158015610a7b57600080fd5b505af1158015610a8f573d6000803e3d6000fd5b5050600190920191506109cb9050565b5060c95460405163f2f6360560e01b81526001600160a01b039091169063f2f6360590610ad29085908590600401611496565b600060405180830381600087803b158015610aec57600080fd5b505af1158015610b00573d6000803e3d6000fd5b505050505050565b610b2060008051602061165783398151915233610969565b610b3c5760405162461bcd60e51b81526004016104d7906114cc565b60cb546000905b80821015610b8d57826001600160a01b031660cb8381548110610b6857610b68611457565b6000918252602090912001546001600160a01b031614610b8d57600190910190610b43565b808210156106d857610ba0600182611561565b821015610c1f5760cb610bb4600183611561565b81548110610bc457610bc4611457565b60009182526020909120015460cb80546001600160a01b039092169184908110610bf057610bf0611457565b9060005260206000200160006101000a8154816001600160a01b0302191690836001600160a01b031602179055505b60cb805480610c3057610c30611574565b600082815260209020810160001990810180546001600160a01b0319169055019055505050565b600081815260976020526040812061036790610e03565b600082815260656020526040902060010154610c8981610d2f565b6106d88383610d5e565b60cb5460009081905b80821015610cf057836001600160a01b031660cb8381548110610cc157610cc1611457565b6000918252602090912001546001600160a01b031603610ce5575060019392505050565b600190910190610c9c565b5060009392505050565b60006001600160e01b03198216637965db0b60e01b148061036757506301ffc9a760e01b6001600160e01b0319831614610367565b610d398133610e0d565b50565b610d468282610e66565b60008281526097602052604090206106d89082610eec565b610d688282610f01565b60008281526097602052604090206106d89082610f68565b600054610100900460ff16610deb5760405162461bcd60e51b815260206004820152602b60248201527f496e697469616c697a61626c653a20636f6e7472616374206973206e6f74206960448201526a6e697469616c697a696e6760a81b60648201526084016104d7565b565b6107578282610d3c565b60006109628383610f7d565b6000610367825490565b610e178282610969565b61075757610e2481610fa7565b610e2f836020610fb9565b604051602001610e4092919061158a565b60408051601f198184030181529082905262461bcd60e51b82526104d791600401611402565b610e708282610969565b6107575760008281526065602090815260408083206001600160a01b03851684529091529020805460ff19166001179055610ea83390565b6001600160a01b0316816001600160a01b0316837f2f8788117e7eff1d82e926ec794901d17c78024a50270940304540a733656f0d60405160405180910390a45050565b6000610962836001600160a01b038416611155565b610f0b8282610969565b156107575760008281526065602090815260408083206001600160a01b0385168085529252808320805460ff1916905551339285917ff6391f5c32d9c69d2a47ea670b442974b53935d1edc7fd64eb21e047a839171b9190a45050565b6000610962836001600160a01b0384166111a4565b6000826000018281548110610f9457610f94611457565b9060005260206000200154905092915050565b60606103676001600160a01b03831660145b60606000610fc88360026115ff565b610fd3906002611616565b67ffffffffffffffff811115610feb57610feb611629565b6040519080825280601f01601f191660200182016040528015611015576020820181803683370190505b509050600360fc1b8160008151811061103057611030611457565b60200101906001600160f81b031916908160001a905350600f60fb1b8160018151811061105f5761105f611457565b60200101906001600160f81b031916908160001a90535060006110838460026115ff565b61108e906001611616565b90505b6001811115611106576f181899199a1a9b1b9c1cb0b131b232b360811b85600f16601081106110c2576110c2611457565b1a60f81b8282815181106110d8576110d8611457565b60200101906001600160f81b031916908160001a90535060049490941c936110ff8161163f565b9050611091565b5083156109625760405162461bcd60e51b815260206004820181905260248201527f537472696e67733a20686578206c656e67746820696e73756666696369656e7460448201526064016104d7565b600081815260018301602052604081205461119c57508154600181810184556000848152602080822090930184905584548482528286019093526040902091909155610367565b506000610367565b6000818152600183016020526040812054801561128d5760006111c8600183611561565b85549091506000906111dc90600190611561565b90508181146112415760008660000182815481106111fc576111fc611457565b906000526020600020015490508087600001848154811061121f5761121f611457565b6000918252602080832090910192909255918252600188019052604090208390555b855486908061125257611252611574565b600190038181906000526020600020016000905590558560010160008681526020019081526020016000206000905560019350505050610367565b6000915050610367565b6000602082840312156112a957600080fd5b81356001600160e01b03198116811461096257600080fd5b600080602083850312156112d457600080fd5b823567ffffffffffffffff8111156112eb57600080fd5b8301601f810185136112fc57600080fd5b803567ffffffffffffffff81111561131357600080fd5b85602082840101111561132557600080fd5b6020919091019590945092505050565b60006020828403121561134757600080fd5b5035919050565b6001600160a01b0381168114610d3957600080fd5b60006020828403121561137557600080fd5b81356109628161134e565b6000806040838503121561139357600080fd5b8235915060208301356113a58161134e565b809150509250929050565b600080604083850312156113c357600080fd5b82356113ce8161134e565b915060208301356113a58161134e565b60005b838110156113f95781810151838201526020016113e1565b50506000910152565b60208152600082518060208401526114218160408501602087016113de565b601f01601f19169190910160400192915050565b6000806040838503121561144857600080fd5b50508035926020909101359150565b634e487b7160e01b600052603260045260246000fd5b81835281816020850137506000828201602090810191909152601f909101601f19169091010190565b60208152600061049b60208301848661146d565b6000602082840312156114bc57600080fd5b8151801515811461096257600080fd5b6020808252601a908201527f5245474953545241525f524f4c45206973207265717569726564000000000000604082015260600190565b600082516115158184602087016113de565b9190910192915050565b60408152600061153360408301858761146d565b905060018060a01b0383166020830152949350505050565b634e487b7160e01b600052601160045260246000fd5b818103818111156103675761036761154b565b634e487b7160e01b600052603160045260246000fd5b7f416363657373436f6e74726f6c3a206163636f756e74200000000000000000008152600083516115c28160178501602088016113de565b7001034b99036b4b9b9b4b733903937b6329607d1b60179184019182015283516115f38160288401602088016113de565b01602801949350505050565b80820281158282048414176103675761036761154b565b808201808211156103675761036761154b565b634e487b7160e01b600052604160045260246000fd5b60008161164e5761164e61154b565b50600019019056feedcc084d3dcd65a1f7f23c65c46722faca6953d28e43150a467cf43e5c309238a2646970667358221220a03d84ef8d67c2079f148d456d80dab119bbfc815c1234cf593c480f54763a3064736f6c634300081b0033",
  "linkReferences": {},
  "deployedLinkReferences": {}
}