{
  "_format": "hh-sol-artifact-1",
  "contractName": "TokenManagerERC20",
  "sourceName": "contracts/schain/TokenManagers/TokenManagerERC20.sol",
  "abi": [
    {
      "anonymous": false,
      "inputs": [
        {
          "indexed": false,
          "internalType": "address",
          "name": "oldValue",
          "type": "address"
        },
        {
          "indexed": false,
          "internalType": "address",
          "name": "newValue",
          "type": "address"
        }
      ],
      "name": "DepositBoxWasChanged",
      "type": "event"
    },
    {
      "anonymous": false,
      "inputs": [
        {
          "indexed": true,
          "internalType": "SchainHash",
          "name": "chainHash",
          "type": "bytes32"
        },
        {
          "indexed": true,
          "internalType": "address",
          "name": "erc20OnMainChain",
          "type": "address"
        },
        {
          "indexed": true,
          "internalType": "address",
          "name": "erc20OnSchain",
          "type": "address"
        }
      ],
      "name": "ERC20TokenAdded",
      "type": "event"
    },
    {
      "anonymous": false,
      "inputs": [
        {
          "indexed": true,
          "internalType": "SchainHash",
          "name": "chainHash",
          "type": "bytes32"
        },
        {
          "indexed": true,
          "internalType": "address",
          "name": "erc20OnMainChain",
          "type": "address"
        },
        {
          "indexed": true,
          "internalType": "address",
          "name": "erc20OnSchain",
          "type": "address"
        }
      ],
      "name": "ERC20TokenCreated",
      "type": "event"
    },
    {
      "anonymous": false,
      "inputs": [
        {
          "indexed": true,
          "internalType": "SchainHash",
          "name": "chainHash",
          "type": "bytes32"
        },
        {
          "indexed": true,
          "internalType": "address",
          "name": "contractOnMainnet",
          "type": "address"
        },
        {
          "indexed": false,
          "internalType": "uint256",
          "name": "amount",
          "type": "uint256"
        }
      ],
      "name": "ERC20TokenReady",
      "type": "event"
    },
    {
      "anonymous": false,
      "inputs": [
        {
          "indexed": true,
          "internalType": "SchainHash",
          "name": "chainHash",
          "type": "bytes32"
        },
        {
          "indexed": true,
          "internalType": "address",
          "name": "erc20OnMainChain",
          "type": "address"
        },
        {
          "indexed": true,
          "internalType": "address",
          "name": "erc20OnSchain",
          "type": "address"
        },
        {
          "indexed": false,
          "internalType": "uint256",
          "name": "amount",
          "type": "uint256"
        }
      ],
      "name": "ERC20TokenReceived",
      "type": "event"
    },
    {
      "anonymous": false,
      "inputs": [
        {
          "indexed": false,
          "internalType": "uint8",
          "name": "version",
          "type": "uint8"
        }
      ],
      "name": "Initialized",
      "type": "event"
    },
    {
      "anonymous": false,
      "inputs": [
        {
          "indexed": true,
          "internalType": "bytes32",
          "name": "role",
          "type": "bytes32"
        },
        {
          "indexed": true,
          "internalType": "bytes32",
          "name": "previousAdminRole",
          "type": "bytes32"
        },
        {
          "indexed": true,
          "internalType": "bytes32",
          "name": "newAdminRole",
          "type": "bytes32"
        }
      ],
      "name": "RoleAdminChanged",
      "type": "event"
    },
    {
      "anonymous": false,
      "inputs": [
        {
          "indexed": true,
          "internalType": "bytes32",
          "name": "role",
          "type": "bytes32"
        },
        {
          "indexed": true,
          "internalType": "address",
          "name": "account",
          "type": "address"
        },
        {
          "indexed": true,
          "internalType": "address",
          "name": "sender",
          "type": "address"
        }
      ],
      "name": "RoleGranted",
      "type": "event"
    },
    {
      "anonymous": false,
      "inputs": [
        {
          "indexed": true,
          "internalType": "bytes32",
          "name": "role",
          "type": "bytes32"
        },
        {
          "indexed": true,
          "internalType": "address",
          "name": "account",
          "type": "address"
        },
        {
          "indexed": true,
          "internalType": "address",
          "name": "sender",
          "type": "address"
        }
      ],
      "name": "RoleRevoked",
      "type": "event"
    },
    {
      "inputs": [],
      "name": "AUTOMATIC_DEPLOY_ROLE",
      "outputs": [
        {
          "internalType": "bytes32",
          "name": "",
          "type": "bytes32"
        }
      ],
      "stateMutability": "view",
      "type": "function"
    },
    {
      "inputs": [],
      "name": "DEFAULT_ADMIN_ROLE",
      "outputs": [
        {
          "internalType": "bytes32",
          "name": "",
          "type": "bytes32"
        }
      ],
      "stateMutability": "view",
      "type": "function"
    },
    {
      "inputs": [],
      "name": "MAINNET_HASH",
      "outputs": [
        {
          "internalType": "SchainHash",
          "name": "",
          "type": "bytes32"
        }
      ],
      "stateMutability": "view",
      "type": "function"
    },
    {
      "inputs": [],
      "name": "MAINNET_NAME",
      "outputs": [
        {
          "internalType": "string",
          "name": "",
          "type": "string"
        }
      ],
      "stateMutability": "view",
      "type": "function"
    },
    {
      "inputs": [],
      "name": "TOKEN_REGISTRAR_ROLE",
      "outputs": [
        {
          "internalType": "bytes32",
          "name": "",
          "type": "bytes32"
        }
      ],
      "stateMutability": "view",
      "type": "function"
    },
    {
      "inputs": [
        {
          "internalType": "string",
          "name": "originChainName",
          "type": "string"
        },
        {
          "internalType": "address",
          "name": "erc20OnOriginChain",
          "type": "address"
        },
        {
          "internalType": "address",
          "name": "newErc20OnSchain",
          "type": "address"
        }
      ],
      "name": "addERC20TokenByOwner",
      "outputs": [],
      "stateMutability": "nonpayable",
      "type": "function"
    },
    {
      "inputs": [
        {
          "internalType": "string",
          "name": "schainName",
          "type": "string"
        },
        {
          "internalType": "address",
          "name": "newTokenManager",
          "type": "address"
        }
      ],
      "name": "addTokenManager",
      "outputs": [],
      "stateMutability": "nonpayable",
      "type": "function"
    },
    {
      "inputs": [
        {
          "internalType": "contract ERC20OnChain",
          "name": "",
          "type": "address"
        }
      ],
      "name": "addedClones",
      "outputs": [
        {
          "internalType": "bool",
          "name": "",
          "type": "bool"
        }
      ],
      "stateMutability": "view",
      "type": "function"
    },
    {
      "inputs": [],
      "name": "automaticDeploy",
      "outputs": [
        {
          "internalType": "bool",
          "name": "",
          "type": "bool"
        }
      ],
      "stateMutability": "view",
      "type": "function"
    },
    {
      "inputs": [
        {
          "internalType": "address",
          "name": "newDepositBox",
          "type": "address"
        }
      ],
      "name": "changeDepositBoxAddress",
      "outputs": [],
      "stateMutability": "nonpayable",
      "type": "function"
    },
    {
      "inputs": [
        {
          "internalType": "SchainHash",
          "name": "",
          "type": "bytes32"
        },
        {
          "internalType": "address",
          "name": "",
          "type": "address"
        }
      ],
      "name": "clonesErc20",
      "outputs": [
        {
          "internalType": "contract ERC20OnChain",
          "name": "",
          "type": "address"
        }
      ],
      "stateMutability": "view",
      "type": "function"
    },
    {
      "inputs": [],
      "name": "communityLocker",
      "outputs": [
        {
          "internalType": "contract ICommunityLocker",
          "name": "",
          "type": "address"
        }
      ],
      "stateMutability": "view",
      "type": "function"
    },
    {
      "inputs": [],
      "name": "depositBox",
      "outputs": [
        {
          "internalType": "address",
          "name": "",
          "type": "address"
        }
      ],
      "stateMutability": "view",
      "type": "function"
    },
    {
      "inputs": [
        {
          "internalType": "address",
          "name": "",
          "type": "address"
        }
      ],
      "name": "deprecatedClonesErc20",
      "outputs": [
        {
          "internalType": "contract ERC20OnChain",
          "name": "",
          "type": "address"
        }
      ],
      "stateMutability": "view",
      "type": "function"
    },
    {
      "inputs": [],
      "name": "disableAutomaticDeploy",
      "outputs": [],
      "stateMutability": "nonpayable",
      "type": "function"
    },
    {
      "inputs": [],
      "name": "enableAutomaticDeploy",
      "outputs": [],
      "stateMutability": "nonpayable",
      "type": "function"
    },
    {
      "inputs": [
        {
          "internalType": "address",
          "name": "contractOnMainnet",
          "type": "address"
        },
        {
          "internalType": "uint256",
          "name": "amount",
          "type": "uint256"
        }
      ],
      "name": "exitToMainERC20",
      "outputs": [],
      "stateMutability": "nonpayable",
      "type": "function"
    },
    {
      "inputs": [
        {
          "internalType": "bytes32",
          "name": "role",
          "type": "bytes32"
        }
      ],
      "name": "getRoleAdmin",
      "outputs": [
        {
          "internalType": "bytes32",
          "name": "",
          "type": "bytes32"
        }
      ],
      "stateMutability": "view",
      "type": "function"
    },
    {
      "inputs": [
        {
          "internalType": "bytes32",
          "name": "role",
          "type": "bytes32"
        },
        {
          "internalType": "uint256",
          "name": "index",
          "type": "uint256"
        }
      ],
      "name": "getRoleMember",
      "outputs": [
        {
          "internalType": "address",
          "name": "",
          "type": "address"
        }
      ],
      "stateMutability": "view",
      "type": "function"
    },
    {
      "inputs": [
        {
          "internalType": "bytes32",
          "name": "role",
          "type": "bytes32"
        }
      ],
      "name": "getRoleMemberCount",
      "outputs": [
        {
          "internalType": "uint256",
          "name": "",
          "type": "uint256"
        }
      ],
      "stateMutability": "view",
      "type": "function"
    },
    {
      "inputs": [
        {
          "internalType": "bytes32",
          "name": "role",
          "type": "bytes32"
        },
        {
          "internalType": "address",
          "name": "account",
          "type": "address"
        }
      ],
      "name": "grantRole",
      "outputs": [],
      "stateMutability": "nonpayable",
      "type": "function"
    },
    {
      "inputs": [
        {
          "internalType": "bytes32",
          "name": "role",
          "type": "bytes32"
        },
        {
          "internalType": "address",
          "name": "account",
          "type": "address"
        }
      ],
      "name": "hasRole",
      "outputs": [
        {
          "internalType": "bool",
          "name": "",
          "type": "bool"
        }
      ],
      "stateMutability": "view",
      "type": "function"
    },
    {
      "inputs": [
        {
          "internalType": "string",
          "name": "schainName",
          "type": "string"
        }
      ],
      "name": "hasTokenManager",
      "outputs": [
        {
          "internalType": "bool",
          "name": "",
          "type": "bool"
        }
      ],
      "stateMutability": "view",
      "type": "function"
    },
    {
      "inputs": [
        {
          "internalType": "string",
          "name": "newChainName",
          "type": "string"
        },
        {
          "internalType": "contract IMessageProxyForSchain",
          "name": "newMessageProxy",
          "type": "address"
        },
        {
          "internalType": "contract ITokenManagerLinker",
          "name": "newIMALinker",
          "type": "address"
        },
        {
          "internalType": "contract ICommunityLocker",
          "name": "newCommunityLocker",
          "type": "address"
        },
        {
          "internalType": "address",
          "name": "newDepositBox",
          "type": "address"
        }
      ],
      "name": "initialize",
      "outputs": [],
      "stateMutability": "nonpayable",
      "type": "function"
    },
    {
      "inputs": [
        {
          "internalType": "string",
          "name": "newSchainName",
          "type": "string"
        },
        {
          "internalType": "contract IMessageProxyForSchain",
          "name": "newMessageProxy",
          "type": "address"
        },
        {
          "internalType": "contract ITokenManagerLinker",
          "name": "newIMALinker",
          "type": "address"
        },
        {
          "internalType": "contract ICommunityLocker",
          "name": "newCommunityLocker",
          "type": "address"
        },
        {
          "internalType": "address",
          "name": "newDepositBox",
          "type": "address"
        }
      ],
      "name": "initializeTokenManager",
      "outputs": [],
      "stateMutability": "nonpayable",
      "type": "function"
    },
    {
      "inputs": [],
      "name": "messageProxy",
      "outputs": [
        {
          "internalType": "contract IMessageProxyForSchain",
          "name": "",
          "type": "address"
        }
      ],
      "stateMutability": "view",
      "type": "function"
    },
    {
      "inputs": [
        {
          "internalType": "SchainHash",
          "name": "fromChainHash",
          "type": "bytes32"
        },
        {
          "internalType": "address",
          "name": "sender",
          "type": "address"
        },
        {
          "internalType": "bytes",
          "name": "data",
          "type": "bytes"
        }
      ],
      "name": "postMessage",
      "outputs": [],
      "stateMutability": "nonpayable",
      "type": "function"
    },
    {
      "inputs": [
        {
          "internalType": "string",
          "name": "schainName",
          "type": "string"
        }
      ],
      "name": "removeTokenManager",
      "outputs": [],
      "stateMutability": "nonpayable",
      "type": "function"
    },
    {
      "inputs": [
        {
          "internalType": "bytes32",
          "name": "role",
          "type": "bytes32"
        },
        {
          "internalType": "address",
          "name": "account",
          "type": "address"
        }
      ],
      "name": "renounceRole",
      "outputs": [],
      "stateMutability": "nonpayable",
      "type": "function"
    },
    {
      "inputs": [
        {
          "internalType": "bytes32",
          "name": "role",
          "type": "bytes32"
        },
        {
          "internalType": "address",
          "name": "account",
          "type": "address"
        }
      ],
      "name": "revokeRole",
      "outputs": [],
      "stateMutability": "nonpayable",
      "type": "function"
    },
    {
      "inputs": [],
      "name": "schainHash",
      "outputs": [
        {
          "internalType": "SchainHash",
          "name": "",
          "type": "bytes32"
        }
      ],
      "stateMutability": "view",
      "type": "function"
    },
    {
      "inputs": [
        {
          "internalType": "bytes4",
          "name": "interfaceId",
          "type": "bytes4"
        }
      ],
      "name": "supportsInterface",
      "outputs": [
        {
          "internalType": "bool",
          "name": "",
          "type": "bool"
        }
      ],
      "stateMutability": "view",
      "type": "function"
    },
    {
      "inputs": [],
      "name": "tokenManagerLinker",
      "outputs": [
        {
          "internalType": "contract ITokenManagerLinker",
          "name": "",
          "type": "address"
        }
      ],
      "stateMutability": "view",
      "type": "function"
    },
    {
      "inputs": [
        {
          "internalType": "SchainHash",
          "name": "",
          "type": "bytes32"
        }
      ],
      "name": "tokenManagers",
      "outputs": [
        {
          "internalType": "address",
          "name": "",
          "type": "address"
        }
      ],
      "stateMutability": "view",
      "type": "function"
    },
    {
      "inputs": [
        {
          "internalType": "contract IERC20Upgradeable",
          "name": "",
          "type": "address"
        }
      ],
      "name": "totalSupplyOnMainnet",
      "outputs": [
        {
          "internalType": "uint256",
          "name": "",
          "type": "uint256"
        }
      ],
      "stateMutability": "view",
      "type": "function"
    },
    {
      "inputs": [
        {
          "internalType": "string",
          "name": "targetSchainName",
          "type": "string"
        },
        {
          "internalType": "address",
          "name": "contractOnMainnet",
          "type": "address"
        },
        {
          "internalType": "uint256",
          "name": "amount",
          "type": "uint256"
        }
      ],
      "name": "transferToSchainERC20",
      "outputs": [],
      "stateMutability": "nonpayable",
      "type": "function"
    },
    {
      "inputs": [
        {
          "internalType": "string",
          "name": "targetSchainName",
          "type": "string"
        },
        {
          "internalType": "address",
          "name": "contractOnMainnet",
          "type": "address"
        },
        {
          "internalType": "uint256",
          "name": "amount",
          "type": "uint256"
        },
        {
          "internalType": "address",
          "name": "receiver",
          "type": "address"
        }
      ],
      "name": "transferToSchainERC20Direct",
      "outputs": [],
      "stateMutability": "nonpayable",
      "type": "function"
    },
    {
      "inputs": [
        {
          "internalType": "SchainHash",
          "name": "targetSchainHash",
          "type": "bytes32"
        },
        {
          "internalType": "address",
          "name": "contractOnMainnet",
          "type": "address"
        },
        {
          "internalType": "uint256",
          "name": "amount",
          "type": "uint256"
        },
        {
          "internalType": "address",
          "name": "receiver",
          "type": "address"
        }
      ],
      "name": "transferToSchainHashERC20Direct",
      "outputs": [],
      "stateMutability": "nonpayable",
      "type": "function"
    },
    {
      "inputs": [
        {
          "internalType": "SchainHash",
          "name": "",
          "type": "bytes32"
        },
        {
          "internalType": "address",
          "name": "",
          "type": "address"
        }
      ],
      "name": "transferredAmount",
      "outputs": [
        {
          "internalType": "uint256",
          "name": "",
          "type": "uint256"
        }
      ],
      "stateMutability": "view",
      "type": "function"
    }
  ],
  "bytecode": "0x6080604052348015600f57600080fd5b50615b0a8061001f6000396000f3fe608060405234801561001057600080fd5b506004361061023d5760003560e01c80636d6112861161013b578063babc4a33116100b8578063d547741f1161007c578063d547741f1461058a578063dec2deb61461059d578063eafd15c8146105b1578063edcc12b5146105c4578063f429e383146105d757600080fd5b8063babc4a33146104ff578063c0e312dc1461052a578063ca15c8731461053d578063cb703bff14610550578063cc5b715b1461056357600080fd5b80639010d07c116100ff5780639010d07c146104a657806391d14854146104b9578063a217fddf146104cc578063aebaaca9146104d4578063b9581c50146104f757600080fd5b80636d611286146104475780636d6c68e61461045a578063800d86921461046d5780638504950614610480578063884cee5a1461049357600080fd5b806336568abe116101c957806350f442801161018d57806350f44280146103a7578063510d8a58146103da5780635573b8b61461040e57806368eb2022146104215780636ce681d21461043457600080fd5b806336568abe1461033a57806339927cf91461034d5780633b690b6b146103605780633fa194ce14610369578063467a5d811461037e57600080fd5b806310cdcc9a1161021057806310cdcc9a146102c8578063248a9ca3146102db57806328c5e1821461030c5780632dc151de146103145780632f2ff15d1461032757600080fd5b806301ffc9a714610242578063029996b81461026a5780630b885ac3146102745780630f1a8f7414610287575b600080fd5b6102556102503660046132d1565b6105f7565b60405190151581526020015b60405180910390f35b610272610622565b005b61027261028236600461341d565b610674565b6102b06102953660046134a6565b60ce602052600090815260409020546001600160a01b031681565b6040516001600160a01b039091168152602001610261565b6102726102d63660046134bf565b610688565b6102fe6102e93660046134a6565b60009081526065602052604090206001015490565b604051908152602001610261565b6102fe610726565b60ca546102b0906001600160a01b031681565b610272610335366004613509565b61076f565b610272610348366004613509565b610799565b61025561035b36600461357a565b610817565b6102fe60cc5481565b6102fe600080516020615ab583398151915281565b6102b061038c3660046135bb565b60cf602052600090815260409020546001600160a01b031681565b6103cd6040518060400160405280600781526020016613585a5b9b995d60ca1b81525081565b6040516102619190613628565b6102b06103e8366004613509565b60d26020908152600092835260408084209091529082529020546001600160a01b031681565b60c9546102b0906001600160a01b031681565b61027261042f36600461363b565b610872565b61027261044236600461341d565b61097e565b60cd546102b0906001600160a01b031681565b60cb546102b0906001600160a01b031681565b61027261047b366004613667565b610bdd565b61027261048e3660046136cc565b610c16565b6102726104a1366004613728565b610c29565b6102b06104b4366004613783565b610dad565b6102556104c7366004613509565b610dcc565b6102fe600081565b6102556104e23660046135bb565b60d16020526000908152604090205460ff1681565b610272610df7565b6102fe61050d366004613509565b60d360209081526000928352604080842090915290825290205481565b61027261053836600461357a565b610e3a565b6102fe61054b3660046134a6565b610f4f565b61027261055e3660046137a5565b610f66565b6102fe7ffda70c2cc66a36c14884ee85424961f51b1d92b4494751699b6d105b3bcbcba881565b610272610598366004613509565b6110e2565b60cd5461025590600160a01b900460ff1681565b6102726105bf3660046137fb565b611107565b6102726105d23660046135bb565b611550565b6102fe6105e53660046135bb565b60d06020526000908152604090205481565b60006001600160e01b03198216635a05180f60e01b148061061c575061061c82611666565b92915050565b61063a600080516020615ab583398151915233610dcc565b61065f5760405162461bcd60e51b815260040161065690613857565b60405180910390fd5b60cd805460ff60a01b1916600160a01b179055565b610681858585858561097e565b5050505050565b8381610694828261169b565b60cb54604051632c98abc960e11b8152600481018890523360248201526001600160a01b0390911690635931579290604401600060405180830381600087803b1580156106e057600080fd5b505af11580156106f4573d6000803e3d6000fd5b505050600087815260ce602052604090205461071e915087906001600160a01b0316878688611809565b505050505050565b6040518060400160405280600781526020016613585a5b9b995d60ca1b8152506040516020016107569190613898565b6040516020818303038152906040528051906020012081565b60008281526065602052604090206001015461078a81611d37565b6107948383611d44565b505050565b6001600160a01b03811633146108095760405162461bcd60e51b815260206004820152602f60248201527f416363657373436f6e74726f6c3a2063616e206f6e6c792072656e6f756e636560448201526e103937b632b9903337b91039b2b63360891b6064820152608401610656565b6108138282611d66565b5050565b6000806001600160a01b031660ce6000858560405160200161083a9291906138b4565b60408051808303601f19018152918152815160209283012083529082019290925201600020546001600160a01b031614159392505050565b60cb54604080518082018252600781526613585a5b9b995d60ca1b60208083019190915291516001600160a01b03909316926359315792926108b5929101613898565b60408051601f198184030181529082905280516020909101206001600160e01b031960e084901b1682526004820152336024820152604401600060405180830381600087803b15801561090757600080fd5b505af115801561091b573d6000803e3d6000fd5b505050506108136040518060400160405280600781526020016613585a5b9b995d60ca1b8152506040516020016109529190613898565b60408051601f19818403018152919052805160209091012060cd546001600160a01b0316843385611809565b600054610100900460ff161580801561099e5750600054600160ff909116105b806109b85750303b1580156109b8575060005460ff166001145b610a1b5760405162461bcd60e51b815260206004820152602e60248201527f496e697469616c697a61626c653a20636f6e747261637420697320616c72656160448201526d191e481a5b9a5d1a585b1a5e995960921b6064820152608401610656565b6000805460ff191660011790558015610a3e576000805461ff0019166101001790555b6001600160a01b038216610a945760405162461bcd60e51b815260206004820181905260248201527f4465706f736974426f7820616464726573732068617320746f206265207365746044820152606401610656565b610a9c611d88565b610aa7600033611df5565b610abf600080516020615ab583398151915233611df5565b610ae97ffda70c2cc66a36c14884ee85424961f51b1d92b4494751699b6d105b3bcbcba833611df5565b85604051602001610afa9190613898565b60408051601f19818403018152828252805160209182012060cc5560c980546001600160a01b038a81166001600160a01b03199283161790925560ca80548a841690831617905560cb805489841690831617905560cd8054928816929091168217905560008452908301527fc968af77923193016f61d74ba6827296db5e1f37ec4fab3ad1ef20e193395e59910160405180910390a1801561071e576000805461ff0019169055604051600181527f7f26b83ff96e1f2b6a682f133852f6798a09c465da95921460cefb38474024989060200160405180910390a1505050505050565b60008585604051602001610bf29291906138b4565b60405160208183030381529060405280519060200120905061071e81858585610688565b610c238484848433610bdd565b50505050565b60c9546001600160a01b03163314610c835760405162461bcd60e51b815260206004820152601c60248201527f53656e646572206973206e6f742061204d65737361676550726f7879000000006044820152606401610656565b8383610c918260cc54141590565b8015610ca25750610ca28282611dff565b610cee5760405162461bcd60e51b815260206004820152601b60248201527f526563656976657220636861696e20697320696e636f727265637400000000006044820152606401610656565b6000610cfa8585611e8c565b90506000600282600e811115610d1257610d126138c4565b1480610d2f5750600482600e811115610d2d57610d2d6138c4565b145b80610d4b5750600382600e811115610d4957610d496138c4565b145b15610d6257610d5b888787611ed7565b9050610da3565b60405162461bcd60e51b815260206004820152601660248201527526b2b9b9b0b3b2aa3cb8329034b9903ab735b737bbb760511b6044820152606401610656565b5050505050505050565b6000828152609760205260408120610dc590836124ca565b9392505050565b60009182526065602090815260408084206001600160a01b0393909316845291905290205460ff1690565b610e0f600080516020615ab583398151915233610dcc565b610e2b5760405162461bcd60e51b815260040161065690613857565b60cd805460ff60a01b19169055565b60ca546001600160a01b0316331480610e595750610e59600033610dcc565b610e9d5760405162461bcd60e51b81526020600482015260156024820152742737ba1030baba3437b934bd32b21031b0b63632b960591b6044820152606401610656565b60008282604051602001610eb29291906138b4565b60408051601f198184030181529181528151602092830120600081815260ce9093529120549091506001600160a01b0316610f2f5760405162461bcd60e51b815260206004820152601860248201527f546f6b656e204d616e61676572206973206e6f742073657400000000000000006044820152606401610656565b600090815260ce6020526040902080546001600160a01b03191690555050565b600081815260976020526040812061061c906124d6565b60ca546001600160a01b0316331480610f855750610f85600033610dcc565b610fc95760405162461bcd60e51b81526020600482015260156024820152742737ba1030baba3437b934bd32b21031b0b63632b960591b6044820152606401610656565b60008383604051602001610fde9291906138b4565b60408051601f198184030181529181528151602092830120600081815260ce9093529120549091506001600160a01b03161561105c5760405162461bcd60e51b815260206004820152601c60248201527f546f6b656e204d616e6167657220697320616c726561647920736574000000006044820152606401610656565b6001600160a01b0382166110b25760405162461bcd60e51b815260206004820152601f60248201527f496e636f727265637420546f6b656e204d616e616765722061646472657373006044820152606401610656565b600090815260ce6020526040902080546001600160a01b0319166001600160a01b03929092169190911790555050565b6000828152606560205260409020600101546110fd81611d37565b6107948383611d66565b6111317ffda70c2cc66a36c14884ee85424961f51b1d92b4494751699b6d105b3bcbcba833610dcc565b61117d5760405162461bcd60e51b815260206004820181905260248201527f544f4b454e5f5245474953545241525f524f4c452069732072657175697265646044820152606401610656565b600084846040516020016111929291906138b4565b60408051601f198184030181528282528051602091820120600081815260d283528381206001600160a01b03808a1683529352929092205460c954634ccd5cd560e11b855292945081169291169063999ab9aa906111f690899089906004016138da565b602060405180830381865afa158015611213573d6000803e3d6000fd5b505050506040513d601f19601f820116820180604052508101906112379190613909565b61127c5760405162461bcd60e51b815260206004820152601660248201527510da185a5b881a5cc81b9bdd0818dbdb9b9958dd195960521b6044820152606401610656565b6001600160a01b0383163b6112d35760405162461bcd60e51b815260206004820152601f60248201527f476976656e2061646472657373206973206e6f74206120636f6e7472616374006044820152606401610656565b826001600160a01b03166318160ddd6040518163ffffffff1660e01b8152600401602060405180830381865afa158015611311573d6000803e3d6000fd5b505050506040513d601f19601f82011682018060405250810190611335919061392b565b156113925760405162461bcd60e51b815260206004820152602760248201527f546f74616c20737570706c79206f662061206e657720746f6b656e206973206e6044820152666f74207a65726f60c81b6064820152608401610656565b6001600160a01b0381161561146557806001600160a01b03166318160ddd6040518163ffffffff1660e01b8152600401602060405180830381865afa1580156113df573d6000803e3d6000fd5b505050506040513d601f19601f82011682018060405250810190611403919061392b565b156114655760405162461bcd60e51b815260206004820152602c60248201527f546f74616c20737570706c79206f6620612070726576696f757320746f6b656e60448201526b206973206e6f74207a65726f60a01b6064820152608401610656565b6001600160a01b038316600090815260d1602052604090205460ff16156114ce5760405162461bcd60e51b815260206004820152601760248201527f436c6f6e652077617320616c72656164792061646465640000000000000000006044820152606401610656565b600082815260d2602090815260408083206001600160a01b0388811680865291845282852080546001600160a01b031916918916918217905580855260d1909352818420805460ff1916600117905590519192909185917f89b97f12155170c72b8eb3449d5f1ba0c6a29e5546051dc35694313b1b60741f91a4505050505050565b61155b600033610dcc565b6115a75760405162461bcd60e51b815260206004820152601e60248201527f44454641554c545f41444d494e5f524f4c4520697320726571756972656400006044820152606401610656565b6001600160a01b0381166115fd5760405162461bcd60e51b815260206004820181905260248201527f4465706f736974426f7820616464726573732068617320746f206265207365746044820152606401610656565b60cd54604080516001600160a01b03928316815291831660208301527fc968af77923193016f61d74ba6827296db5e1f37ec4fab3ad1ef20e193395e59910160405180910390a160cd80546001600160a01b0319166001600160a01b0392909216919091179055565b60006001600160e01b03198216637965db0b60e01b148061061c57506301ffc9a760e01b6001600160e01b031983161461061c565b6116ea826040518060400160405280600781526020016613585a5b9b995d60ca1b8152506040516020016116cf9190613898565b60405160208183030381529060405280519060200120141590565b61174f5760405162461bcd60e51b815260206004820152603060248201527f546869732066756e6374696f6e206973206e6f7420666f72207472616e73666560448201526f1c9c9a5b99c81d1bc813585a5b9b995d60821b6064820152608401610656565b6001600160a01b0381166117a55760405162461bcd60e51b815260206004820152601a60248201527f496e636f727265637420726563656976657220616464726573730000000000006044820152606401610656565b600082815260ce60205260409020546001600160a01b03166108135760405162461bcd60e51b815260206004820152601f60248201527f496e636f727265637420546f6b656e204d616e616765722061646472657373006044820152606401610656565b600085815260d2602090815260408083206001600160a01b038088168552925282205416806118a357506001600160a01b038416600090815260d16020526040902054849060ff161561189e5760405162461bcd60e51b815260206004820152601a60248201527f496e636f7272656374206d61696e20636861696e20746f6b656e0000000000006044820152606401610656565b600191505b6001600160a01b0381163b6118fa5760405162461bcd60e51b815260206004820152601860248201527f4e6f20746f6b656e20636c6f6e65206f6e2073636861696e00000000000000006044820152606401610656565b6040516370a0823160e01b815233600482015283906001600160a01b038316906370a0823190602401602060405180830381865afa158015611940573d6000803e3d6000fd5b505050506040513d601f19601f82011682018060405250810190611964919061392b565b10156119a75760405162461bcd60e51b8152602060048201526012602482015271496e73756666696369656e742066756e647360701b6044820152606401610656565b604051636eb1769f60e11b815233600482015230602482015283906001600160a01b0383169063dd62ed3e90604401602060405180830381865afa1580156119f3573d6000803e3d6000fd5b505050506040513d601f19601f82011682018060405250810190611a17919061392b565b1015611a765760405162461bcd60e51b815260206004820152602860248201527f5472616e73666572206973206e6f7420617070726f76656420627920746f6b6560448201526737103437b63232b960c11b6064820152608401610656565b6000611a838686866124e0565b90508215611bd957611abf886040518060400160405280600781526020016613585a5b9b995d60ca1b8152506040516020016116cf9190613898565b611b285760405162461bcd60e51b815260206004820152603460248201527f4d61696e20636861696e20746f6b656e20636f756c64206e6f74206265207472604482015273185b9cd9995c9c9959081d1bc813585a5b9b995d60621b6064820152608401610656565b611b348883878761253f565b9050611b418883866126a5565b6040516323b872dd60e01b8152336004820152306024820152604481018590526001600160a01b038316906323b872dd906064016020604051808303816000875af1158015611b94573d6000803e3d6000fd5b505050506040513d601f19601f82011682018060405250810190611bb89190613909565b611bd45760405162461bcd60e51b815260040161065690613944565b611cc7565b6040516323b872dd60e01b8152336004820152306024820152604481018590526001600160a01b038316906323b872dd906064016020604051808303816000875af1158015611c2c573d6000803e3d6000fd5b505050506040513d601f19601f82011682018060405250810190611c509190613909565b611c6c5760405162461bcd60e51b815260040161065690613944565b604051630852cd8d60e31b8152600481018590526001600160a01b038316906342966c6890602401600060405180830381600087803b158015611cae57600080fd5b505af1158015611cc2573d6000803e3d6000fd5b505050505b60c954604051634a24490160e11b81526001600160a01b0390911690639448920290611cfb908b908b908690600401613971565b600060405180830381600087803b158015611d1557600080fd5b505af1158015611d29573d6000803e3d6000fd5b505050505050505050505050565b611d4181336126e1565b50565b611d4e828261273a565b600082815260976020526040902061079490826127c0565b611d7082826127d5565b6000828152609760205260409020610794908261283c565b600054610100900460ff16611df35760405162461bcd60e51b815260206004820152602b60248201527f496e697469616c697a61626c653a20636f6e7472616374206973206e6f74206960448201526a6e697469616c697a696e6760a81b6064820152608401610656565b565b6108138282611d44565b6000611e4f836040518060400160405280600781526020016613585a5b9b995d60ca1b815250604051602001611e359190613898565b604051602081830303815290604052805190602001201490565b611e7557600083815260ce60205260409020546001600160a01b03838116911614610dc5565b5060cd546001600160a01b03908116911614919050565b600080611e9b838501856134a6565b9050611ea86020826139a4565b600003611ecb57611ec3611ebe848381886139c6565b611e8c565b91505061061c565b611ec383850185613a04565b600080611ee48484611e8c565b90506000806000611ef58787612851565b919450925090506000600285600e811115611f1257611f126138c4565b14612253576000600386600e811115611f2d57611f2d6138c4565b03611f72576000611f3e8a8a6128ff565b60209081015160008d815260d2835260408082206001600160a01b03808b1684529452902054909116935091506120d29050565b6000611f7e8a8a6129d0565b60208082015160008e815260d2835260408082206001600160a01b03808c1684529452902054909116945092509050826120d05760cd54600160a01b900460ff1661200b5760405162461bcd60e51b815260206004820152601c60248201527f4175746f6d61746963206465706c6f792069732064697361626c6564000000006044820152606401610656565b806040015160000151816040015160400151604051612029906132c4565b612034929190613a1f565b604051809103906000f080158015612050573d6000803e3d6000fd5b5060008c815260d2602090815260408083206001600160a01b038a811680865291845282852080546001600160a01b031916918716918217905580855260d1909352818420805460ff191660011790559051939650909290918e917f817384d3c8c32b58342425cd864f5540355cc93dfbbfc2df8763793d2d3a5e129190a45b505b6001600160a01b038216600090815260d06020526040902054811461210d576001600160a01b038216600090815260d0602052604090208190555b60008061217b846001600160a01b03166318160ddd6040518163ffffffff1660e01b8152600401602060405180830381865afa158015612151573d6000803e3d6000fd5b505050506040513d601f19601f82011682018060405250810190612175919061392b565b86612abd565b90925090508180156121a557506001600160a01b038416600090815260d060205260409020548111155b6121e95760405162461bcd60e51b8152602060048201526015602482015274151bdd185b081cdd5c1c1b1e48195e18d959591959605a1b6044820152606401610656565b6040516340c10f1960e01b81526001600160a01b038881166004830152602482018790528516906340c10f1990604401600060405180830381600087803b15801561223357600080fd5b505af1158015612247573d6000803e3d6000fd5b50505050505050612410565b6001600160a01b0383163b1515801561227f5750600089815260d46020526040902061227f9084612ae6565b6122cb5760405162461bcd60e51b815260206004820152601a60248201527f496e636f7272656374206d61696e20636861696e20746f6b656e0000000000006044820152606401610656565b6040516370a0823160e01b815230600482015282906001600160a01b038516906370a0823190602401602060405180830381865afa158015612311573d6000803e3d6000fd5b505050506040513d601f19601f82011682018060405250810190612335919061392b565b10156123765760405162461bcd60e51b815260206004820152601060248201526f4e6f7420656e6f756768206d6f6e657960801b6044820152606401610656565b612381898484612b08565b60405163a9059cbb60e01b81526001600160a01b0385811660048301526024820184905284169063a9059cbb906044016020604051808303816000875af11580156123d0573d6000803e3d6000fd5b505050506040513d601f19601f820116820180604052508101906123f49190613909565b6124105760405162461bcd60e51b815260040161065690613944565b806001600160a01b0316836001600160a01b03168a7f131b32ac87206ff25b3250e2d194c4cc6d63e928ab212dbd294b03b49af27b488560405161245691815260200190565b60405180910390a460c95460405163e051116b60e01b81526001600160a01b0386811660048301529091169063e051116b90602401600060405180830381600087803b1580156124a557600080fd5b505af11580156124b9573d6000803e3d6000fd5b50959b9a5050505050505050505050565b6000610dc58383612b3a565b600061061c825490565b6040805160a08101825260026080820190815281526001600160a01b03808616602080840191909152908516828401526060808301859052925161252691839101613a97565b6040516020818303038152906040529150509392505050565b606060008490506000816001600160a01b03166318160ddd6040518163ffffffff1660e01b8152600401602060405180830381865afa158015612586573d6000803e3d6000fd5b505050506040513d601f19601f820116820180604052508101906125aa919061392b565b9050808411156125f25760405162461bcd60e51b8152602060048201526013602482015272105b5bdd5b9d081a5cc81a5b98dbdc9c9958dd606a1b6044820152606401610656565b600087815260d46020526040812061260a9088612ae6565b90508061263f5761261b8888612b64565b61263887878761262a87612c75565b61263388612cd9565b612e43565b9350612656565b61265387878761264e87612c75565b612eb9565b93505b866001600160a01b0316887f759c7e29aa34dec4bb9f3af86e647e11cffa0fee371049fd55e8779a2c24484e8760405161269291815260200190565b60405180910390a3505050949350505050565b600083815260d3602090815260408083206001600160a01b0386168452909152812080548392906126d7908490613abb565b9091555050505050565b6126eb8282610dcc565b610813576126f881612f2a565b612703836020612f3c565b604051602001612714929190613ace565b60408051601f198184030181529082905262461bcd60e51b825261065691600401613628565b6127448282610dcc565b6108135760008281526065602090815260408083206001600160a01b03851684529091529020805460ff1916600117905561277c3390565b6001600160a01b0316816001600160a01b0316837f2f8788117e7eff1d82e926ec794901d17c78024a50270940304540a733656f0d60405160405180910390a45050565b6000610dc5836001600160a01b0384166130d7565b6127df8282610dcc565b156108135760008281526065602090815260408083206001600160a01b0385168085529252808320805460ff1916905551339285917ff6391f5c32d9c69d2a47ea670b442974b53935d1edc7fd64eb21e047a839171b9190a45050565b6000610dc5836001600160a01b038416613126565b6000806000806128618686611e8c565b9050600281600e811115612877576128776138c4565b036128a65760006128888787613219565b905080604001518160200151826060015194509450945050506128f8565b600381600e8111156128ba576128ba6138c4565b036128ec5760006128cb87876128ff565b516040810151602082015160609092015190965090945092506128f8915050565b60006128cb87876129d0565b9250925092565b61293e6040805160e081018252600060c08201818152928201928352606082018190526080820181905260a08201529081908152602001600081525090565b600361294a8484611e8c565b600e81111561295b5761295b6138c4565b146129c45760405162461bcd60e51b815260206004820152603360248201527f4d6573736167652074797065206973206e6f74204552433230207472616e7366604482015272657220616e6420746f74616c20737570706c7960681b6064820152608401610656565b610dc582840184613be2565b612a2c6040805161010081018252600060e0820181815260608084019182526080840183905260a0840183905260c084018390529083526020808401839052845180830186528281529081019290925281840152909182015290565b6004612a388484611e8c565b600e811115612a4957612a496138c4565b14612ab15760405162461bcd60e51b815260206004820152603260248201527f4d6573736167652074797065206973206e6f74204552433230207472616e73666044820152716572207769746820746f6b656e20696e666f60701b6064820152608401610656565b610dc582840184613c48565b60008083830184811015612ad8576000809250925050612adf565b6001925090505b9250929050565b6001600160a01b03811660009081526001830160205260408120541515610dc5565b600083815260d3602090815260408083206001600160a01b0386168452909152812080548392906126d7908490613d4b565b6000826000018281548110612b5157612b51613d5e565b9060005260206000200154905092915050565b6001600160a01b0381163b612bbb5760405162461bcd60e51b815260206004820152601f60248201527f476976656e2061646472657373206973206e6f74206120636f6e7472616374006044820152606401610656565b600082815260d460205260409020612bd39082612ae6565b15612c205760405162461bcd60e51b815260206004820152601d60248201527f455243323020546f6b656e2077617320616c72656164792061646465640000006044820152606401610656565b600082815260d460205260409020612c3890826127c0565b506040516000906001600160a01b0383169084907f89b97f12155170c72b8eb3449d5f1ba0c6a29e5546051dc35694313b1b60741f908490a45050565b6000816001600160a01b03166318160ddd6040518163ffffffff1660e01b8152600401602060405180830381865afa158015612cb5573d6000803e3d6000fd5b505050506040513d601f19601f8201168201806040525081019061061c919061392b565b604080516060808201835280825260006020830152918101919091526040518060600160405280836001600160a01b03166306fdde036040518163ffffffff1660e01b8152600401600060405180830381865afa158015612d3e573d6000803e3d6000fd5b505050506040513d6000823e601f3d908101601f19168201604052612d669190810190613d74565b8152602001836001600160a01b031663313ce5676040518163ffffffff1660e01b8152600401602060405180830381865afa158015612da9573d6000803e3d6000fd5b505050506040513d601f19601f82011682018060405250810190612dcd9190613de1565b60ff168152602001836001600160a01b03166395d89b416040518163ffffffff1660e01b8152600401600060405180830381865afa158015612e13573d6000803e3d6000fd5b505050506040513d6000823e601f3d908101601f19168201604052612e3b9190810190613d74565b905292915050565b6040805161010081018252600460e0820190815260608083019182526001600160a01b03808a166080850152881660a084015260c08301879052908252602080830186905282840185905292519092612e9e91839101613dfe565b60405160208183030381529060405291505095945050505050565b6040805160e081018252600360c082019081528183019081526001600160a01b03808816606080850191909152908716608084015260a08301869052908252602080830185905292519092612f1091839101613e6c565b604051602081830303815290604052915050949350505050565b606061061c6001600160a01b03831660145b60606000612f4b836002613e8f565b612f56906002613abb565b6001600160401b03811115612f6d57612f6d6132fb565b6040519080825280601f01601f191660200182016040528015612f97576020820181803683370190505b509050600360fc1b81600081518110612fb257612fb2613d5e565b60200101906001600160f81b031916908160001a905350600f60fb1b81600181518110612fe157612fe1613d5e565b60200101906001600160f81b031916908160001a9053506000613005846002613e8f565b613010906001613abb565b90505b6001811115613088576f181899199a1a9b1b9c1cb0b131b232b360811b85600f166010811061304457613044613d5e565b1a60f81b82828151811061305a5761305a613d5e565b60200101906001600160f81b031916908160001a90535060049490941c9361308181613ea6565b9050613013565b508315610dc55760405162461bcd60e51b815260206004820181905260248201527f537472696e67733a20686578206c656e67746820696e73756666696369656e746044820152606401610656565b600081815260018301602052604081205461311e5750815460018181018455600084815260208082209093018490558454848252828601909352604090209190915561061c565b50600061061c565b6000818152600183016020526040812054801561320f57600061314a600183613d4b565b855490915060009061315e90600190613d4b565b90508181146131c357600086600001828154811061317e5761317e613d5e565b90600052602060002001549050808760000184815481106131a1576131a1613d5e565b6000918252602080832090910192909255918252600188019052604090208390555b85548690806131d4576131d4613ebd565b60019003818190600052602060002001600090559055856001016000868152602001908152602001600020600090556001935050505061061c565b600091505061061c565b6040805160a0810182526000608082018181528252602082018190529181018290526060810191909152600261324f8484611e8c565b600e811115613260576132606138c4565b146132b85760405162461bcd60e51b815260206004820152602260248201527f4d6573736167652074797065206973206e6f74204552433230207472616e736660448201526132b960f11b6064820152608401610656565b610dc582840184613ed3565b611bc580613ef083390190565b6000602082840312156132e357600080fd5b81356001600160e01b031981168114610dc557600080fd5b634e487b7160e01b600052604160045260246000fd5b604051602081016001600160401b0381118282101715613333576133336132fb565b60405290565b604051606081016001600160401b0381118282101715613333576133336132fb565b604051601f8201601f191681016001600160401b0381118282101715613383576133836132fb565b604052919050565b60006001600160401b038211156133a4576133a46132fb565b50601f01601f191660200190565b600082601f8301126133c357600080fd5b81356133d66133d18261338b565b61335b565b8181528460208386010111156133eb57600080fd5b816020850160208301376000918101602001919091529392505050565b6001600160a01b0381168114611d4157600080fd5b600080600080600060a0868803121561343557600080fd5b85356001600160401b0381111561344b57600080fd5b613457888289016133b2565b955050602086013561346881613408565b9350604086013561347881613408565b9250606086013561348881613408565b9150608086013561349881613408565b809150509295509295909350565b6000602082840312156134b857600080fd5b5035919050565b600080600080608085870312156134d557600080fd5b8435935060208501356134e781613408565b92506040850135915060608501356134fe81613408565b939692955090935050565b6000806040838503121561351c57600080fd5b82359150602083013561352e81613408565b809150509250929050565b60008083601f84011261354b57600080fd5b5081356001600160401b0381111561356257600080fd5b602083019150836020828501011115612adf57600080fd5b6000806020838503121561358d57600080fd5b82356001600160401b038111156135a357600080fd5b6135af85828601613539565b90969095509350505050565b6000602082840312156135cd57600080fd5b8135610dc581613408565b60005b838110156135f35781810151838201526020016135db565b50506000910152565b600081518084526136148160208601602086016135d8565b601f01601f19169290920160200192915050565b602081526000610dc560208301846135fc565b6000806040838503121561364e57600080fd5b823561365981613408565b946020939093013593505050565b60008060008060006080868803121561367f57600080fd5b85356001600160401b0381111561369557600080fd5b6136a188828901613539565b90965094505060208601356136b581613408565b925060408601359150606086013561349881613408565b600080600080606085870312156136e257600080fd5b84356001600160401b038111156136f857600080fd5b61370487828801613539565b909550935050602085013561371881613408565b9396929550929360400135925050565b6000806000806060858703121561373e57600080fd5b84359350602085013561375081613408565b925060408501356001600160401b0381111561376b57600080fd5b61377787828801613539565b95989497509550505050565b6000806040838503121561379657600080fd5b50508035926020909101359150565b6000806000604084860312156137ba57600080fd5b83356001600160401b038111156137d057600080fd5b6137dc86828701613539565b90945092505060208401356137f081613408565b809150509250925092565b6000806000806060858703121561381157600080fd5b84356001600160401b0381111561382757600080fd5b61383387828801613539565b909550935050602085013561384781613408565b915060408501356134fe81613408565b60208082526021908201527f4155544f4d415449435f4445504c4f595f524f4c4520697320726571756972656040820152601960fa1b606082015260800190565b600082516138aa8184602087016135d8565b9190910192915050565b8183823760009101908152919050565b634e487b7160e01b600052602160045260246000fd5b60208152816020820152818360408301376000818301604090810191909152601f909201601f19160101919050565b60006020828403121561391b57600080fd5b81518015158114610dc557600080fd5b60006020828403121561393d57600080fd5b5051919050565b602080825260139082015272151c985b9cd9995c881dd85cc819985a5b1959606a1b604082015260600190565b8381526001600160a01b038316602082015260606040820181905260009061399b908301846135fc565b95945050505050565b6000826139c157634e487b7160e01b600052601260045260246000fd5b500690565b600080858511156139d657600080fd5b838611156139e357600080fd5b5050820193919092039150565b8035600f81106139ff57600080fd5b919050565b600060208284031215613a1657600080fd5b610dc5826139f0565b604081526000613a3260408301856135fc565b828103602084015261399b81856135fc565b805151600f8110613a6557634e487b7160e01b600052602160045260246000fd5b82526020818101516001600160a01b039081169184019190915260408083015190911690830152606090810151910152565b6080810161061c8284613a44565b634e487b7160e01b600052601160045260246000fd5b8082018082111561061c5761061c613aa5565b7f416363657373436f6e74726f6c3a206163636f756e7420000000000000000000815260008351613b068160178501602088016135d8565b7001034b99036b4b9b9b4b733903937b6329607d1b6017918401918201528351613b378160288401602088016135d8565b01602801949350505050565b60008183036080811215613b5657600080fd5b604051608081016001600160401b0381118282101715613b7857613b786132fb565b6040529150816020821215613b8c57600080fd5b613b94613311565b9150613b9f846139f0565b8252908152602083013590613bb382613408565b81602082015260408401359150613bc982613408565b6040810191909152606092830135920191909152919050565b600060a0828403128015613bf557600080fd5b50604080519081016001600160401b0381118282101715613c1857613c186132fb565b604052613c258484613b43565b815260809290920135602083015250919050565b60ff81168114611d4157600080fd5b600060208284031215613c5a57600080fd5b81356001600160401b03811115613c7057600080fd5b820160c08185031215613c8257600080fd5b613c8a613339565b613c948583613b43565b81526080820135602082015260a08201356001600160401b03811115613cb957600080fd5b919091019060608286031215613cce57600080fd5b613cd6613339565b82356001600160401b03811115613cec57600080fd5b613cf8878286016133b2565b8252506020830135613d0981613c39565b602082015260408301356001600160401b03811115613d2757600080fd5b613d33878286016133b2565b60408301525080604083015250809250505092915050565b8181038181111561061c5761061c613aa5565b634e487b7160e01b600052603260045260246000fd5b600060208284031215613d8657600080fd5b81516001600160401b03811115613d9c57600080fd5b8201601f81018413613dad57600080fd5b8051613dbb6133d18261338b565b818152856020838501011115613dd057600080fd5b61399b8260208301602086016135d8565b600060208284031215613df357600080fd5b8151610dc581613c39565b60208152613e10602082018351613a44565b602082015160a08201526000604083015160c0808401528051606060e0850152613e3e6101408501826135fc565b602083015160ff1661010086015260409092015184830360df190161012086015291905061399b81836135fc565b600060a082019050613e7f828451613a44565b6020830151608083015292915050565b808202811582820484141761061c5761061c613aa5565b600081613eb557613eb5613aa5565b506000190190565b634e487b7160e01b600052603160045260246000fd5b600060808284031215613ee557600080fd5b610dc58383613b4356fe608060405234801561001057600080fd5b50604051611bc5380380611bc583398101604081905261002f91610504565b600054610100900460ff161580801561004f5750600054600160ff909116105b806100695750303b158015610069575060005460ff166001145b6100d15760405162461bcd60e51b815260206004820152602e60248201527f496e697469616c697a61626c653a20636f6e747261637420697320616c72656160448201526d191e481a5b9a5d1a585b1a5e995960921b60648201526084015b60405180910390fd5b6000805460ff1916600117905580156100f4576000805461ff0019166101001790555b6100fc61018c565b61010683836101e7565b61010e61018c565b610126600080516020611ba58339815191528061024e565b61013e600080516020611ba583398151915233610299565b8015610184576000805461ff0019169055604051600181527f7f26b83ff96e1f2b6a682f133852f6798a09c465da95921460cefb38474024989060200160405180910390a15b5050506106b3565b600054610100900460ff166101e55760405162461bcd60e51b815260206004820152602b6024820152600080516020611b8583398151915260448201526a6e697469616c697a696e6760a81b60648201526084016100c8565b565b600054610100900460ff166102405760405162461bcd60e51b815260206004820152602b6024820152600080516020611b8583398151915260448201526a6e697469616c697a696e6760a81b60648201526084016100c8565b61024a82826102a3565b5050565b600082815260656020526040808220600101805490849055905190918391839186917fbd79b86ffe0ab8e8776151514217cd7cacd52c909f66475c3af44e129f0b00ff9190a4505050565b61024a828261031a565b600054610100900460ff166102fc5760405162461bcd60e51b815260206004820152602b6024820152600080516020611b8583398151915260448201526a6e697469616c697a696e6760a81b60648201526084016100c8565b60cc61030883826105f5565b5060cd61031582826105f5565b505050565b610324828261033c565b600082815260976020526040902061031590826103de565b60008281526065602090815260408083206001600160a01b038516845290915290205460ff1661024a5760008281526065602090815260408083206001600160a01b03851684529091529020805460ff1916600117905561039a3390565b6001600160a01b0316816001600160a01b0316837f2f8788117e7eff1d82e926ec794901d17c78024a50270940304540a733656f0d60405160405180910390a45050565b60006103f3836001600160a01b0384166103fc565b90505b92915050565b6000818152600183016020526040812054610443575081546001818101845560008481526020808220909301849055845484825282860190935260409020919091556103f6565b5060006103f6565b634e487b7160e01b600052604160045260246000fd5b600082601f83011261047257600080fd5b81516001600160401b0381111561048b5761048b61044b565b604051601f8201601f19908116603f011681016001600160401b03811182821017156104b9576104b961044b565b6040528181528382016020018510156104d157600080fd5b60005b828110156104f0576020818601810151838301820152016104d4565b506000918101602001919091529392505050565b6000806040838503121561051757600080fd5b82516001600160401b0381111561052d57600080fd5b61053985828601610461565b602085015190935090506001600160401b0381111561055757600080fd5b61056385828601610461565b9150509250929050565b600181811c9082168061058157607f821691505b6020821081036105a157634e487b7160e01b600052602260045260246000fd5b50919050565b601f82111561031557806000526020600020601f840160051c810160208510156105ce5750805b601f840160051c820191505b818110156105ee57600081556001016105da565b5050505050565b81516001600160401b0381111561060e5761060e61044b565b6106228161061c845461056d565b846105a7565b6020601f821160018114610656576000831561063e5750848201515b600019600385901b1c1916600184901b1784556105ee565b600084815260208120601f198516915b828110156106865787850151825560209485019460019092019101610666565b50848210156106a45786840151600019600387901b60f8161c191681555b50505050600190811b01905550565b6114c3806106c26000396000f3fe608060405234801561001057600080fd5b50600436106101585760003560e01c806370a08231116100c3578063a457c2d71161007c578063a457c2d7146102ef578063a9059cbb14610302578063ca15c87314610315578063d539139314610328578063d547741f1461034f578063dd62ed3e1461036257600080fd5b806370a082311461026557806379cc67901461028e5780639010d07c146102a157806391d14854146102cc57806395d89b41146102df578063a217fddf146102e757600080fd5b80632f2ff15d116101155780632f2ff15d146101f5578063313ce5671461020a57806336568abe14610219578063395093511461022c57806340c10f191461023f57806342966c681461025257600080fd5b806301ffc9a71461015d57806306fdde0314610185578063095ea7b31461019a57806318160ddd146101ad57806323b872dd146101bf578063248a9ca3146101d2575b600080fd5b61017061016b366004611182565b610375565b60405190151581526020015b60405180910390f35b61018d6103a0565b60405161017c91906111d0565b6101706101a836600461121f565b610432565b60cb545b60405190815260200161017c565b6101706101cd366004611249565b61044a565b6101b16101e0366004611286565b60009081526065602052604090206001015490565b61020861020336600461129f565b61046e565b005b6040516012815260200161017c565b61020861022736600461129f565b610498565b61017061023a36600461121f565b61051b565b61020861024d36600461121f565b61053d565b610208610260366004611286565b6105b6565b6101b16102733660046112cb565b6001600160a01b0316600090815260c9602052604090205490565b61020861029c36600461121f565b6105c3565b6102b46102af3660046112e6565b6105d8565b6040516001600160a01b03909116815260200161017c565b6101706102da36600461129f565b6105f7565b61018d610622565b6101b1600081565b6101706102fd36600461121f565b610631565b61017061031036600461121f565b6106ac565b6101b1610323366004611286565b6106ba565b6101b17f9f2df0fed2c77648de5860a4cc508cd0818c85b8b8a1ab4ceeef8d981c8956a681565b61020861035d36600461129f565b6106d1565b6101b1610370366004611308565b6106f6565b60006001600160e01b03198216635a05180f60e01b148061039a575061039a82610721565b92915050565b606060cc80546103af90611332565b80601f01602080910402602001604051908101604052809291908181526020018280546103db90611332565b80156104285780601f106103fd57610100808354040283529160200191610428565b820191906000526020600020905b81548152906001019060200180831161040b57829003601f168201915b5050505050905090565b600033610440818585610756565b5060019392505050565b60003361045885828561087a565b6104638585856108f4565b506001949350505050565b60008281526065602052604090206001015461048981610a9f565b6104938383610aa9565b505050565b6001600160a01b038116331461050d5760405162461bcd60e51b815260206004820152602f60248201527f416363657373436f6e74726f6c3a2063616e206f6e6c792072656e6f756e636560448201526e103937b632b9903337b91039b2b63360891b60648201526084015b60405180910390fd5b6105178282610acb565b5050565b60003361044081858561052e83836106f6565b6105389190611382565b610756565b6105677f9f2df0fed2c77648de5860a4cc508cd0818c85b8b8a1ab4ceeef8d981c8956a6336105f7565b6105ac5760405162461bcd60e51b815260206004820152601660248201527529b2b73232b91034b9903737ba10309026b4b73a32b960511b6044820152606401610504565b6105178282610aed565b6105c03382610bae565b50565b6105ce82338361087a565b6105178282610bae565b60008281526097602052604081206105f09083610ce2565b9392505050565b60009182526065602090815260408084206001600160a01b0393909316845291905290205460ff1690565b606060cd80546103af90611332565b6000338161063f82866106f6565b90508381101561069f5760405162461bcd60e51b815260206004820152602560248201527f45524332303a2064656372656173656420616c6c6f77616e63652062656c6f77604482015264207a65726f60d81b6064820152608401610504565b6104638286868403610756565b6000336104408185856108f4565b600081815260976020526040812061039a90610cee565b6000828152606560205260409020600101546106ec81610a9f565b6104938383610acb565b6001600160a01b03918216600090815260ca6020908152604080832093909416825291909152205490565b60006001600160e01b03198216637965db0b60e01b148061039a57506301ffc9a760e01b6001600160e01b031983161461039a565b6001600160a01b0383166107b85760405162461bcd60e51b8152602060048201526024808201527f45524332303a20617070726f76652066726f6d20746865207a65726f206164646044820152637265737360e01b6064820152608401610504565b6001600160a01b0382166108195760405162461bcd60e51b815260206004820152602260248201527f45524332303a20617070726f766520746f20746865207a65726f206164647265604482015261737360f01b6064820152608401610504565b6001600160a01b03838116600081815260ca602090815260408083209487168084529482529182902085905590518481527f8c5be1e5ebec7d5bd14f71427d1e84f3dd0314c0f7b2291e5b200ac8c7c3b925910160405180910390a3505050565b600061088684846106f6565b905060001981146108ee57818110156108e15760405162461bcd60e51b815260206004820152601d60248201527f45524332303a20696e73756666696369656e7420616c6c6f77616e63650000006044820152606401610504565b6108ee8484848403610756565b50505050565b6001600160a01b0383166109585760405162461bcd60e51b815260206004820152602560248201527f45524332303a207472616e736665722066726f6d20746865207a65726f206164604482015264647265737360d81b6064820152608401610504565b6001600160a01b0382166109ba5760405162461bcd60e51b815260206004820152602360248201527f45524332303a207472616e7366657220746f20746865207a65726f206164647260448201526265737360e81b6064820152608401610504565b6001600160a01b038316600090815260c9602052604090205481811015610a325760405162461bcd60e51b815260206004820152602660248201527f45524332303a207472616e7366657220616d6f756e7420657863656564732062604482015265616c616e636560d01b6064820152608401610504565b6001600160a01b03808516600081815260c9602052604080822086860390559286168082529083902080548601905591517fddf252ad1be2c89b69c2b068fc378daa952ba7f163c4a11628f55a4df523b3ef90610a929086815260200190565b60405180910390a36108ee565b6105c08133610cf8565b610ab38282610d51565b60008281526097602052604090206104939082610dd7565b610ad58282610dec565b60008281526097602052604090206104939082610e53565b6001600160a01b038216610b435760405162461bcd60e51b815260206004820152601f60248201527f45524332303a206d696e7420746f20746865207a65726f2061646472657373006044820152606401610504565b8060cb6000828254610b559190611382565b90915550506001600160a01b038216600081815260c960209081526040808320805486019055518481527fddf252ad1be2c89b69c2b068fc378daa952ba7f163c4a11628f55a4df523b3ef910160405180910390a35050565b6001600160a01b038216610c0e5760405162461bcd60e51b815260206004820152602160248201527f45524332303a206275726e2066726f6d20746865207a65726f206164647265736044820152607360f81b6064820152608401610504565b6001600160a01b038216600090815260c9602052604090205481811015610c825760405162461bcd60e51b815260206004820152602260248201527f45524332303a206275726e20616d6f756e7420657863656564732062616c616e604482015261636560f01b6064820152608401610504565b6001600160a01b038316600081815260c960209081526040808320868603905560cb80548790039055518581529192917fddf252ad1be2c89b69c2b068fc378daa952ba7f163c4a11628f55a4df523b3ef910160405180910390a3505050565b60006105f08383610e68565b600061039a825490565b610d0282826105f7565b61051757610d0f81610e92565b610d1a836020610ea4565b604051602001610d2b929190611395565b60408051601f198184030181529082905262461bcd60e51b8252610504916004016111d0565b610d5b82826105f7565b6105175760008281526065602090815260408083206001600160a01b03851684529091529020805460ff19166001179055610d933390565b6001600160a01b0316816001600160a01b0316837f2f8788117e7eff1d82e926ec794901d17c78024a50270940304540a733656f0d60405160405180910390a45050565b60006105f0836001600160a01b038416611040565b610df682826105f7565b156105175760008281526065602090815260408083206001600160a01b0385168085529252808320805460ff1916905551339285917ff6391f5c32d9c69d2a47ea670b442974b53935d1edc7fd64eb21e047a839171b9190a45050565b60006105f0836001600160a01b03841661108f565b6000826000018281548110610e7f57610e7f61140a565b9060005260206000200154905092915050565b606061039a6001600160a01b03831660145b60606000610eb3836002611420565b610ebe906002611382565b67ffffffffffffffff811115610ed657610ed6611437565b6040519080825280601f01601f191660200182016040528015610f00576020820181803683370190505b509050600360fc1b81600081518110610f1b57610f1b61140a565b60200101906001600160f81b031916908160001a905350600f60fb1b81600181518110610f4a57610f4a61140a565b60200101906001600160f81b031916908160001a9053506000610f6e846002611420565b610f79906001611382565b90505b6001811115610ff1576f181899199a1a9b1b9c1cb0b131b232b360811b85600f1660108110610fad57610fad61140a565b1a60f81b828281518110610fc357610fc361140a565b60200101906001600160f81b031916908160001a90535060049490941c93610fea8161144d565b9050610f7c565b5083156105f05760405162461bcd60e51b815260206004820181905260248201527f537472696e67733a20686578206c656e67746820696e73756666696369656e746044820152606401610504565b60008181526001830160205260408120546110875750815460018181018455600084815260208082209093018490558454848252828601909352604090209190915561039a565b50600061039a565b600081815260018301602052604081205480156111785760006110b3600183611464565b85549091506000906110c790600190611464565b905081811461112c5760008660000182815481106110e7576110e761140a565b906000526020600020015490508087600001848154811061110a5761110a61140a565b6000918252602080832090910192909255918252600188019052604090208390555b855486908061113d5761113d611477565b60019003818190600052602060002001600090559055856001016000868152602001908152602001600020600090556001935050505061039a565b600091505061039a565b60006020828403121561119457600080fd5b81356001600160e01b0319811681146105f057600080fd5b60005b838110156111c75781810151838201526020016111af565b50506000910152565b60208152600082518060208401526111ef8160408501602087016111ac565b601f01601f19169190910160400192915050565b80356001600160a01b038116811461121a57600080fd5b919050565b6000806040838503121561123257600080fd5b61123b83611203565b946020939093013593505050565b60008060006060848603121561125e57600080fd5b61126784611203565b925061127560208501611203565b929592945050506040919091013590565b60006020828403121561129857600080fd5b5035919050565b600080604083850312156112b257600080fd5b823591506112c260208401611203565b90509250929050565b6000602082840312156112dd57600080fd5b6105f082611203565b600080604083850312156112f957600080fd5b50508035926020909101359150565b6000806040838503121561131b57600080fd5b61132483611203565b91506112c260208401611203565b600181811c9082168061134657607f821691505b60208210810361136657634e487b7160e01b600052602260045260246000fd5b50919050565b634e487b7160e01b600052601160045260246000fd5b8082018082111561039a5761039a61136c565b7f416363657373436f6e74726f6c3a206163636f756e74200000000000000000008152600083516113cd8160178501602088016111ac565b7001034b99036b4b9b9b4b733903937b6329607d1b60179184019182015283516113fe8160288401602088016111ac565b01602801949350505050565b634e487b7160e01b600052603260045260246000fd5b808202811582820484141761039a5761039a61136c565b634e487b7160e01b600052604160045260246000fd5b60008161145c5761145c61136c565b506000190190565b8181038181111561039a5761039a61136c565b634e487b7160e01b600052603160045260246000fdfea2646970667358221220ae2b8203a2ff8c3c10edc3f776c7833dded37b91025d5eb31d4d15c9207aa48064736f6c634300081b0033496e697469616c697a61626c653a20636f6e7472616374206973206e6f7420699f2df0fed2c77648de5860a4cc508cd0818c85b8b8a1ab4ceeef8d981c8956a67164765a3c8bd2513bdfa0c90f1bee9606e920fbf2c9071f310263fbd818684ba26469706673582212202eac3fa77f2f3e15731e4dea60ae4193cf1a74605487f08b00aa3fd74206d84c64736f6c634300081b0033",
  "linkReferences": {},
  "deployedLinkReferences": {}
}