{
  "_format": "hh-sol-artifact-1",
  "contractName": "CommunityLocker",
  "sourceName": "contracts/schain/CommunityLocker.sol",
  "abi": [
    {
      "anonymous": false,
      "inputs": [
        {
          "indexed": false,
          "internalType": "SchainHash",
          "name": "schainHash",
          "type": "bytes32"
        },
        {
          "indexed": false,
          "internalType": "address",
          "name": "user",
          "type": "address"
        }
      ],
      "name": "ActivateUser",
      "type": "event"
    },
    {
      "anonymous": false,
      "inputs": [
        {
          "indexed": true,
          "internalType": "bytes32",
          "name": "constantHash",
          "type": "bytes32"
        },
        {
          "indexed": false,
          "internalType": "uint256",
          "name": "previousValue",
          "type": "uint256"
        },
        {
          "indexed": false,
          "internalType": "uint256",
          "name": "newValue",
          "type": "uint256"
        }
      ],
      "name": "ConstantUpdated",
      "type": "event"
    },
    {
      "anonymous": false,
      "inputs": [
        {
          "indexed": false,
          "internalType": "uint8",
          "name": "version",
          "type": "uint8"
        }
      ],
      "name": "Initialized",
      "type": "event"
    },
    {
      "anonymous": false,
      "inputs": [
        {
          "indexed": false,
          "internalType": "SchainHash",
          "name": "schainHash",
          "type": "bytes32"
        },
        {
          "indexed": false,
          "internalType": "address",
          "name": "user",
          "type": "address"
        }
      ],
      "name": "LockUser",
      "type": "event"
    },
    {
      "anonymous": false,
      "inputs": [
        {
          "indexed": true,
          "internalType": "bytes32",
          "name": "role",
          "type": "bytes32"
        },
        {
          "indexed": true,
          "internalType": "bytes32",
          "name": "previousAdminRole",
          "type": "bytes32"
        },
        {
          "indexed": true,
          "internalType": "bytes32",
          "name": "newAdminRole",
          "type": "bytes32"
        }
      ],
      "name": "RoleAdminChanged",
      "type": "event"
    },
    {
      "anonymous": false,
      "inputs": [
        {
          "indexed": true,
          "internalType": "bytes32",
          "name": "role",
          "type": "bytes32"
        },
        {
          "indexed": true,
          "internalType": "address",
          "name": "account",
          "type": "address"
        },
        {
          "indexed": true,
          "internalType": "address",
          "name": "sender",
          "type": "address"
        }
      ],
      "name": "RoleGranted",
      "type": "event"
    },
    {
      "anonymous": false,
      "inputs": [
        {
          "indexed": true,
          "internalType": "bytes32",
          "name": "role",
          "type": "bytes32"
        },
        {
          "indexed": true,
          "internalType": "address",
          "name": "account",
          "type": "address"
        },
        {
          "indexed": true,
          "internalType": "address",
          "name": "sender",
          "type": "address"
        }
      ],
      "name": "RoleRevoked",
      "type": "event"
    },
    {
      "inputs": [],
      "name": "CONSTANT_SETTER_ROLE",
      "outputs": [
        {
          "internalType": "bytes32",
          "name": "",
          "type": "bytes32"
        }
      ],
      "stateMutability": "view",
      "type": "function"
    },
    {
      "inputs": [],
      "name": "DEFAULT_ADMIN_ROLE",
      "outputs": [
        {
          "internalType": "bytes32",
          "name": "",
          "type": "bytes32"
        }
      ],
      "stateMutability": "view",
      "type": "function"
    },
    {
      "inputs": [],
      "name": "MAINNET_HASH",
      "outputs": [
        {
          "internalType": "SchainHash",
          "name": "",
          "type": "bytes32"
        }
      ],
      "stateMutability": "view",
      "type": "function"
    },
    {
      "inputs": [],
      "name": "MAINNET_NAME",
      "outputs": [
        {
          "internalType": "string",
          "name": "",
          "type": "string"
        }
      ],
      "stateMutability": "view",
      "type": "function"
    },
    {
      "inputs": [
        {
          "internalType": "address",
          "name": "",
          "type": "address"
        }
      ],
      "name": "activeUsers",
      "outputs": [
        {
          "internalType": "bool",
          "name": "",
          "type": "bool"
        }
      ],
      "stateMutability": "view",
      "type": "function"
    },
    {
      "inputs": [
        {
          "internalType": "SchainHash",
          "name": "chainHash",
          "type": "bytes32"
        },
        {
          "internalType": "address",
          "name": "receiver",
          "type": "address"
        }
      ],
      "name": "checkAllowedToSendMessage",
      "outputs": [],
      "stateMutability": "nonpayable",
      "type": "function"
    },
    {
      "inputs": [],
      "name": "communityPool",
      "outputs": [
        {
          "internalType": "address",
          "name": "",
          "type": "address"
        }
      ],
      "stateMutability": "view",
      "type": "function"
    },
    {
      "inputs": [],
      "name": "gasPriceTimestamp",
      "outputs": [
        {
          "internalType": "uint256",
          "name": "",
          "type": "uint256"
        }
      ],
      "stateMutability": "view",
      "type": "function"
    },
    {
      "inputs": [
        {
          "internalType": "bytes32",
          "name": "role",
          "type": "bytes32"
        }
      ],
      "name": "getRoleAdmin",
      "outputs": [
        {
          "internalType": "bytes32",
          "name": "",
          "type": "bytes32"
        }
      ],
      "stateMutability": "view",
      "type": "function"
    },
    {
      "inputs": [
        {
          "internalType": "bytes32",
          "name": "role",
          "type": "bytes32"
        },
        {
          "internalType": "uint256",
          "name": "index",
          "type": "uint256"
        }
      ],
      "name": "getRoleMember",
      "outputs": [
        {
          "internalType": "address",
          "name": "",
          "type": "address"
        }
      ],
      "stateMutability": "view",
      "type": "function"
    },
    {
      "inputs": [
        {
          "internalType": "bytes32",
          "name": "role",
          "type": "bytes32"
        }
      ],
      "name": "getRoleMemberCount",
      "outputs": [
        {
          "internalType": "uint256",
          "name": "",
          "type": "uint256"
        }
      ],
      "stateMutability": "view",
      "type": "function"
    },
    {
      "inputs": [
        {
          "internalType": "bytes32",
          "name": "role",
          "type": "bytes32"
        },
        {
          "internalType": "address",
          "name": "account",
          "type": "address"
        }
      ],
      "name": "grantRole",
      "outputs": [],
      "stateMutability": "nonpayable",
      "type": "function"
    },
    {
      "inputs": [
        {
          "internalType": "bytes32",
          "name": "role",
          "type": "bytes32"
        },
        {
          "internalType": "address",
          "name": "account",
          "type": "address"
        }
      ],
      "name": "hasRole",
      "outputs": [
        {
          "internalType": "bool",
          "name": "",
          "type": "bool"
        }
      ],
      "stateMutability": "view",
      "type": "function"
    },
    {
      "inputs": [
        {
          "internalType": "string",
          "name": "newSchainName",
          "type": "string"
        },
        {
          "internalType": "contract IMessageProxyForSchain",
          "name": "newMessageProxy",
          "type": "address"
        },
        {
          "internalType": "contract ITokenManagerLinker",
          "name": "newTokenManagerLinker",
          "type": "address"
        },
        {
          "internalType": "address",
          "name": "newCommunityPool",
          "type": "address"
        }
      ],
      "name": "initialize",
      "outputs": [],
      "stateMutability": "nonpayable",
      "type": "function"
    },
    {
      "inputs": [],
      "name": "initializeTimestamp",
      "outputs": [],
      "stateMutability": "nonpayable",
      "type": "function"
    },
    {
      "inputs": [
        {
          "internalType": "address",
          "name": "",
          "type": "address"
        }
      ],
      "name": "lastMessageTimeStamp",
      "outputs": [
        {
          "internalType": "uint256",
          "name": "",
          "type": "uint256"
        }
      ],
      "stateMutability": "view",
      "type": "function"
    },
    {
      "inputs": [
        {
          "internalType": "SchainHash",
          "name": "",
          "type": "bytes32"
        },
        {
          "internalType": "address",
          "name": "",
          "type": "address"
        }
      ],
      "name": "lastMessageTimeStampToSchain",
      "outputs": [
        {
          "internalType": "uint256",
          "name": "",
          "type": "uint256"
        }
      ],
      "stateMutability": "view",
      "type": "function"
    },
    {
      "inputs": [],
      "name": "mainnetGasPrice",
      "outputs": [
        {
          "internalType": "uint256",
          "name": "",
          "type": "uint256"
        }
      ],
      "stateMutability": "view",
      "type": "function"
    },
    {
      "inputs": [],
      "name": "messageProxy",
      "outputs": [
        {
          "internalType": "contract IMessageProxyForSchain",
          "name": "",
          "type": "address"
        }
      ],
      "stateMutability": "view",
      "type": "function"
    },
    {
      "inputs": [
        {
          "internalType": "SchainHash",
          "name": "fromChainHash",
          "type": "bytes32"
        },
        {
          "internalType": "address",
          "name": "sender",
          "type": "address"
        },
        {
          "internalType": "bytes",
          "name": "data",
          "type": "bytes"
        }
      ],
      "name": "postMessage",
      "outputs": [],
      "stateMutability": "nonpayable",
      "type": "function"
    },
    {
      "inputs": [
        {
          "internalType": "bytes32",
          "name": "role",
          "type": "bytes32"
        },
        {
          "internalType": "address",
          "name": "account",
          "type": "address"
        }
      ],
      "name": "renounceRole",
      "outputs": [],
      "stateMutability": "nonpayable",
      "type": "function"
    },
    {
      "inputs": [
        {
          "internalType": "bytes32",
          "name": "role",
          "type": "bytes32"
        },
        {
          "internalType": "address",
          "name": "account",
          "type": "address"
        }
      ],
      "name": "revokeRole",
      "outputs": [],
      "stateMutability": "nonpayable",
      "type": "function"
    },
    {
      "inputs": [],
      "name": "schainHash",
      "outputs": [
        {
          "internalType": "SchainHash",
          "name": "",
          "type": "bytes32"
        }
      ],
      "stateMutability": "view",
      "type": "function"
    },
    {
      "inputs": [
        {
          "internalType": "uint256",
          "name": "gasPrice",
          "type": "uint256"
        },
        {
          "internalType": "uint256",
          "name": "timestamp",
          "type": "uint256"
        },
        {
          "components": [
            {
              "internalType": "uint256[2]",
              "name": "blsSignature",
              "type": "uint256[2]"
            },
            {
              "internalType": "uint256",
              "name": "hashA",
              "type": "uint256"
            },
            {
              "internalType": "uint256",
              "name": "hashB",
              "type": "uint256"
            },
            {
              "internalType": "uint256",
              "name": "counter",
              "type": "uint256"
            }
          ],
          "internalType": "struct IMessageListener.Signature",
          "name": "",
          "type": "tuple"
        }
      ],
      "name": "setGasPrice",
      "outputs": [],
      "stateMutability": "nonpayable",
      "type": "function"
    },
    {
      "inputs": [
        {
          "internalType": "string",
          "name": "chainName",
          "type": "string"
        },
        {
          "internalType": "uint256",
          "name": "newTimeLimitPerMessage",
          "type": "uint256"
        }
      ],
      "name": "setTimeLimitPerMessage",
      "outputs": [],
      "stateMutability": "nonpayable",
      "type": "function"
    },
    {
      "inputs": [
        {
          "internalType": "bytes4",
          "name": "interfaceId",
          "type": "bytes4"
        }
      ],
      "name": "supportsInterface",
      "outputs": [
        {
          "internalType": "bool",
          "name": "",
          "type": "bool"
        }
      ],
      "stateMutability": "view",
      "type": "function"
    },
    {
      "inputs": [
        {
          "internalType": "SchainHash",
          "name": "",
          "type": "bytes32"
        }
      ],
      "name": "timeLimitPerMessage",
      "outputs": [
        {
          "internalType": "uint256",
          "name": "",
          "type": "uint256"
        }
      ],
      "stateMutability": "view",
      "type": "function"
    },
    {
      "inputs": [],
      "name": "tokenManagerLinker",
      "outputs": [
        {
          "internalType": "contract ITokenManagerLinker",
          "name": "",
          "type": "address"
        }
      ],
      "stateMutability": "view",
      "type": "function"
    }
  ],
  "bytecode": "0x6080604052348015600f57600080fd5b50611efa8061001f6000396000f3fe608060405234801561001057600080fd5b50600436106101c45760003560e01c806359315792116100f9578063bbb9267811610097578063d547741f11610071578063d547741f146103f8578063eb0eb8ab1461040b578063f0cfb52e1461042e578063f34822b41461044e57600080fd5b8063bbb92678146103ab578063bbc4e8c2146103be578063ca15c873146103e557600080fd5b80639010d07c116100d35780639010d07c1461037457806391d1485414610387578063a217fddf1461039a578063aebc4bc3146103a257600080fd5b8063593157921461033b5780637304b44d1461034e578063884cee5a1461036157600080fd5b80632f2ff15d1161016657806345ee13821161014057806345ee1382146102c25780634fe5187c146102ca57806350f44280146102f55780635573b8b61461032857600080fd5b80632f2ff15d1461029157806336568abe146102a65780633b690b6b146102b957600080fd5b8063248a9ca3116101a2578063248a9ca31461024a57806328c5e1821461026d5780632d448928146102755780632dc151de1461027e57600080fd5b806301ffc9a7146101c957806314a7eaf6146101f157806314d140b01461021f575b600080fd5b6101dc6101d7366004611829565b610461565b60405190151581526020015b60405180910390f35b6102116101ff366004611853565b60d26020526000908152604090205481565b6040519081526020016101e8565b60cb54610232906001600160a01b031681565b6040516001600160a01b0390911681526020016101e8565b610211610258366004611853565b60009081526065602052604090206001015490565b61021161048c565b61021160d15481565b60ca54610232906001600160a01b031681565b6102a461029f366004611881565b6104d5565b005b6102a46102b4366004611881565b6104ff565b61021160cc5481565b6102a4610582565b6102116102d8366004611881565b60d360209081526000928352604080842090915290825290205481565b61031b6040518060400160405280600781526020016613585a5b9b995d60ca1b81525081565b6040516101e891906118d5565b60c954610232906001600160a01b031681565b6102a4610349366004611881565b610633565b6102a461035c36600461196a565b6108e0565b6102a461036f366004611a14565b610a14565b610232610382366004611aa0565b610d5a565b6101dc610395366004611881565b610d79565b610211600081565b61021160d05481565b6102a46103b9366004611b51565b610da4565b6102117f96e3fc3be15159903e053027cff8a23f39a990e0194abcd8ac1cf1b355b8b93c81565b6102116103f3366004611853565b610f2b565b6102a4610406366004611881565b610f42565b6101dc610419366004611b96565b60ce6020526000908152604090205460ff1681565b61021161043c366004611b96565b60cf6020526000908152604090205481565b6102a461045c366004611bb3565b610f67565b60006001600160e01b03198216635a05180f60e01b14806104865750610486826111a8565b92915050565b6040518060400160405280600781526020016613585a5b9b995d60ca1b8152506040516020016104bc9190611c28565b6040516020818303038152906040528051906020012081565b6000828152606560205260409020600101546104f0816111dd565b6104fa83836111ea565b505050565b6001600160a01b03811633146105745760405162461bcd60e51b815260206004820152602f60248201527f416363657373436f6e74726f6c3a2063616e206f6e6c792072656e6f756e636560448201526e103937b632b9903337b91039b2b63360891b60648201526084015b60405180910390fd5b61057e828261120c565b5050565b61058d600033610d79565b6105cc5760405162461bcd60e51b815260206004820152601060248201526f24b731b7b93932b1ba1039b2b73232b960811b604482015260640161056b565b60cd5460d260006040518060400160405280600781526020016613585a5b9b995d60ca1b8152506040516020016106039190611c28565b6040516020818303038152906040528051906020012081526020019081526020016000208190555060cd60009055565b600082815260d3602090815260408083206001600160a01b03851684528252918290205482518084018452600781526613585a5b9b995d60ca1b818401529251859385936106a392869261068992909101611c28565b604051602081830303815290604052805190602001201490565b1561072b576001600160a01b038216600090815260ce602052604090205460ff166107105760405162461bcd60e51b815260206004820152601860248201527f526563697069656e74206d757374206265206163746976650000000000000000604482015260640161056b565b506001600160a01b038116600090815260cf60205260409020545b600083815260d2602052604090205442906107469083611c5a565b106107935760405162461bcd60e51b815260206004820152601b60248201527f4578636565646564206d6573736167652072617465206c696d69740000000000604482015260640161056b565b60ca546040516374a9e4c960e11b81523360048201526001600160a01b039091169063e953c99290602401602060405180830381865afa1580156107db573d6000803e3d6000fd5b505050506040513d601f19601f820116820180604052508101906107ff9190611c7b565b61085a5760405162461bcd60e51b815260206004820152602660248201527f53656e646572206973206e6f74207265676973746572656420746f6b656e206d60448201526530b730b3b2b960d11b606482015260840161056b565b61088e856040518060400160405280600781526020016613585a5b9b995d60ca1b8152506040516020016106899190611c28565b156108b3576001600160a01b038416600090815260cf602052604090204290556108d9565b600085815260d3602090815260408083206001600160a01b038816845290915290204290555b5050505050565b60d154821161093d5760405162461bcd60e51b815260206004820152602360248201527f4761732070726963652074696d657374616d7020616c726561647920757064616044820152621d195960ea1b606482015260840161056b565b4282111561099b5760405162461bcd60e51b815260206004820152602560248201527f54696d657374616d702073686f756c64206e6f7420626520696e207468652066604482015264757475726560d81b606482015260840161056b565b6040516e4d61696e6e6574476173507269636560881b6020820152602f0160408051601f19818403018152828252805160209182012060d0548452908301869052917fd9f6bd2abae0f2a51b3f5ffb29e0e35ee9ad2e3921ede0d71bff21dc8609f6f1910160405180910390a25060d09190915560d155565b60c9546001600160a01b03163314610a6e5760405162461bcd60e51b815260206004820152601d60248201527f53656e646572206973206e6f742061206d6573736167652070726f7879000000604482015260640161056b565b60cb546001600160a01b03848116911614610acb5760405162461bcd60e51b815260206004820152601c60248201527f53656e646572206d75737420626520436f6d6d756e697479506f6f6c00000000604482015260640161056b565b610aff846040518060400160405280600781526020016613585a5b9b995d60ca1b8152506040516020016106899190611c28565b610b555760405162461bcd60e51b815260206004820152602160248201527f536f7572636520636861696e206e616d65206d757374206265204d61696e6e656044820152601d60fa1b606482015260840161056b565b6000610b61838361122e565b9050600781600e811115610b7757610b77611c98565b14610bd85760405162461bcd60e51b815260206004820152602b60248201527f546865206d6573736167652073686f756c6420636f6e7461696e20612073746160448201526a3a3ab99037b3103ab9b2b960a91b606482015260840161056b565b6000610be48484611279565b6040808201516020808401516001600160a01b0316600090815260ce9091529190912054919250151560ff909116151503610c705760405162461bcd60e51b815260206004820152602660248201527f4163746976652075736572207374617475736573206d7573742062652064696660448201526519995c995b9d60d21b606482015260840161056b565b604081810180516020808501516001600160a01b0316600090815260ce90915292909220805460ff1916921515929092179091555115610d00577fdacccea96400d48c51a00ff7af4d1c6b6ac4909bbff0fe495f0e0edc298c3dde60cc548260200151604051610cf39291909182526001600160a01b0316602082015260400190565b60405180910390a1610d52565b7f01d8973c54faac85b2cfd40f935f8da4261d9883283ad73ce0e10aa91fc37bdf60cc548260200151604051610d499291909182526001600160a01b0316602082015260400190565b60405180910390a15b505050505050565b6000828152609760205260408120610d729083611312565b9392505050565b60009182526065602090815260408084206001600160a01b0393909316845291905290205460ff1690565b610dce7f96e3fc3be15159903e053027cff8a23f39a990e0194abcd8ac1cf1b355b8b93c33610d79565b610e295760405162461bcd60e51b815260206004820152602660248201527f4e6f7420656e6f756768207065726d697373696f6e7320746f2073657420636f6044820152651b9cdd185b9d60d21b606482015260840161056b565b600082604051602001610e3c9190611c28565b604051602081830303815290604052805190602001209050610e608160cc54141590565b610e9e5760405162461bcd60e51b815260206004820152600f60248201526e24b731b7b93932b1ba1031b430b4b760891b604482015260640161056b565b6040517254696d654c696d69745065724d65737361676560681b602082015260330160408051808303601f190181528282528051602091820120600085815260d28352839020548452908301859052917fd9f6bd2abae0f2a51b3f5ffb29e0e35ee9ad2e3921ede0d71bff21dc8609f6f1910160405180910390a2600090815260d2602052604090205550565b60008181526097602052604081206104869061131e565b600082815260656020526040902060010154610f5d816111dd565b6104fa838361120c565b600054610100900460ff1615808015610f875750600054600160ff909116105b80610fa15750303b158015610fa1575060005460ff166001145b6110045760405162461bcd60e51b815260206004820152602e60248201527f496e697469616c697a61626c653a20636f6e747261637420697320616c72656160448201526d191e481a5b9a5d1a585b1a5e995960921b606482015260840161056b565b6000805460ff191660011790558015611027576000805461ff0019166101001790555b6001600160a01b03821661107d5760405162461bcd60e51b815260206004820152601a60248201527f4e6f646520616464726573732068617320746f20626520736574000000000000604482015260640161056b565b611085611328565b611090600033611395565b60c980546001600160a01b038087166001600160a01b03199283161790925560ca8054928616929091169190911790556040516110d1908690602001611c28565b60408051601f19818403018152828252805160209182012060cc558282018252600783526613585a5b9b995d60ca1b83820152905161012c9260d29260009261111b929101611c28565b60408051808303601f190181529181528151602092830120835290820192909252016000205560cb80546001600160a01b0319166001600160a01b03841617905580156108d9576000805461ff0019169055604051600181527f7f26b83ff96e1f2b6a682f133852f6798a09c465da95921460cefb38474024989060200160405180910390a15050505050565b60006001600160e01b03198216637965db0b60e01b148061048657506301ffc9a760e01b6001600160e01b0319831614610486565b6111e7813361139f565b50565b6111f482826113f8565b60008281526097602052604090206104fa908261147e565b6112168282611493565b60008281526097602052604090206104fa90826114fa565b60008061123d83850185611853565b905061124a602082611cae565b60000361126d5761126561126084838188611cd0565b61122e565b915050610486565b61126583850185611d0e565b604080516080810182526000606082018181528252602082018190529181019190915260076112a8848461122e565b600e8111156112b9576112b9611c98565b146113065760405162461bcd60e51b815260206004820152601f60248201527f4d6573736167652074797065206973206e6f7420557365722053746174757300604482015260640161056b565b610d7282840184611d29565b6000610d72838361150f565b6000610486825490565b600054610100900460ff166113935760405162461bcd60e51b815260206004820152602b60248201527f496e697469616c697a61626c653a20636f6e7472616374206973206e6f74206960448201526a6e697469616c697a696e6760a81b606482015260840161056b565b565b61057e82826111ea565b6113a98282610d79565b61057e576113b681611539565b6113c183602061154b565b6040516020016113d2929190611de2565b60408051601f198184030181529082905262461bcd60e51b825261056b916004016118d5565b6114028282610d79565b61057e5760008281526065602090815260408083206001600160a01b03851684529091529020805460ff1916600117905561143a3390565b6001600160a01b0316816001600160a01b0316837f2f8788117e7eff1d82e926ec794901d17c78024a50270940304540a733656f0d60405160405180910390a45050565b6000610d72836001600160a01b0384166116e7565b61149d8282610d79565b1561057e5760008281526065602090815260408083206001600160a01b0385168085529252808320805460ff1916905551339285917ff6391f5c32d9c69d2a47ea670b442974b53935d1edc7fd64eb21e047a839171b9190a45050565b6000610d72836001600160a01b038416611736565b600082600001828154811061152657611526611e57565b9060005260206000200154905092915050565b60606104866001600160a01b03831660145b6060600061155a836002611e6d565b611565906002611c5a565b67ffffffffffffffff81111561157d5761157d611908565b6040519080825280601f01601f1916602001820160405280156115a7576020820181803683370190505b509050600360fc1b816000815181106115c2576115c2611e57565b60200101906001600160f81b031916908160001a905350600f60fb1b816001815181106115f1576115f1611e57565b60200101906001600160f81b031916908160001a9053506000611615846002611e6d565b611620906001611c5a565b90505b6001811115611698576f181899199a1a9b1b9c1cb0b131b232b360811b85600f166010811061165457611654611e57565b1a60f81b82828151811061166a5761166a611e57565b60200101906001600160f81b031916908160001a90535060049490941c9361169181611e84565b9050611623565b508315610d725760405162461bcd60e51b815260206004820181905260248201527f537472696e67733a20686578206c656e67746820696e73756666696369656e74604482015260640161056b565b600081815260018301602052604081205461172e57508154600181810184556000848152602080822090930184905584548482528286019093526040902091909155610486565b506000610486565b6000818152600183016020526040812054801561181f57600061175a600183611e9b565b855490915060009061176e90600190611e9b565b90508181146117d357600086600001828154811061178e5761178e611e57565b90600052602060002001549050808760000184815481106117b1576117b1611e57565b6000918252602080832090910192909255918252600188019052604090208390555b85548690806117e4576117e4611eae565b600190038181906000526020600020016000905590558560010160008681526020019081526020016000206000905560019350505050610486565b6000915050610486565b60006020828403121561183b57600080fd5b81356001600160e01b031981168114610d7257600080fd5b60006020828403121561186557600080fd5b5035919050565b6001600160a01b03811681146111e757600080fd5b6000806040838503121561189457600080fd5b8235915060208301356118a68161186c565b809150509250929050565b60005b838110156118cc5781810151838201526020016118b4565b50506000910152565b60208152600082518060208401526118f48160408501602087016118b1565b601f01601f19169190910160400192915050565b634e487b7160e01b600052604160045260246000fd5b6040516080810167ffffffffffffffff8111828210171561194157611941611908565b60405290565b6040805190810167ffffffffffffffff8111828210171561194157611941611908565b600080600083850360e081121561198057600080fd5b843593506020850135925060a0603f198201121561199d57600080fd5b506119a661191e565b85605f8601126119b557600080fd5b6119bd611947565b8060808701888111156119cf57600080fd5b604088015b818110156119ec5780358452602093840193016119d4565b509083523560208301525060a0850135604082015260c0909401356060850152509093909250565b60008060008060608587031215611a2a57600080fd5b843593506020850135611a3c8161186c565b9250604085013567ffffffffffffffff811115611a5857600080fd5b8501601f81018713611a6957600080fd5b803567ffffffffffffffff811115611a8057600080fd5b876020828401011115611a9257600080fd5b949793965060200194505050565b60008060408385031215611ab357600080fd5b50508035926020909101359150565b600082601f830112611ad357600080fd5b813567ffffffffffffffff811115611aed57611aed611908565b604051601f8201601f19908116603f0116810167ffffffffffffffff81118282101715611b1c57611b1c611908565b604052818152838201602001851015611b3457600080fd5b816020850160208301376000918101602001919091529392505050565b60008060408385031215611b6457600080fd5b823567ffffffffffffffff811115611b7b57600080fd5b611b8785828601611ac2565b95602094909401359450505050565b600060208284031215611ba857600080fd5b8135610d728161186c565b60008060008060808587031215611bc957600080fd5b843567ffffffffffffffff811115611be057600080fd5b611bec87828801611ac2565b9450506020850135611bfd8161186c565b92506040850135611c0d8161186c565b91506060850135611c1d8161186c565b939692955090935050565b60008251611c3a8184602087016118b1565b9190910192915050565b634e487b7160e01b600052601160045260246000fd5b8082018082111561048657610486611c44565b80151581146111e757600080fd5b600060208284031215611c8d57600080fd5b8151610d7281611c6d565b634e487b7160e01b600052602160045260246000fd5b600082611ccb57634e487b7160e01b600052601260045260246000fd5b500690565b60008085851115611ce057600080fd5b83861115611ced57600080fd5b5050820193919092039150565b8035600f8110611d0957600080fd5b919050565b600060208284031215611d2057600080fd5b610d7282611cfa565b6000818303606081128015611d3d57600080fd5b506040516000906060810167ffffffffffffffff81118282101715611d6457611d64611908565b6040526020831215611d74578182fd5b604051925060208301915067ffffffffffffffff82118383101715611d9b57611d9b611908565b81604052611da885611cfa565b8352918252602084013591611dbc8361186c565b82602082015260408501359250611dd283611c6d565b6040810192909252509392505050565b7f416363657373436f6e74726f6c3a206163636f756e7420000000000000000000815260008351611e1a8160178501602088016118b1565b7001034b99036b4b9b9b4b733903937b6329607d1b6017918401918201528351611e4b8160288401602088016118b1565b01602801949350505050565b634e487b7160e01b600052603260045260246000fd5b808202811582820484141761048657610486611c44565b600081611e9357611e93611c44565b506000190190565b8181038181111561048657610486611c44565b634e487b7160e01b600052603160045260246000fdfea264697066735822122025ab82fba666cb27f3eb0a99261b854d7e0d0c16606e4fc00d1eed6c4078366f64736f6c634300081b0033",
  "linkReferences": {},
  "deployedLinkReferences": {}
}